:020000041008E2
:4000000000780408EB0208100D0000005103081051030810510308105103081000000000000000000000000000000000813908104D03081000000000213A0810853A0810F6
:400040004D0308104D0308104D0308104D0308104D0308104D0308104D0308104D0308104D0308104D0308104D0308104D0308104D0308104D0308104D0308104D03081000
:400080004D0308104D0308104D0308104D0308104D0308104D0308104D0308104D0308104D0308104D0308104D0308104D0308104D0308104D0308104D0308104D030810C0
:4000C0004D0308104D0308104D0308104D0308104D0308104D0308104D0308104D0308104D0308104D0308104D0308104D0308104D0308104D0308104D0308104D03081080
:400100004D0308104D0308104D0308104D0308104D0308104D0308104D0308104D0308104D0308104D0308104D0308104D0308104D0308104D0308104D0308104D0308103F
:400140004D0308104D0308104D0308104D0308104D0308104D0308104D0308104D0308104D0308104D0308104D0308104D0308104D0308104D0308104D0308104D030810FF
:400180004D0308104D0308104D0308104D0308104D0308104D0308104D0308104D0308104D0308104D0308104D0308104D0308104D0308104D0308104D0308104D030810BF
:4001C0004D0308104D0308104D0308104D0308104D0308104D0308104D0308104D0308104D0308104D0308104D0308104D0308104D0308104D0308104D0308104D0308107F
:400200004D0308104D0308104D0308104D0308104D0308104D0308104D0308104D0308104D0308104D0308104D0308104D0308104D0308104D0308104D0308104D0308103E
:400240004D0308104D0308104D0308104D0308104D0308104D0308104D0308104D0308104D0308104D0308104D0308104D0308104D0308104D0308104D0308104D030810FE
:400280004D0308104D0308104D03081010B5054C237833B9044B13B10448AFF300800123237010BD8449020800000000647C0810084B10B51BB108490848AFF3008008489E
:4002C000036803B910BD074B002BFBD0BDE81040184700BF0000000088490208647C081054430208000000007047FFF7FDFF72B6104C114DAC4209DA21686268A368043B42
:40030000A2BFC858D050FAE70C34F3E70B490C4A00209142BCBF41F8040BFAE709480A490860BFF34F8F00F005FA00F0DFF900F0E3F8FEE7687C0810807C081084490208F6
:400340001C7602080040020808ED00E0FEE7FEE700B504207146084202D0EFF3098001E0EFF30880043001F0E7FAFEE7F0B5ADB000230A930B9308930993012413E0234891
:4003800004F06CFE00F006FA38B9214804F066FE4FF47A7002F05CFF05E01E4804F05EFE00F076FA0024002CE9D1042208A90AA800F02CFABDF82830BDF82A2092B2BDF81A
:4003C0002C1089B2BDF82E0080B2BDF82040A4B2BDF82250ADB2BDF82460B6B2BDF82670BFB206970596049503940290019100929BB2094A80210CA804F038FE0CA804F03E
:40040000BBFD4FF4FA7002F023FFCEE7BC730810DC730810FC730810207408102DE9F84F03F0F6FC2A4804F019FE012003F002FD0028FAD0274C0021204602F069F88346D3
:400440000121204602F064F882460221204602F05FF881460321204602F05AF880460421204602F055F807460521204602F050F806460621204602F04BF8054607212046ED
:4004800002F046F804465946134804F075FD5146124804F071FD4946114804F06DFD4146104804F069FD39460F4804F065FD31460E4804F061FD29460D4804F05DFD2146CC
:4004C0000C4804F059FD4FF47A7002F0C1FEACE75474081000001D416C7408107C7408108C7408109C740810AC740810BC740810CC740810DC74081000B583B062B603F03C
:4005000001FC00F0B5FA03F0BBFC002401940223009323464FF480620849094802F022FD01940323009323464FF480620549064802F018FD02F048FDFEE700BFEC740810F1
:400540006D030810FC7408101D04081008B5012001F062F908BD00BF704700BF5C4AD2F8803303F00F0303F1D00152F8212002F00702032A04D0042A05D092B9554914E0BA
:40058000554A116811E003F1C002514951F8222002F01F02112A06D0132A04D04FF4FA4103E04E4901E04FF400418BBB484BD3F8902502F00100D3F88825C2F30172D3F80E
:4005C000883513F0405F07D0414BD3F88835C3F30173012B02D102E0012300E0002303B108B9032A46D13A48D0F88025C2F31103D0F88425C2F30C02D0F88005C0F300607A
:400600000130B1FBF2F202FB03F2B2FBF0F131E0012B2FD12E4BD3F8402602F00100D3F80026C2F30172D3F8003613F0405F07D0274BD3F80036C3F30173012B02D102E08E
:40064000012300E0002303B108B9032A12D12048D0F8002602F07F02D0F80036C3F30423D0F80006C0F3044002FB01F2B2FBF3F2B2FBF0F1164BD3F88033C3F3011321FA91
:4006800003F215494A601648D0F89030C3F3072301330069000E0130B2FBF0F08860B2FBF3F3CB600B6103F5742202F23F220D48A0FB0202C2F387420A7503F2E7330A4AC5
:4006C000A2FB03239B098B61DB03CB61704700BF0000264000127A008C42020800366E010000214083DE1B43D34D621008B50D4801F086F9FFF730FFFFF730FF00221146C1
:40070000042000F051FE084800F0E4FE074B1B6893F8513013B1064800F04CFF00F08EFD08BD00BF78770810A04902082C7502080875081008B501F05CF9074AD2F88830F7
:4007400043F47003C2F88830BFF34F8FBFF36F8F01F053F908BD00BF00ED00E038B504460021642000F066FB204600F01FFC0121642000F0B1FB012000F052FC05460020E5
:4007800000F04EFC044600F0E7FB44EA052080B238BD00BF10B50820FFF7E0FF04460146044804F0E9FB40F61620844214BF0020012010BD3C75081038B505460C460021AC
:4007C000642000F037FB284600F0F0FB200A00F0EDFBE0B200F0EAFB00F0BEFB012038BD38B504460D463020FFF7B8FF2DB920F0030040EA040189B204E020F00C0141EACC
:40080000840189B23020FFF7D7FF38BDF8B507460E46154600240FE004F16400C0B2FFF79DFF27F8140004F16800C0B2FFF796FF26F814000134E4B2AC42EDD3F8BD00BF22
:4008400008B501461020FFF7B7FF08BD10B504464B20FFF783FFE10189B2014389B24B20FFF7AAFF10BD00BF38B505460C461420FFF774FF20F0F00081B241EA051121F4FF
:40088000706141EA04211420FFF796FF38BD00BF08B50120FFF7D4FF01210F20FFF78CFF0120FFF7CDFF0120FFF7D0FF05210846FFF7DAFF00210220FFF792FF01210846E5
:4008C000FFF78EFF41F204012420FFF775FF4FF480512320FFF770FF4FF407712520FFF76BFF40F619013120FFF766FF40F619013620FFF761FF4FF408713020FFF75CFF1E
:400900004FF408713520FFF757FF4FF4D7513920FFF752FF4FF4D7513B20FFF74DFF05211220FFF749FF41F637414220FFF744FF41F637414420FFF73FFF42F295614B208B
:40094000FFF73AFF98214D20FFF736FF42F290014F20FFF731FF00215020FFF72DFF47F206013C20FFF728FF43F231111120FFF723FF4FF4F8510620FFF71EFF4CF2FF016E
:400980000120FFF719FF40F201110B20FFF714FF05210220FFF710FF0220FFF751FF08BD10B504462146034801F05AF80028F9D010BD00BF00006640054BD3F80833C3F3E3
:4009C0000803002BF8D0024BD3F84003704700BF0000664010B50024184B1C70012203F582731A7001F005F8154A137843F010031370C0B201F001F80F22124B1A700822D1
:400A000003F580731A70104B4FF08062C3F88C20BFF34F8FBFF36F8FE02283F87A230B497A2000F00FFF1022094B1A70094B1C70094B1C70094B1C7010BD00BF2017344031
:400A4000241934402812344000E100E0990A0810187502081E750208267502081C750208024A137843F00203137070472017344008B5074B1B7823B9FFF7ACFF0122044BA2
:400A80001A70FFF7EDFF4FF08062024BDA6008BD204B020800E100E038B5B64B1C78B64B1B7813F0400F00F0B181E4B214F0010F00F09481B04B1B78453B052B00F28981B4
:400AC000DFE813F00600A700870187010600200104F0DF0504F00A04082C5CD1A64B1B78DBB2452B47D1A54B1B7813F0FF0F18D0A34B1B681B78DBB2A24A13700622A24BE3
:400B00001A70FF22A3F5C1631A70002203F580631A7001229D4B1A704622974B1A702C465CE19B4B1B7813F0020F12D0994A137843F00A03137060228F4B1A704FF080627E
:400B4000954BC3F88C20BFF34F8FBFF36F8F2C4644E1924A137843F02003137052228A4B1A70FF22A3F5C1631A70002203F580631A702C4632E10222834B1A70FF22A3F59C
:400B8000C1631A70002203F580631A704A227A4B1A702C4622E10A2C35D17E4A137843F0A00313707A4B1B7813F0020F19D0724B1B7813F0080F01D0092300E00A23754A60
:400BC00011780B43137060226B4B1A704FF08062714BC3F88C20BFF34F8FBFF36F8F2C46FCE06E4A137843F0200313705222664B1A70FF22A3F5C1631A70002203F58063D8
:400C00001A702C46EAE0C721654800F085FE2C46E4E014F0020F48D15C4B1A78D2B2574B1B78DBB29A4218D2584A1378DBB254490968CB5CDBB253490B700621524B19705D
:400C4000FF21A3F5C1631970002103F58063197013780133DBB21370C0E04D4B1B7813F0020F11D04B4A137843F00A0313706022414B1A704FF08062474BC3F88C20BFF3B4
:400C80004F8FBFF36F8FA9E0444A137843F02003137052223C4B1A70FF22A3F5C1631A70002203F580631A7098E0394B1B7813F0020F11D0374A137843F09A031370602253
:400CC0002D4B1A704FF08062334BC3F88C20BFF34F8FBFF36F8F81E0304A137843F0200313705222284B1A70FF22A3F5C1631A70002203F580631A70264A137843F090034D
:400D000013706BE0274A1378DBB2274908681D490978C9B2C15413780133DBB213701278D2B2224B1B78DBB29A420BD20222164B1A70FF22A3F5C1631A70002203F580636F
:400D40001A704BE0124B1B7813F0020F30D0114A137843F0090313706022074B1A704FF080620D4BC3F88C20BFF34F8FBFF36F8F34E000BF24163440187502081D750208E0
:400D80002875020818103440201734401C750208247502081E75020800E100E024183440587508102675020820750208257502081B4A137843F0200313701222194B1A7041
:400DC000FF22A3F5C1631A70002203F580631A7004E040F22311144800F09EFD14F0200F1CD0124B1B7813F0080F01D0012300E002230F4A11780B431370094A137803F02D
:400E0000DF0313701022094B1A7038BD074B1B7813F0100F02D11022044B1A7038BD00BF241834402017344058750810187502081E750208234B1B78DBB2102B3CD1224BF8
:400E40001B7813F0100F39D14FF080621F4BC3F88C20BFF34F8FBFF36F8F4000C0B229B140F001004922174B1A7002E04522154B1A70174B1870822203F5E1631A70FF22C5
:400E8000A3F5C1631A70002203F580631A70114B1B7813F0FF0FFAD10B4B1B7813F0010FFAD0094B1B7803F00A030A2B08D11022044B1A7003207047022070470120704749
:400EC00000207047187502082416344000E100E018103440181134401B4B1B7813F0040F2ED04000C0B229B140F001004922174B1A7002E04522154B1A70154B187032224C
:400F000003F5E1631A70FF22A3F5C1631A70002203F580631A700F4B1B7813F0FF0FFAD1094B1B7813F0010FFAD0074B1B7803F00A030A2B06D11022044B1A70032070479A
:400F4000022070470020704724163440187502081810344018113440104B1B7813F0040F19D052220E4B1A70FF22A3F5C1631A70002203F580631A700A4B1B7813F0FF0F18
:400F8000FAD11022084B1A70044B1B7813F0210FFAD0002070470220704700BF24163440201734401811344018750208184B1B7813F0040F29D0174B1870062203F5E16329
:400FC0001A70FF22A3F5C1631A70002203F580631A70114B1B7813F0FF0FFAD146220F4B1A700B4B1B7813F0010FFAD0084B1B7813F0020F04D16022084B1A700020704797
:401000006022064B1A70032070470220704700BF241634401810344018113440187502081F4B1B7813F0040F36D01E4B1B78DBB2492B12D102221C4B1A70FF22A3F5C16378
:401040001A70002203F580631A70184B1B7813F0FF0FFAD14A22134B1A70114B1B7813F0010FFAD0124B1A78D2B288B1022103F5E1631970FF21A3F5C1631970002103F55B
:4010800080631970094B1B7813F0FF0FFAD104E06021044B197000E000221046704700BF24163440187502082017344018113440181034401F4B98422DD00CD840282ED042
:4010C00003D8E8B1102828D02FE0802829D0B0F5807F28D029E0184B984228D006D8B0F1204F0DD0154B984212D01EE0144B98420AD00133984209D0023B984215D101E005
:40110000002070470F4870470F4870470F4870474FF4A0007047074870470D4870470D4870470D487047034870470C4870474FF4A400704706005200010000F0090000A04D
:40114000040000F0010052000200520003005200010050000200500005005200FF00520038B5124B1B6893F83130012B04D840F2C3110F4800F0D0FB0C4B1D682A6AB5F83E
:40118000B03013442C46D5F8B420D358002B0BDB084B1868FFF78EFF6B6801229A6063689B68002BFBD138BD034838BD2C7502087C750810244B0208020050001A4B18610C
:4011C00028B102230370FF23437000234380174B1B6893F850202AB300B583B0B3F93830ADF80030002301931149684600F04EFBBDF90030002B08DB590903F01F030122AF
:4012000002FA03F30B4A42F82130084B1B6893F8513023B102220849012000F077FA03B05DF804FB704700BF244B02082C750208C543020800E100E07D44020808B50248E9
:40124000FFF7BCFF08BD00BF384B020838B50B4B1B68D3F8B4301B58002B0DDA0D4604460B0C1B0423B140F2D521054800F054FBA9B26160002038BD024838BD2C7502083C
:40128000BC75081001008A0038B50368002B01DA002300E0094B73B90D460446C2600B0C1B0423B140F2BB21054800F035FBA9B2A160002038BD014838BD00BF01008A003C
:4012C000BC75081038B504460D4619B99921084800F022FB074B1B68D3F8B4301B59002B03DAE3682B60002038BD034838BD00BFFC7508102C75020801008A00254B1B6896
:4013000093F8313083423AD900293AD00B6813F01F0F38D170B50D4604461E4B1B6893F83130984204D340F2C3111B4800F0F4FA184B1B68186AB3F8B03004FB0304174E19
:4013400034602A68D2080021686803F09CF900212046FFF77BFF346825B940F293310E4800F0DAFA2A4600212046FFF78DFF60B900210A4B1868FFF769FF40B970BD084817
:4013800070470748704706487047064870BD054870BD00BF2C750208BC7508103C4B020803018A0001018A0010B504461346B2B9A9B9124B1B6893F83130984204D340F234
:4013C000C3110F4800F0A8FA0C4B1B681A6AB3F8B03004FB03240B4B1C60002010BD43B149B1084A51609360111D2046FFF786FF10BD054810BD044810BD00BF2C75020805
:40140000BC7508103C4B020803018A002DE9F0411B4B1B68DC68236883422CD90D464609A0EB4610012303FA00F819B900F0E1FA074600E00027124B18680368002B01DAA0
:40144000002300E00F4B83B9626852F8263018EA030F05D023EA080342F82630002400E0094C0021FFF7F2FE00E0084C25B9384600F0C3FA00E0064C2046BDE8F08100BFCE
:401480003C4B020801008A00020188000301880004018A000B4B1B68DB681A6882420CD94109A0EB4110012202FA00F05B6853F82130184203D00448704704487047044810
:4014C000704700BF3C4B02080101880004018A0000018800024B1B680BB9014B18607047484B02082DE9F8430446884691461D46089F2C4B1B681BB9B5212B4800F00CFA40
:40150000284B1B682C2000FB04F01C18EEB21E50C5F3072363602D0CA560244B1B6893F831309E4204D340F2C311214800F0F4F91E4B1B68196AB3F8B02006FB02162661EA
:40154000666893F832309E4204D340F2DF11184800F0E2F9154B1B681D6A803605EB46156561A668330C1B0423B14FF4FF71104800F0D2F9330C1B0423B140F2FF110C48AD
:4015800000F0CAF9B3B243EA0646AE60C4F81C90C4F820800023A36117B1B7F90030A381BDE8F883484B02083C7608102C750208BC750810F0B58FB0044618B95221274879
:4015C00000F0AAF9A369072B03D95621234800F0A3F9E36A1BB95821204800F09DF9236B1BB959211D4800F097F907AD04F114060FCE0FC537682F6002AD26460FCE0FC519
:4016000033682B60164B1B68B3F93620079B1344ADF83030089B0D93A26AE16A0CAD00953B460A98FFF75EFF00210091069B0A460598FFF757FF216B284600F027F9BDF9F6
:401640003030002B08DB590903F01F03012202FA03F3044A42F821300FB0F0BD3C7608102C75020800E100E0F8B506460F461D4614461AB9FD211F4800F04EF91E4B1B686F
:401680001BB9FE211B4800F047F91B4B1B682C2101FB063001FB07314B68012202FA03F31B04466802FA06F60269EAB18F69EFB91268002A01DA002200E0104AC2B92288D5
:4016C000134323600369DC6001238B614D620469330C1B0423B140F2BB21094800F01CF9B2B2A2600020F8BD0648F8BD0648F8BD0548F8BD3C760810484B020801008A0072
:40170000BC75081004028A0007028A00F8B505460F4616460E4B1B6823B94FF4AF710D4800F0FAF80A4B1B682C2404FB0534236A23B94FF4B171074800F0EEF8E369B342AE
:4017400004D9236A43F826700020F8BD0248F8BD484B02083C7608100A028A0070B582B000230193044620B940F2D111284800F0D3F8236923B94FF4E971254800F0CCF8C7
:40178000636923B940F2D311214800F0C5F8236A23B94FF4EA711E4800F0BEF86369DD682A0C20D012041A601B682069194B1B68D3F8B430C358002B15DA01A9FFF782FD85
:4017C00060B9019803681E0CDBB2E269934206D2226A52F8233013B1984700E0002631462069FFF733FDADB275B16369ADB21D601B68636A1BB198470023636202E0A36A26
:4018000003B198470023A36163691B6802B070BD3C7608102C75020810B50446074B1B6823B940F2B111064800F076F8034B1B682C2000FB0430FFF791FF10BD484B0208AF
:401840003C76081038B50D4B9A680D4B9A420FD10D46044621B940F237110A4800F05CF804F11003064A52F8230042F8235038BD1030054B53F8200038BD00BF00ED00E0D9
:40188000004002087C7608100000081048B338B504460D464368072B03D93221134800F03BF8B4F900306268002B08DB5201D2B203F1604303F5614383F8002305E003F078
:4018C0000F035201D2B20A49CA540A4B9A680A4B9A4208D12946B4F90000FFF7B3FF002038BD06487047002038BD00BF7C76081014ED00E000ED00E0004002080100560022
:4019000008B5034B1B7800FB03F000F069F808BDA042020801BEFEE738B50D46044C18220146204603F0DCFBA5610020FFF7F2FFF0480208FEE700BF08B50268254BDA616F
:4019400042681A6282685A62C2689A620269DA6242691A6382695A63C2699A631E4A916AD963D16A1964516A5964516B9964926BDA64F1EE103A13F0900F27D0026A154B85
:401980001A65426A5A65826A9A65C26ADA65026B1A66426B5A66826B9A66C26BDA66026C1A67426C5A67826C9A67C26CDA67026DC3F88020426DC3F88420826DC3F888204D
:4019C000C26DC3F88C20026EC3F89020FFF7B2FF08BD00BFF048020800ED00E0000000000230800803D001300238FCD100BF00BF7047EFF3108072B6704780F3108870472F
:401A0000014B1860704700BF2C75020810B4D0F8003303F00F03072B06D900230DE0D0F84043CC54013300E000239342F7D306E0D0F8404321F8134001339342F8D35DF8D5
:401A4000044B704710B51446D0F80833C3F308039A4200D31C462246FFF7D8FF204610BD036813F4006F01D0802200E04022D0F80832C3F30803934203D0C0F840120120D8
:401A800070470020704700BF10B4D0F8003203F00F03072B06D900230DE0CC5CC0F84042013300E000239342F7D306E031F81340C0F8404201339342F8D35DF8044B7047F2
:401AC00010B51446036813F4006F01D0802200E04022D0F80832C3F30803D31AA34200D81C462246FFF7D0FF204610BD2DE9F84305460C46036813F4006F02D04FF080089A
:401B000001E04FF04008D5F8007207F00F07A26A012A19D9D4F82490E262561EB9F1000F00D026B940F273512548FFF7F5FE324649462846FFF7C4FFA36A1B1AA362072F31
:401B400000D9400048446062D5F80832C3F30803984533D0A36A012B30D10023A362072F02D8636A1E7801E0636A1E88FFF741FFC5F840624FF40073C5F8803FD5F8803FDA
:401B8000FFF73BFFD5F8883F23F4007222F0010242F4007623F4EE6323F0030323B140F22A410848FFF7B8FEC5F8886F236843F002032360236B0BB101209847BDE8F883C5
:401BC00030780810707808102DE9F04105460C46036813F4006F01D0802600E040267608A769D4F81C8017B1B8F1000F04D14FF499613148FFF790FE424639462846FFF7B3
:401C000021FF236A03442362E3691B1AE36173BBA368FBB1E3689E4201D8013E00E05E1E2B6813F4006F01D0802300E040239E4204D34FF420712148FFF76EFED5F80433C8
:401C400023F0FF03F6B21E43C5F804630123C5F8C83F02E00023C5F8C83F636823F001036360236B33B304209847BDE8F081A169D5F8002302F00F02072A00D940000844AC
:401C8000A0619E4216D95C1E2B6813F4006F01D0802300E040239C4204D34FF420710748FFF73AFED5F8043323F0FF02E3B21343C5F80433BDE8F081307808107078081047
:401CC000002800F0A48170B50546002900F0A18116460C460B78022B03D93F21A248FFF71BFE637B023BDBB2062B03D940219E48FFF712FEA37B3BB1022B05D0032B03D05A
:401D000041219948FFF708FE94F82130012B03D942219548FFF700FE94F82830012B03D943219148FFF7F8FD2378012B06D86368083B082B94BF0023012307E0A37F2BB1D2
:401D40006368013B062B94BF002301231BB145218548FFF7E1FDA368053B042B03D946218148FFF7D9FD6369FF2B03D947217E48FFF7D2FDA369FF2B03D948217A48FFF774
:401D8000CBFDA37C6BB1237833B9A368092B05D1A37B2BB1012304E0012302E0012300E000231BB14A217048FFF7B6FD636B23F4366323F00D031BB14C216B48FFF7ACFD91
:401DC000E36B23F4EE6323F003031BB14D216648FFF7A2FD2378022B01D1A37F13B16268013A00E00022237F13B14FF4803100E00021A368082B02D84FF4006300E00023F4
:401E00000B4302F00F02134343F000732B60226B2B6813F4006F01D0802300E040239A4203D362215048FFF777FDA26B2B6813F4006F01D0802300E040239A4203D3632143
:401E40004948FFF769FD626A2B6813F4006F01D0802300E040239A4203D364214248FFF75BFD23781B0603F040732B64637F0BB1402200E00022A37C13B14FF4806300E0FE
:401E800000231343227C12B14FF4807200E000221343627C12B14FF4007200E000221A43E36A013B1B0403F470231343627B013A02F007021343A27B120102F0300213436B
:401EC000AB64237B13B14FF4807200E00022E37B23B92378022B03D1012302E0012300E0002313B14FF4007300E000231A43A368013B03F00F031343C5F80033227DA36920
:401F00001B0403F47F031343C5F81033E26AD5F8003303F00F0303339A4201D3102A03D97A211148FFF7F8FCE37F23B12378012B03D0002302E0002300E0012313B14FF485
:401F4000807200E00022637B013B03F007031A43A37B1B0103F0300313436B64237B2BB14FF4807203E000BFB47808100022A368013B03F00F0313432278012A02D14FF440
:401F8000803200E000221343C5F8003294F83030C5F8043394F8203013B14FF0007200E0002294F82130012B02D14FF0807300E00023134394F82820012A02D14FF48032C7
:401FC00000E00022134394F8242013432B6594F83830C5F80432636B23F4926323F002031B051B0DC5F8C83FE36B23F08C035B055B0DC5F8883F76B1002070603060B060FB
:40200000F0603062F0623063044B736370BD04487047034870BD002070BD00BFEFCDAB000160AA000B694A69934202D34869181A7047CA694869101A184470472DE9F041BB
:4020400007460D46036813F4006F02D04FF0800801E04FF040084FEA5808D7F80863C6F308062C6926E00134EB689C4200D100246B699C420FD12B6B0BB1082098476B698F
:402080009C4208D10023C7F8C83F0CB1013C13E0EC68013C10E0D7F84023D7F8003303F00F03072B02D8AB681A5502E0AB6823F81420013E002ED6D12C61EC682946384625
:4020C000FFF7B0FF201A804519D908B1441E00E000243B6813F4006F01D0802300E040239C4204D34FF420710648FFF715FCD7F8040320F0FF03E0B21843C7F80403BDE83D
:40210000F08100BF7078081038B504460D46D0F8003E13F0080F35D0D0F8CC3F13F448730AD04A681A434A60C0F8C03FD0F8C03F0B6B0BB110209847D4F8CC3F13F4006F8C
:4021400009D06B6843F400636B604FF40063C4F8C03FD4F8C03FD4F8CC3F13F0010F11D0EB6923B129462046FFF72EFD05E0AB681BB129462046FFF761FF0123C4F8C03F6B
:40218000D4F8C03FD4F8003E13F0040F2ED0D4F88C3F13F4A0630AD02A681A432A60C4F8803FD4F8803F2B6B0BB120209847D4F88C3F13F0010F08D029462046FFF796FCEC
:4021C0000123C4F8803FD4F8803FD4F88C3F13F4007F0BD00022C4F8882F2B6823F001032B60EA622B6B0BB10220984738BD00BF2DE9F8430E46074618B93A217548FFF7CF
:402200008BFB1EB93B217348FFF786FB002F00F0DA80002E00F0DA8032686F4B13401BB14A216C48FFF778FB72686C4B13401BB14B216848FFF770FBB36813F0FC2F03D07E
:402240004C216448FFF768FBF36813F0FC2F03D04D216048FFF760FB337D032B03D94E215C48FFF759FBB369B3F5803F03D34F215848FFF751FBF36D072B03D950215548EB
:40228000FFF74AFB336EB3F5803F03D351215148FFF742FB736EB3F5803F03D352214D48FFF73AFB736843F000437B60B3683B61F3687B613369BB61337D9B07FB61B369DA
:4022C0003B62336803F46068736803F00409002435E02546A31D06EB83035A68404B13401BB163213B48FFF717FBAB1D06EB8303596805F1200247F822105B6813F0012F37
:402300000BD1B8F5606F08D1B9F1000F05D04FF47842344B23F8152003E00022314B23F81520726F02F11C7303F58033520093FBF2F31BB22C4A42F825300134E4B20F2C96
:40234000C7D9F36DC7F81832F36DC7F81032336EC7F82832336EC7F82032736EC7F83832736EC7F8303296F87030DBB1B36EB3F1804F03D382211748FFF7CEFAF36E23F41F
:402380004F0323F0FF031BB183211248FFF7C4FA6FF04043C7F80433B36EC7F80033F36EC7F84433D7F8003F3F2B02D0D7F8003F13B90B23C7F8003F336843F400133B60E6
:4023C0000020BDE8F8830948BDE8F8830748BDE8F88300BFF47808100811DF0001FE302088CA887E30750208507502080100060038B50D46044618B9B5211748FFF78CFA4A
:402400002CB30023236063604FF0031222616261A361E361236206E003F12002002144F822100133DBB20F2BF6D90023C4F81832C4F82832C4F838325DB16FF04043C4F887
:4024400004330020C4F84003C4F8440338BD034838BD002038BD00BFF47808100100060008B50368002B0ADBD0F8A032002BFBDB036843F0004303600220FFF741FA08BD40
:4024800038B505460C46012904D940F271110648FFF742FA012C04D16B6843F480336B6038BD01236B6238BDF478081038B504460D46012904D94FF4F0711148FFF72CFAC4
:4024C000D4F8103203F00103012D06D00AE0D4F8103203F00103013A00E00A4A1BB9002AF5D100E0074A33B10123C4F81032D4F81032002038BD0AB9034838BD034838BD14
:40250000F478081055555501020006000300060038B505460C460F2904D940F27B210648FFF7FAF90F2C04D8603455F8240080B200E0002000B238BDF478081070B5064678
:4025400014461D4621B140F29E410E48FFF7E4F9B4F1804F04D340F29F410A48FFF7DCF9012D04D94FF494610648FFF7D5F9012D05D1D6F800331C43C6F8004370BDC6F873
:40258000044370BDF478081070B504460D46164621F44F0323F0FF0323B140F2ED410C48FFF7BAF9012E04D940F2EE410848FFF7B3F9012E05D1D4F844331D43C4F84453FE
:4025C00070BDD4F8443323EA0505C4F8445370BDF478081000F1080343604FF0FF328260C360036100230360704700BF00230361704700BF43684B609A688A609A685160EA
:4026000099600861036801330360704730B40D68B5F1FF3F01D1026907E000F1080200E01A4653681C68A542FAD253684B6099608A605160086103680133036030BC7047E9
:4026400003694268816891608268416851605A68904201D182685A60002202611A68013A1A601868704700BF10B5044601F09AF9A26BE36B9A4201D1012400E0002401F0B4
:40268000B3F9204610BD00BF10B5044601F08AF9A36B0BB9012400E0002401F0A5F9204610BD00BF70B504461646856B026CFAB166B9806801F0DCFFA268236C1344A360E3
:4026C0006268934214D32368A36011E0C06801F0CFFF236C5B42E2681A44E26021688A4202D262681344E360022E01D105B1013D0135A563002070BD026C72B110B503462B
:40270000C4681444C4604068844201D31868D8600846D96801F0ACFF10BD704738B5054601F040F995F8454064B20AE06B6A53B105F1240000F050FE08B100F0DBFE013CE4
:4027400064B2002CF2DCFF2385F8453001F04CF901F028F995F8444064B20AE02B6953B105F1100000F038FE08B100F0C3FE013C64B2002CF2DCFF2385F8443001F034F930
:4027800038BD00BF38B540B94FF03F0383F31188BFF36F8FBFF34F8FFEE704460D4601F001F92168E26B236C03FB021060600020A063A160013A02FB0313E360FF2384F8BA
:4027C000443084F845307DB92369ABB104F1100000F002FE80B14FF08052094B1A60BFF34F8FBFF36F8F07E004F11000FFF7F2FE04F12400FFF7EEFE01F0F6F8012038BD4F
:4028000004ED00E010B5029B0C4609B91B6000E01A60D8631C6401211846FFF7B3FF10BD40B94FF03F0383F31188BFF36F8FBFF34F8FFEE7F0B583B0034611B101FB00F04F
:4028400000E000201D4617460C46483001F0ECF9064638B100903B4600F1480221462846FFF7D0FF304603B0F0BD00BFF0B585B0019240B94FF03F0383F31188BFF36F8FA2
:40288000BFF34F8FFEE7044619B9026C1AB9012202E0012200E0002242B94FF03F0383F31188BFF36F8FBFF34F8FFEE7022B03D1E26B012A02D102E0012200E0002242B91E
:4028C0004FF03F0383F31188BFF36F8FBFF34F8FFEE71D460E4600F015FE18B9019B1BB9012302E0012300E0002343B94FF03F0383F31188BFF36F8FBFF34F8FFEE7002723
:4029000001F050F8A26BE36B9A4201D3022D21D12A4631462046FFF7C5FE636A6BB104F1240000F059FD88B14FF08052324B1A60BFF34F8FBFF36F8F08E038B14FF0805281
:402940002D4B1A60BFF34F8FBFF36F8F01F04CF801204EE0019B1BB901F046F8002048E01FB902A800F07CFD012701F03DF800F069FB01F017F894F844305BB2B3F1FF3F3E
:4029800002D1002384F8443094F845305BB2B3F1FF3F02D1002384F8453001F025F801A902A800F067FDF0B92046FFF75DFEA0B1019904F1100000F0D7FC2046FFF7AEFE89
:4029C00000F0CEFB00289BD14FF080520A4B1A60BFF34F8FBFF36F8F92E72046FFF79EFE00F0BEFB8CE72046FFF798FE00F0B8FB002005B0F0BD00BF04ED00E02DE9F843E5
:402A000040B94FF03F0383F31188BFF36F8FBFF34F8FFEE7044619B9006C18B9012002E0012000E0002040B94FF03F0383F31188BFF36F8FBFF34F8FFEE7022B03D1E06B71
:402A4000012802D102E0012000E0002040B94FF03F0383F31188BFF36F8FBFF34F8FFEE71F469046894601F0A1F8EFF311864FF03F0383F31188BFF36F8FBFF34F8FA26BBF
:402A8000E36B9A4201D3022F1ED194F845506DB23A4649462046FFF705FEB5F1FF3F0DD1636A9BB104F1240000F096FC80B1B8F1000F0FD00120C8F800000CE06B1C5BB2AB
:402AC00084F84530012006E0002004E0012002E0012000E0012086F31188BDE8F88300BFF0B585B0019240B94FF03F0383F31188BFF36F8FBFF34F8FFEE7044619B9036C1E
:402B00001BB9012302E0012300E0002343B94FF03F0383F31188BFF36F8FBFF34F8FFEE70E4600F0EFFC18B9019B1BB9012302E0012300E0002343B94FF03F0383F31188BA
:402B4000BFF36F8FBFF34F8FFEE7002700F02AFFA56BC5B131462046FFF7CEFD013DA563236963B104F1100000F036FC38B14FF08052304B1A60BFF34F8FBFF36F8F00F0A0
:402B800033FF012053E0019B1BB900F02DFF00204DE01FB902A800F063FC012700F024FF00F050FA00F0FEFE94F844305BB2B3F1FF3F02D1002384F8443094F845305BB2A1
:402BC000B3F1FF3F02D1002384F8453000F00CFF01A902A800F04EFCF0B92046FFF754FDA0B1019904F1240000F0BEFB2046FFF795FD00F0B5FA0028A8D14FF080520D4BE9
:402C00001A60BFF34F8FBFF36F8F9FE72046FFF785FD00F0A5FA99E72046FFF77FFD00F09FFA2046FFF730FD00288FD0002005B0F0BD00BF04ED00E000230BE0074A52F83B
:402C4000332032B9054A42F8331002EBC303586070470133092BF1D9704700BF9075020870B504460D46164600F09CFE94F844305BB2B3F1FF3F02D1002384F8443094F868
:402C800045305BB2B3F1FF3F02D1002384F8453000F0AAFEA36B2BB93246294604F1240000F07CFB2046FFF739FD70BD094B9B6A1B680BB9012300E0002323B14FF0FF320E
:402CC000044BDA627047034B9A6AD268D2685268DA627047884B020810B50446006B00F0D3FF204600F0D0FF10BD00BF2DE9F0478246894615469846089F099E0A9C9200B2
:402D0000A521206B01F0BFFC236B05F18042013A03EB820525F00705002308E019F80310E21882F8341019F8032012B101330F2BF4D9002384F84330062F00D90627E762D0
:402D4000201DFFF753FC04F11800FFF74FFC2461C7F10703A3616462002306E003F1100204EB8202002151600133042BF6D90023A36584F85C3042465146284600F0E4FD5B
:402D8000206006B13460BDE8F08700BF70B5002407E004EB8402930010481844FFF71AFC0134062CF5D90E4C04F1BC063046FFF711FC04F1D0052846FFF70CFC04F1140077
:402DC000FFF708FC04F1E400FFF704FC2046FFF701FCA662C4F8F85070BD00BFB84B0208884B020838B5044600F0DCFD264BD3F8FC200132C3F8FC20D3F800314BB9224B00
:402E0000C3F80041D3F8FC30012B10D1FFF7BEFF0DE01D4BD3F804314BB91B4BD3F80031DA6AE36A9A4202D8174BC3F80041164AD2F808310133C2F80831E36AD2F80C21B1
:402E4000934202D9104AC2F80C310F4D05F1300003EB83039A00211D1044FFF7CBFB00F0C3FDD5F804316BB1D5F80031DA6AE36A9A4207D24FF08052044B1A60BFF34F8FF7
:402E8000BFF36F8F38BD00BF884B020804ED00E038B517E000F086FD0D4CD4F8F030DD68281DFFF7CDFBD4F8FC30013BC4F8FC30D4F81031013BC4F8103100F095FD2846CA
:402EC000FFF70AFF024BD3F81031002BE2D138BD884B020808B5FFF7DBFF064B1B6B012BF9D94FF08052044B1A60BFF34F8FBFF36F8FF0E7884B020804ED00E070B504465A
:402F00000E46174BD3F81451D3F800010430FFF797FBB4F1FF3F07D136B11148D0F800110431FFF767FB70BD2C440D4BD3F800315C60A54208D90A4BD3F8F800D3F8001159
:402F40000431FFF763FB70BD054DA86AD5F800110431FFF75BFBEB6A9C4200D2EC6270BD884B02082DE9F04385B006460F4615469846900000F058FE60B18146602000F005
:402F800053FE044610B1C0F8309004E0484600F07BFE00E000248CB10023039302940D9B01930C9B009343462A4639463046FFF79DFE2046FFF716FF012001E04FF0FF30FC
:402FC00005B0BDE8F08300BF00B583B0194B019300230093802218491848FFF7C3FF012801D100F0F5FA012814D14FF03F0383F31188BFF36F8FBFF34F8F114B4FF0FF3210
:40300000DA620122C3F804210022C3F8142100F06BFD0BE0B0F1FF3F08D14FF03F0383F31188BFF36F8FBFF34F8FFEE703B05DF804FB00BFA44C020830790810D52E0810F3
:40304000884B0208034AD2F818310133C2F81831704700BF884B0208014BD3F814017047884B02082DE9F0413C4BD3F81831002B65D13A4BD3F814410134C3F81441CCB917
:403080009B6A1B6843B14FF03F0383F31188BFF36F8FBFF34F8FFEE7304B9A6AD3F8F8109962C3F8F820D3F820210132C3F82021FFF7FCFD294BDB6A9C4203D2002645E0DE
:4030C000012600E00026254B9B6A1B680BB9012300E0002323B14FF0FF32204BDA6235E01E4B9B6ADB68DD686B689C4202D21B4AD3622BE005F104084046FFF7A1FAAB6A72
:403100001BB105F11800FFF79BFAEB6A134AD2F80C21934202D9114AC2F80C310F4F07F1300003EB83039A0041461044FFF762FAEA6AD7F80031DB6A9A42C1D2C3E7074ABB
:40314000D2F824310133C2F824310026034BD3F8283103B101263046BDE8F081884B0208394BD3F8183143B94FF03F0383F31188BFF36F8FBFF34F8FFEE770B500F012FCA5
:40318000314BD3F81821013AC3F81821D3F81831002B52D12C4BD3F8FC303BBB00244FE0294D2B6ADC6804F11800FFF749FA261D3046FFF745FAE36AD5F80C21934201D9CE
:4031C000C5F80C31204D05F1300003EB83039A0031461044FFF70EFAE26AD5F80031DB6A9A4204D30122C5F8282100E00024164B5B69002BD4D10CB1FFF758FD124BD3F8D7
:40320000244164B1FFF72EFF18B101220E4BC3F82821013CF6D100220B4BC3F824210A4BD3F828315BB14FF08052084B1A60BFF34F8FBFF36F8F012402E0002400E000245A
:4032400000F0D2FB204670BD884B020804ED00E010B5B0B10446104BD3F8183143B14FF03F0383F31188BFF36F8FBFF34F8FFEE7FFF7E8FE00212046FFF740FEFFF770FFCC
:4032800000E0002038B94FF08052044B1A60BFF34F8FBFF36F8F10BD884B020804ED00E0304BD3F8183123B101222E4BC3F82821704710B52B4B0022C3F82821D3F8003171
:4032C0001B6B1A68B2F1A53F0BD15A68B2F1A53F07D19A68B2F1A53F03D1DB68B3F1A53F07D0204BD3F80001D3F80011343100F089FC1C4BD3F80C310AE043B94FF03F0380
:4033000083F31188BFF36F8FBFF34F8FFEE7013B03EB83018A0013490A44126B002AECD008469900CC18A2000244546B64685463303019448A0008320244944206D16068E3
:4033400003EB83018A0007490A445063054903EB830082000A44526BD268C1F80021C1F80C3110BD884B020840B94FF03F0383F31188BFF36F8FBFF34F8FFEE710B50C463B
:40338000054BD3F800111831FFF740F901212046FFF7B4FD10BD00BF884B020838B540B94FF03F0383F31188BFF36F8FBFF34F8FFEE70C461546074AD2F800111831FFF71E
:4033C00019F90DB14FF0FF3429462046FFF796FD38BD00BF884B020838B5C368DC6844B94FF03F0383F31188BFF36F8FBFF34F8FFEE704F118052846FFF722F9154BD3F8D2
:403400001831ABB9251D2846FFF71AF9E36A114AD2F80C21934202D90E4AC2F80C3103EB83039A0029460C481044FFF7E3F803E029460A48FFF7DEF8E26A064BD3F8003189
:40344000DB6A9A4204D90120024BC3F8280138BD002038BD884B0208B84B02089C4B0208034BD3F820210260D3F8143143607047884B0208F8B540B94FF03F0383F31188DE
:40348000BFF36F8FBFF34F8FFEE7054641B94FF03F0383F31188BFF36F8FBFF34F8FFEE70C4600F07FFA124BD3F814016968421A2368B3F1FF3F14D02F680D4ED6F8206136
:4034C000B74201D088420ED29A4206D29B1A23602846FFF7C5FF002406E000232360012402E0002400E0012400F07EFA2046F8BD884B02080122024BC3F82821704700BF1A
:40350000884B0208064BD3F804312BB1044BD3F818311BB9022070470120704700207047884B0208064B1A681368B3FA83F35B09036013B9D368186870470020704700BFD9
:40354000B44C020808B54160006191420AD8D21A83699A4211D2011D0A4B5868FFF756F8002008BD9A4201D2994208D2011D054B1868FFF74BF8002008BD012008BD012063
:4035800008BD00BFB44C020870B500F00BFA0E4B9B68B3B90C4C04F10C063046FFF71AF804F120052846FFF715F82660656000220C210A20FFF734F9A06010B10349FFF749
:4035C0003BFB00F011FA70BDB44C02083879081000B583B0FFF7D8FF0D4B9B6853B10D4B019303230093002380220B490B48FFF7B9FC00E0002040B94FF03F0383F3118841
:40360000BFF36F8FBFF34F8FFEE703B05DF804FBB44C0208E84C020840790810B538081040B94FF03F0383F31188BFF36F8FBFF34F8FFEE730B585B015460446124A90687F
:40364000F0B11A46019102950394052913DCFFF759FF022807D10023089A01A90A488068FFF704F90DE000231A4601A906488068FFF7FCF805E0002301A9FFF7BFF900E006
:40368000002005B030BD00BFB44C020870B582B029E0DB681E68DC68251D2846FEF7D0FF636A20469847E369012B1CD1A36933449E4207D2636024612946104B1868FEF764
:4036C000A5FF10E0002100910B4632462046FFF7A7FF40B94FF03F0383F31188BFF36F8FBFF34F8FFEE7054B1B681A68002AD0D1024A51681160536002B070BDB44C0208D9
:4037000038B50546FFF7A8FC0446074B9B6B984204D2FFF7BBFF01232B6001E000232B60014B9C63204638BDB44C020870B582B005460E46134B1B68DB68DC68201DFEF737
:403740007FFFE369012B18D1A1692B46324629442046FFF7F7FE80B1002100910B462A462046FFF75DFF40B94FF03F0383F31188BFF36F8FBFF34F8FFEE7636A204698479D
:4037800002B070BDB44C020870B582B006460C46FFF758FC01A8FFF7B3FF019B1BBB054644B9B04206D3FFF7DBFC29463046FFF7BDFF1AE02CB10E4B5B681C68B4FA84F40A
:4037C00064092246711B0A4B9868FFF749FAFFF7C7FC50B94FF08052064B1A60BFF34F8FBFF36F8F01E0FFF7BBFC02B070BD00BFB44C020804ED00E030B587B04DE0039B0E
:40380000002B4ADB059C636913B1201DFEF718FF02A8FFF775FF039B092B3ED8DFE803F00505053D273A05053D270499A5690B46024629442046FFF785FE70B3636A204607
:403840009847E369012B28D1A269002100910B46049802442046FFF7E3FEF0B94FF03F0383F31188BFF36F8FBFF34F8FFEE70499A16141B94FF03F0383F31188BFF36F8F94
:40388000BFF34F8FFEE70346024601442046FFF759FE02E0204600F0F7F9002203A9044B9868FFF71DF90028A9D107B030BD00BFB44C020800B583B001A8FFF733FE019958
:4038C000FFF762FFFFF798FFF6E700BF82B0002301930D4B1B68B3F1FF3F08D04FF03F0383F31188BFF36F8FBFF34F8FFEE74FF03F0383F31188BFF36F8FBFF34F8F019BA9
:40390000002BFCD002B07047AC42020808480068006880F308884FF0000080F3148862B661B6BFF34F8FBFF36F8F00DF00BF000008ED00E0DFF80C00016841F47001016089
:403940007047000088ED00E04FF0807340F8043C21F0010140F8081C054B40F80C3C40F8202C6FF0020340F8243C4438704700BFCD380810000000000000000000000000C3
:40398000074B19680868B0E8F04F80F30988BFF36F8F4FF0000080F311887047AFF30080884C02084FF03F0383F31188BFF36F8FBFF34F8F0A4A136801331360012B0DD1E7
:4039C000084B1B6813F0FF0F08D04FF03F0383F31188BFF36F8FBFF34F8FFEE7704700BFAC42020804ED00E0094B1B6843B94FF03F0383F31188BFF36F8FBFF34F8FFEE78C
:403A0000013B034A13600BB983F31188704700BFAC420208000000000000000000000000EFF30980BFF36F8F154B1A681EF0100F08BF20ED108A20E9F04F10602DE90900DA
:403A40004FF03F0080F31188BFF34F8FBFF36F8FFFF726FC4FF0000080F3118809BC19680868B0E8F04F1EF0100F08BFB0EC108A80F30988BFF36F8F704700BFAFF3008016
:403A8000884C020808B54FF03F0383F31188BFF36F8FBFF34F8FFFF7E5FA18B14FF08052024B1A60002383F3118808BD04ED00E0084A0023136008490B60084B1B68084992
:403AC000A1FB03139B09013B06490B6007231360704700BF10E000E018E000E098420208D34D621014E000E010B582B02A4B1A78D2B20192FF221A701B78DBB28DF80330DD
:403B00009DF80330254A03F03F0313700723536009E0224A5368013B53609DF803305B00DBB28DF803309DF8033013F0800FF0D11A4B5B68042B08D04FF03F0383F3118878
:403B4000BFF36F8FBFF34F8FFEE71B0203F4E063124A5360019BDBB20F4A1370104B1A6842F47F021A601A6842F07F421A60FFF79FFF00240B4B1C60FFF7DCFE0A4A13688F
:403B800043F040431360FFF7C1FEFFF789FBFFF79DFE204602B010BD00E400E0F04C020820ED00E0AC42020834EF00E0EFF305830F2B0FD9104A9B5CDBB2104A1278934222
:403BC00008D24FF03F0383F31188BFF36F8FBFF34F8FFEE70A4B1B6803F4E063074A5268934208D94FF03F0383F31188BFF36F8FBFF34F8FFEE77047F0E300E0F04C0208FE
:403C00000CED00E008B54FF03F0383F31188BFF36F8FBFF34F8F4FF441710248FDF77CFEFEE700BF4879081038B5044610F0070F02D020F007040834FFF704FA104B1B68AC
:403C40002BB90F4A02F10C0323F0070313600D4BD3F814361C4442F2F772944208D8A34208D2074A15681D44064BC3F8144602E0002500E00025FFF773FA284638BD00BF70
:403C8000F84C0208E86E020840B14FF03F0383F31188BFF36F8FBFF34F8FFEE7704700BF70B539B900240AE015F8010BFCF778FE013402E016460D460024B442F4DB20467E
:403CC00070BD00BF70B561B900240FE0FCF774FEC0B2287001340A2808D00D2806D0013502E016460D460024B442EFDB204670BD08B502490248FEF707FA08BDE075020823
:403D00000000664008B5114B1B785BB9104A11491148FDF7D5FF11491148FDF7B7FD01220A4B1A700E4BB3F90030002B08DB590903F01F03012202FA03F30A4A42F821303D
:403D4000054A136843F00043136008BD00750208E07502089879081000006640F13C08105075081000E100E038B50446264B1A68916892F8703003F00203DBB243F0804373
:403D8000C1F800340369FF2B0AD89168B2F874200A44916821F47F411B029BB20B439360194B1A68906892F87310032303FA01F592F8703092F8721003FA01F1294303F018
:403DC00002030B4343F00043C0F800349368D3F800340E4D00212846FEF70AFBA1682846FEF706FA01234FF4803200212846FEF7A5FB6368012B05D901224FF4803128462D
:403E0000FEF7C2FB38BD00BF2C75020800001D4108B5074B5B6813F4802F04D001210448FEF72EFB08BD00210148FEF729FB08BD00001D4108B501460348FEF737FB08B191
:403E4000002008BD012008BD00001D4108B5084B1B7963B907490848FDF718FD044B5B792BB90122024B5A710448FFF77DFF08BD04750208AD3E081040750810147A0810F2
:403E800008B5084B1B7913F0010F06D1FFF7DEFF044A137943F0010313710348FEF7E0FA08BD00BF0475020800001D4110B5094BD3F81042072C04D940F231610648FDF741
:403EC0002BFD044BC3F81042D3F81022D3F8103210BD00BF00001D41D879081081F0004102E000BF83F0004330B54FEA41044FEA430594EA050F08BF90EA020F1FBF54EAF4
:403F0000000C55EA020C7FEA645C7FEA655C00F0E2804FEA5454D4EB5555B8BF6D420CDD2C4480EA020281EA030382EA000083EA010180EA020281EA0303362D88BF30BD8A
:403F400011F0004F4FEA01314FF4801C4CEA113102D0404261EB410113F0004F4FEA03334CEA133302D0524263EB430394EA050F00F0A780A4F10104D5F1200E0DDB02FAFB
:403F80000EFC22FA05F2801841F1000103FA0EF2801843FA05F359410EE0A5F120050EF1200E012A03FA0EFC28BF4CF0020C43FA05F3C01851EBE37101F0004507D54FF08E
:403FC000000EDCF1000C7EEB00006EEB0101B1F5801F1BD3B1F5001F0CD349085FEA30004FEA3C0C04F101044FEA445212F5800F80F09A80BCF1004F08BF5FEA500C50F162
:40400000000041EB045141EA050130BD5FEA4C0C404141EB010111F4801FA4F10104E9D191F0000F04BF01460020B1FA81F308BF2033A3F10B03B3F120020CDA0C3208DD35
:4040400002F1140CC2F10C0201FA0CF021FA02F10CE002F11402D8BFC2F1200C01FA02F120FA0CFCDCBF41EA0C019040E41AA2BF01EB0451294330BD6FEA04041F3C1CDA9E
:404080000C340EDC04F11404C4F1200220FA04F001FA02F340EA030021FA04F345EA030130BDC4F10C04C4F1200220FA02F001FA04F340EA0300294630BD21FA04F02946F4
:4040C00030BD94F0000F83F4801306BF81F480110134013D4EE77FEA645C18BF7FEA655C29D094EA050F08BF90EA020F05D054EA000C04BF1946104630BD91EA030F1EBFCE
:404100000021002030BD5FEA545C05D14000494128BF41F0004130BD14F580043CBF01F5801130BD01F0004545F0FE4141F470014FF0000030BD7FEA645C1ABF1946104643
:404140007FEA655C1CBF0B46024650EA013406BF52EA033591EA030F41F4002130BD00BF90F0000F04BF0021704730B54FF4806404F132044FF000054FF0000150E700BF8F
:4041800090F0000F04BF0021704730B54FF4806404F1320410F0004548BF40424FF000013EE700BF42004FEAE2014FEA31014FEA02701FBF12F07F4393F07F4F81F0605123
:4041C000704792F0000F14BF93F07F4F704730B54FF4607401F0004521F0004120E700BF50EA010208BF704730B54FF000050AE050EA010208BF704730B511F0004502D5C7
:40420000404261EB41014FF4806404F132045FEA915C3FF4DCAE4FF003025FEADC0C18BF03325FEADC0C18BF033202EBDC02C2F1200300FA03FC20FA02F001FA03FE40EA9F
:404240000E0021FA02F11444C1E600BF70B54FF0FF0C4CF4E06C1CEA11541DBF1CEA135594EA0C0F95EA0C0F00F0DEF82C4481EA030621EA4C5123EA4C5350EA013518BF3C
:4042800052EA033541F4801143F4801338D0A0FB02CE4FF00005E1FB02E506F00042E0FB03E54FF00006E1FB03569CF0000F18BF4EF0010EA4F1FF04B6F5007F64F540747D
:4042C00004D25FEA4E0E6D4146EB060642EAC62141EA55514FEAC52040EA5E504FEACE2EB4F1FD0C88BFBCF5E06F1ED8BEF1004F08BF5FEA500E50F1000041EB045170BD03
:4043000006F0004646EA010140EA020081EA0301B4EB5C04C2BFD4EB0C0541EA045170BD41F480114FF0000E013C00F3AB8014F1360FDEBF002001F0004170BDC4F10004EA
:40434000203C35DA0C341BDC04F11404C4F1200500FA05F320FA04F001FA05F240EA020001F0004221F0004110EBD37021FA04F642EB06015EEA430E08BF20EAD37070BDB0
:40438000C4F10C04C4F1200500FA04F320FA05F001FA04F240EA020001F0004110EBD37041F100015EEA430E08BF20EAD37070BDC4F1200500FA05F24EEA020E20FA04F3A0
:4043C00001FA05F243EA020321FA04F001F0004121FA04F220EA020000EBD3705EEA430E08BF20EAD37070BD94F0000F0FD101F00046400041EB010111F4801F08BF013C73
:40440000F7D041EA060195F0000F18BF704703F00046520043EB030313F4801F08BF013DF7D043EA0603704794EA0C0F0CEA135518BF95EA0C0F0CD050EA410618BF52EA6B
:404440004306D1D181EA030101F000414FF0000070BD50EA410606BF1046194652EA430619D094EA0C0F02D150EA013613D195EA0C0F05D152EA03361CBF104619460AD1CA
:4044800081EA030101F0004141F0FE4141F470014FF0000070BD41F0FE4141F4780170BD70B54FF0FF0C4CF4E06C1CEA11541DBF1CEA135594EA0C0F95EA0C0F00F0A7F81C
:4044C000A4EB050481EA030E52EA03354FEA013100F088804FEA03334FF0805545EA131343EA12634FEA022245EA111545EA10654FEA00260EF000419D4208BF964244F1B0
:40450000FD0404F5407402D25B084FEA3202B61A65EB03055B084FEA32024FF480104FF4002CB6EB020E75EB030E22BFB61A754640EA0C005B084FEA3202B6EB020E75EB4A
:40454000030E22BFB61A754640EA5C005B084FEA3202B6EB020E75EB030E22BFB61A754640EA9C005B084FEA3202B6EB020E75EB030E22BFB61A754640EADC0055EA060E5D
:4045800018D04FEA051545EA16754FEA06164FEAC30343EA52734FEAC2025FEA1C1CC0D111F4801F0BD141EA00014FF000004FF0004CB6E711F4801F04BF01430020B4F12E
:4045C000FD0C88BFBCF5E06F3FF6AFAEB5EB030C04BFB6EB020C5FEA500C50F1000041EB045170BD0EF0004E4EEA113114EB5C04C2BFD4EB0C0541EA045170BD41F480113B
:404600004FF0000E013C90E645EA060E8DE60CEA135594EA0C0F08BF95EA0C0F3FF43BAF94EA0C0F0AD150EA01347FF434AF95EA0C0F7FF425AF104619462CE795EA0C0FD3
:4046400006D152EA03353FF4FDAE1046194622E750EA410618BF52EA43067FF4C5AE50EA41047FF40DAF52EA43057FF4EBAE12E710B5431E0A44914204D011F8014B03F8EE
:40468000014FF8E710BD02440346934202D003F8011BFAE770472DE9F04788B0002B149F1299109EDDF84CA01D4627F02007BBBF03F100431D4600232D231446B8BF144649
:4046C000462F0B7003D0452F03D1013601E0032300E0022307AA049206AA03928DE8480422462B4600F064FE472F804602D1119BDB0728D5462F08EB060911D198F8003041
:40470000302B0AD1002200232046294602F0ACFD18B9C6F10106CAF80060DAF800309944002200232046294602F09EFD08B9302202E0CDF81C9006E0079B994503D9591C3A
:4047400007911A70F8E7079B159AC8EB03034046136008B0BDE8F08773B503460029B8BF494203F8022BB4BF2D222B220929427019DD0DF1070216460A2591FBF5F405FBAD
:4047800014113031092C02F8011D2146F5DC3031541E02F8011CB4421A460AD214F8012B03F8012BF7E730241A46214402F8024B5970101A02B070BD2DE9F04F91B00C467B
:4047C000DDF8688016461F46054601F009FD03680893184600F07CFC00230E93D8F800300990073323F0070303F1080294F818A0D4F800B0C8F80020D3E90023C4E912231A
:40480000D4E9128929F000430B93CDF828804FF0FF32A74BDDE90A0102F058FDA0B94FF0FF32A34BDDE90A0102F032FD60B9002200234046494602F021FD10B12D2384F886
:4048400043309C4B9C4A0AE042464B464046494602F03CFD002800F09281984B984ABAF1470F8CBF90469846032323612BF0040323604FF000093DE0BAF1670F00F08A81F5
:40488000BAF1470F00F08681236000210DF133020193636805900292009342464B460691CDF810A0CDF80CE02846FFF7F4FE0AF0DF03472B804600F08481BAF1650F0D9914
:4048C00000F28D810139524604F150000D91FFF743FF0E9A8318012A8146236100F37C812268D10700F178819DF8333013B12D2384F84330009733460FAA2146284600F04D
:404900009FF9013002D14FF0FF3096E123685A0501D4236965E0BAF1650F40F2D58000220023D4E9120102F09FFC78B30123654A31462846B8470130E5D00E9B0D9A9A422A
:404940000BDB2368D80708D423689B0740F111814FF0000804F1190906E1099B089A31462846B8470130CED04FF0000804F11A090E9B013B9845E7DA01234A463146284662
:40498000B8470130BFD008F10108F1E70D9B002B29DC01234B4A31462846B8470130B2D00D9B23B90E9B13B92368D907CCD5099B089A31462846B8470130A4D04FF000091A
:4049C00004F11A0A0D9B5B42994509DA0123524631462846B847013095D009F10109F1E70E9B4246A7E00E9AA36D9A42A8BF1A46002A914606DC4FF0000A29EAE97904F1DD
:404A00001A0B11E01346314642462846B8470130F1D178E701235A4631462846B84701303FF471AF0AF1010AA36DC9EB03029245F0DB08EB03090D9A0E9B9A420FDB23680C
:404A4000DA070CD40E9B0D9A9844C9EB08089B1A9845A8BF9846B8F1000F08DC0FE0099B089A31462846B8470130EBD14BE743464A4631462846B84701303FF444AF4FF047
:404A8000000928EAE87804F11A0A09E00123524631462846B84701303FF435AF09F101090D9A0E9B9B1AC8EB03039945EEDB4BE7FFFFEF7FA87A0810AC7A0810B07A0810D0
:404AC000B47A0810B87A08100E9A012A01DCDB0738D50123424631462846B84701303FF412AF099B089A31462846B84701303FF40AAF00220023D4E9120102F0B5FB20B103
:404B00004FF0000804F11A0A0EE00E9B08F10102013B19E00123524631462846B84701303FF4F1AE08F101080E9B013B9845F1DB4B4604F1500231462846B84701307FF4BA
:404B400003AFE0E60123424631462846B8470130EED1D8E601234A4631462846B84701303FF4D1AE08F10108E3680F9A9B1A9845F0DBE0680F9B9842B8BF18465DE0626809
:404B8000531C0EA84BF480630DF1340E7FF474AE062201E012B90122626075E6002106910DF133018DE80C00236005904246CDF810A0CDF80CE002914B462846FFF76BFDA4
:404BC00080460D9BD81C02DB626893421DDDAAF1020A5FFA8AFA70E60133236184E6BAF1660F14D10029636807DD216113B92268D2071DD501330B4419E013B92268D007B8
:404C000001D5023313E0012311E04FF0670A0D9B0E9A934205DB22682361D10708D5013305E0002BD4BFC3F102030123134423610D9BA3654FF0000956E611B0BDE8F08F41
:404C40002DE9F04791461F460A698B68DDF820809342B8BF1346C9F8003091F8432006460C4612B10133C9F800302368990642BFD9F800300233C9F80030256815F00605D9
:404C800010D104F1190A07E00123524639463046C04701301AD00135E368D9F800209B1A9D42F1DB94F843302268003318BF012392060FD5E1185A1C302081F8430022445B
:404CC00094F8451082F84310023303E04FF0FF30BDE8F08704F1430239463046C0470130F4D02268D9F80050E36802F00602042A08BF5D1B2269A3680CBF25EAE5750025ED
:404D00009342C4BF9B1AED184FF000091A344D4509D00123224639463046C0470130D5D009F10109F3E70020BDE8F0872DE9F04317460A7E85B06E2A984606460C460C9BCA
:404D400001F1430E00F0AE8011D8632A22D009D8002A00F0BB80582A40F0CA8081F84520834955E0642A1ED0692A1CD0C0E0732A00F0B08009D86F2A2ED0702A40F0B88087
:404D80000A6842F020020A603EE0752A24D0782A3AD0ADE01A6801F14205111D1960136884F84230A8E021681A6811F0800F02D0111D196008E011F0400F02F104011960C9
:404DC00002D0B2F9003000E01368002B3CDA2D225B4284F8432037E021681A6811F0800F02D0111D196007E011F0400F02F10401196001D0138800E01368227E5C496F2A27
:404E000014BF0A2208221BE078225A4984F845202268186812F0800F00F104051D6003D1550601D5038800E00368D00744BF42F0200222601BB9226822F02002226010224D
:404E4000002084F8430001E049490A226568A560002D08DB206820F0040020602BB9002D7DD175460CE0002B79D07546B3FBF2F002FB1033CB5C05F8013D03460028F5D118
:404E8000082A0BD12368DA0708D5236962689A42DEBF302305F8013C05F1FF35C5EB0E0323612EE008681A68496910F0800F03D0101D1860136808E010F0400F02F104006E
:404EC0001860136801D0198000E0196000232361754616E01A68111D1960156862680021284601F0EDF908B1401B6060636804E004F1420584F8422001232361002384F8EA
:404F00004330CDF800803B4603AA21463046FFF797FE013002D14FF0FF3026E023692A4639463046C0470130F5D023689B0710D5002504F1190907E001234A4639463046DF
:404F4000C0470130E7D00135E368039A9B1A9D42F2DBE068039B9842B8BF184605E00B7884F8423004F142058AE705B0BDE8F083BA7A0810CB7A08100FB40A4B13B51C6851
:404F800024B1A36913B9204601F0A0F805AB049AA1680193204601F0EBFE02B0BDE8104004B070471043020870B50E46054618B183690BB901F08AF8AB69AC6813B92846A9
:404FC00001F084F8224B9C4201D16C6808E0214B9C4201D1AC6803E01F4B9C4208BFEC68A3891B0701D523693BB92146284600F0DFF810B14FF0FF3070BD013EA36816F801
:40500000011F013BA36091B1002B04DAA269934206DB0A2904D023685A1C22601970EDE72246284600F070F80130E7D1E2E7002B08DA22460A21284600F066F80130D9D008
:405040000A2070BD23680A205A1C2260187070BDEC7A08100C7B08102C7B0810024B01461868FFF7A1BF00BF104302080CB430B5164B0C1E9DB01D6804DA8B232B604FF0BD
:40508000FF301EE04FF40273ADF8143014BF04F1FF332346049307934FF6FF7302900690ADF81630209A21AB02A92846019301F041FD431CBCBF8B232B6014B1029B0022CB
:4050C0001A701DB0BDE8304002B0704710430208034613F8012B002AFBD1181A0138704710B5034642B111F8014B03F8014B013A002CF7D11A4400E010BD934202D003F86D
:40510000014BFAE710BD0000F8B50F461446064618B183690BB900F0D9FF224B9C4201D1746808E0204B9C4201D1B46803E01F4B9C4208BFF468A369A360A3891A0709D5EC
:4051400023693BB123682069181A63699842FDB20FDB08E02146304600F02AF80028F1D04FF0FF30F8BD2146304600F045FF0028F6D1A368013BA36023685A1C22601F70F3
:405180006269431C934204D0A389DB0707D50A2D05D12146304600F02FFF0028E0D12846F8BD00BFEC7A08100C7B08102C7B0810324B70B51D6806460C4625B1AB6913B918
:4051C000284600F083FF2E4B9C4201D16C6808E02C4B9C4201D1AC6803E02B4B9C4208BFEC68B4F90C309AB215071DD4D00602D4092232603AE0510712D5616B41B104F1A6
:405200004403994202D0304601F08EFB00236363A38923F02403A3810023636023692360A38943F00803A38123694BB9A38903F42073B3F5007F03D02146304600F0F8FF90
:40524000A28912F0010305D00023A36063695B42A36103E0920758BF6369A36023695BB9B4F90C3003F0800080B230B143F04003A3814FF0FF3070BD002070BD1043020845
:40528000EC7A08100C7B08102C7B08102DE9F74F03690C699C42804600F38380013C01F114074FEA840E00F1140657F8245006EB0E030193013556F82430B3FBF5F507EB60
:4052C0000E09002D39D04FF0000A3846B446D34650F8042B93B205FB03A34FEA134A9BB2C3EB0B03120CBCF800B005FB02A213FA8BF34FEA124A1FFA82FBDCF80020CBEB00
:40530000124202EB23429BB243EA024381454FEA224B4CF8043BDBD256F80E306BB9019B043B9E421A4602D3C8F8104005E01268043B002AF8D1013CF3E7404601F01DFA86
:4053400000282CDB013530464FF0000E57F8041BD0F800C08AB2C2EB0E03090C13FA8CF3C1EB1C4202EB23429BB243EA0243B9454FEA224E40F8043BE8D256F8242006EBFE
:40538000840362B9043B9E421A4602D3C8F8104005E01268043B002AF8D1013CF3E7284600E0002003B0BDE8F08F0000000000002DE9F04F456A97B08246239CCDE902234D
:4053C00045B9102000F070FFCAF82400456085600560C560DAF82430196859B15A684A60012393408B60504600F0EFFFDAF8243000221A60039BA04A002BBFBF0123236019
:40540000039B23F00043B8BF0393DDF80C80A4BF0023236028F000431B0D1B0593421DD1229A42F20F731360029B43B9934A944BC8F31300002814BF1846104600E090482C
:40544000249B002B00F04A85C37813B100F1080300E0C31C249A136000F040BDDDE90245002200232046294601F0FEFE074658B1229A01231360249B002B00F022858148A4
:405480001860013800F02ABD14AB019315AB009322462B46504601F0EBF9C8F30A56059056B1C5F3130343F07F51204641F44011A6F2FF3611971DE0159B149E1E4406F2D8
:4054C0003243202B0ADD029A06F21240C3F1400322FA00F008FA03F3184304E0C3F12000029B03FA00F0FEF73BFE0123A1F1F871013E11930022644BFEF7F4FC58A3D3E9EA
:405500000023FEF7A3FE58A3D3E90023FEF7ECFC044630460D46FEF733FE55A3D3E90023FEF794FE02460B4620462946FEF7DCFC04460D4601F0E0FE002283460023204649
:40554000294601F09BFE58B15846FEF719FE02460B462046294601F087FE08B90BF1FF3BBBF1160F0DD8494901EBCB01DDE90223D1E9000101F0A0FE30B10BF1FF3B002335
:4055800000E00123109300E01090149B9E1B731E089343BFC3F10009002308934FF00009BBF1000F07DB089BCDF834B05B4408930023099306E0CBF1000309930023CBEB6F
:4055C00009090D93209B092B27D8052BC4BF043B2093209BA3F10203CCBF00250125032B20D8DFE803F0060E0204012302E0012308E000230C93219B002B1CDD0693984617
:405600001EE000230C93219B5B4403F1010806934346012BB8BF012312E00125002320930C9501E001230C934FF0FF33069398460022122303E00123069398461A46219266
:40564000DAF8244000226260042101F114029A421ED86268013262604900F6E7AFF3008061436F63A787D23FB3C8608B288AC63FFB799F501344D33F0000F07FDC7A08108F
:40568000E57A0810B97A08100000F83F887B08106168504600F064FEDAF8243020601B680793B8F10E0F00F25D81002D00F05A819DED027BBBF1000F8DED0E7B31DDA04A17
:4056C0000BF00F0302EBC30393ED007B4FEA2B14E2068DED0A7B0CD59A4BDDE90E01D3E90823FEF7DDFE04F00F04CDE90201032600E00226934D6CB1E30708D5DDE90A01B8
:40570000D5E90023FEF7A2FDCDE90A01013664100835F0E7DDE90A23DDE90201FEF7C0FE20E0CBF1000404B3854B864D04F00F0203EBC203D3E90023DDE90E01FEF786FD07
:40574000CDE9020124110023022654B1E70705D5D5E90023FEF77AFD0136012364100835F3E71BB1CDE9020100E00226109BEBB1DDE902450022744B2046294601F07EFDED
:40578000A0B1B8F1000F11D0069B002B40F3E6800BF1FF330A9300226C4B20462946FEF755FD0136CDE90201069F02E0CDF828B047463046FEF7E4FCDDE90223FEF746FDCB
:4057C0000022634BFEF790FB0446A1F15075CFB90022604BDDE90201FEF784FB22462B46CDE9020101F068FD002840F04182224605F10043DDE9020101F040FD002840F033
:405800002E82ABE00C9A4E4B791E002A4AD003EBC103D3E9002300204F49FEF741FE22462B46FEF75FFB079C05460E46DDE9020101F062FD1290FEF7A3FC02460B46DDE97E
:405840000201FEF74FFB129B303304F8013B2A463346CDE9020101F011FD002840F02183DDE9022300203849FEF73CFB2A46334601F004FD002840F0D280079BE31ABB4228
:405880006CDA0022314B28463146FEF7DFFC002205460E462D4BDDE90201FEF7D7FCCDE90201C3E703EBC10122462B46D1E90001FEF7CCFC079BCDE91201DC191D46DDE998
:4058C000020101F019FD0646FEF75AFC303602460B46DDE90201FEF705FB05F8016BAC42CDE902014FF0000223D11B4BDDE91201FEF7FAFA02460B46DDE9020101F0DCFCB2
:40590000002840F08C80DDE9122300201249FEF7E9FA02460B46DDE9020101F0AFFCE8B114F8013C302B04F1FF3240F0BA821446F6E7064BFEF78AFCCDE90201BFE700BFC7
:40594000887B0810607B08100000F03F0000244000001C40000014400000E03FDDE90E34CDE90234159B002B7CDBBBF10E0F79DC8F4B03EBCB03D3E90067219B002B14DAE5
:40598000B8F1000F11DC40F06C810022894B30463946FEF75BFCDDE9022301F083FC45464646002840F05F8166E1079C32463B46DDE90201FEF774FD01F09EFC0546FEF767
:4059C000DFFB32463B46FEF741FC0B460246DDE90201FEF787FA05F1300E04F801EB079BC3EB040EF045CDE902012ED102460B46FEF77AFA8046894602460B46304639463A
:405A000001F03CFC78B942464B463046394601F02BFC002800F04782E90704D443E2DDF828B000E01C4614F8012C392A04F1FF3307D1079A9A42F5D1079930220BF1010B51
:405A40000A701A7801321A702DE200225A4BFEF7FDFB00220023CDE9020101F005FC0028A4D020E20C9A002A2DD0209A012A0ADC119A12B103F2334302E0149BC3F136031D
:405A8000099D4C4615E0099B08F1FF35AB42BFBF099B0995EA1A0D9BB7BF9B185D1B0D930025B8F1000FB9BFC8EB090400234C464346089A01211A4450469944089200F0DC
:405AC00023FD064602E0099D0C9E4C465CB1089B002B08DDA342089AA8BF2346C3EB0909E41AD31A0893099B002B1DDD0C9BABB185B131462A46504600F0A0FD059A014627
:405B00000646504600F009FD05990746504600F05CFC0597099B5A1B06D000E0099A0599504600F08BFD05900121504600F0ECFC0D9B05465BB31A460146504600F07EFD3C
:405B4000209B012B054618DC029B83B9039BC3F3130373B9039B23F000473F0D3F054FB1089B013309F101090893012702E0002700E0029F0D9B73B100E000272B6905EB89
:405B80008303186900F073FCC0F1200004E0209B012BD9DD0D9F0120089B184410F01F000ED0C0F12003042B08DDC0F11C0008E0887B0810000014400000244006D01846C0
:405BC0001C30089B0344814404440893B9F1000F05DD4A460599504600F07EFD0590089B002B05DD29461A46504600F075FD0546109BEBB12946059800F0BFFD002817DA8E
:405C000000230A220599504600F0F6FB0C9B05900BF1FF3B002B00F05881002331460A22504600F0E9FB069B002B064637DC33E0B8F1000F2ADC209B022B27DDCDF8188025
:405C4000069B83B929460522504600F0D5FB01460546059800F091FD00280DDC03E03D4600E000252E46219B079C6FEA030B0AE0DDF828B03D463E46079B079A5C1C31234B
:405C800013700BF1010BB0460026F7E00C9BCDF8188023B9079CB1E0209B022BD0DC002C05DD31462246504600F016FD06469FB17168504600F054FB326902320446920043
:405CC00006F10C010C30FEF7D3FC01222146504600F002FD804600E0B046029BDDF81C9003F00103089329460598FFF7CFFA3146044600F13007059800F03FFD42460290AE
:405D00002946504600F055FDC36802463BB901460990059800F031FD099A034600E0012311465046099300F050FB099B4BB9209A3AB9089A2AB9392F28D0029B002B1ADC6E
:405D40001BE0029A002A04DB1AD1209AC2B9089AB2B9002B11DD01220599504600F0BCFC2946059000F009FD002802DC05D1FA0703D5392F0AD004F1310709F101040CE035
:405D8000002B09F101040BDD392F05D1392389F8003009F1010954E0013789F800706DE0079B069A04F8017CE31A9342A1463AD000230A220599504600F01EFB46450590AE
:405DC0004FF000034FF00A023146504604D100F013FB0646804686E700F00EFB4146064600230A22504600F007FB80467BE700230A220599504600F0FFFA059029460598DF
:405E0000FFF744FA00F1300704F8017B079B069AE31A9342EBDB079B012AACBF9B180133B0469946002601220599504600F054FC2946059000F0A1FC002802DC15D1FB0784
:405E400013D54C4614F8013C392B04F1FF3209D1079B934204D10BF1010B3123079A02E01446EFE70133137008E04C4614F8013C302B04F1FF3201D11446F7E72946504696
:405E800000F0A3FAB8F1000F0DD02EB1464503D03146504600F099FA4146504600F095FA01E0DDF828B00599504600F08EFA0023229A23700BF101031360249B1BB11C6031
:405EC00001E008480AE0079808E0069B002B3FF7E1AE209B022B7FF7DDAEB1E617B0BDE8F08F00BFB87A08108A892DE9F041054610070C4659D44B68002B02DC0B6C002B62
:405F000017DDE66AAEB102F48052002392B22F682B600AB1606D15E0216A01232846B047411C0FD12B686BB11D2B01D0162B03D12F600020BDE8F081A38943F04003A38137
:405F4000BDE8F081A3895A0705D56368C01A636B0BB1236CC01A00230246E66A216A2846B047431CA38906D129681D293AD8214ACA40D60736D500226260D90422692260EB
:405F800004D5421C01D12B6803B96065616B2F600029CED004F14403994202D0284600F0C3FC00206063BDE8F0810F69002FC0D093070E6808BF4B690F6018BF0023C7EBC6
:405FC00006088B6002E00744C0EB0808B8F1000FAFDD43463A46216AA66A2846B0470028F1DCA38943F04003A3814FF0FF30BDE8F08100BF0100402038B50B6905460C4616
:40600000DBB118B183690BB900F060F80C4B9C4201D16C6808E00B4B9C4201D1AC6803E0094B9C4208BFEC68B4F90C302BB121462846BDE83840FFF757BF002038BD00BF6F
:40604000EC7A08100C7B08102C7B0810014900F0A9B800BFF95F0810002310B5044603604360836081814366C281036143618361194608225C30FEF706FB054B6362054B15
:40608000A362054BE362054B2462236310BD00BFC96F0810EB6F0810237008104770081070B568234D1E5D430E4605F1740100F089FC044640B1002180E842000C30A060F1
:4060C00005F16802FEF7DFFA204670BD836910B5044633BB8364C3640365124B124A1B688262984204BF0123836100F01FF86060204600F01BF8A060204600F017F8002204
:40610000E06004216068FFF7A7FF01220921A068FFF7A2FF02221221E068FFF79DFF0123A36110BDA47A08104D600810F8B51C4B1E68B369074613B93046FFF7C7FF48360A
:40614000B4687368013B04D4B4F90C507DB16834F8E733680BB13668F2E704213846FFF79FFF30600028F6D10C233B60F8BD4FF6FF73E3810123A38165662560A5606560E2
:4061800025616561A5610822294604F15C00FEF77AFA6563A563A564E5642046F8BD00BFA47A08102DE9F8438046894600F14804002694B1A5686768013F0CD4AB89012B1E
:4061C00007D9B5F90E30013303D029464046C84706436835F0E72468EBE73046BDE8F883004870471443020870B50E46B1F90E10002990B014461D4606DA00232B60B38986
:406200001A060ED540230EE001AA00F043FF0028F3DB029A02F47042A2F500535A425A412A604FF480630020236010B070BD00008B8973B59E0705460C4610D401AB6A46D4
:40624000FFF7D2FF00990646284600F0BBFB68B9B4F90C309A0522D443F00203A38104F14703236023610123636118E00D4BAB62A389206043F08003A381009B6361019B57
:4062800020614BB1B4F90E10284600F015FF18B1A38943F00103A381A0893043A08102B070BD00BF4D600810024B0146186800F089BB00BF10430208000000000000000050
:4062C00001F0FF01102A2BDB10F0070F08D010F8013B013A8B422DD010F0070F42B3F6D1F0B441EA012141EA014122F007047FF000070023F0E80256083C85EA010586EAF7
:40630000010685FA47F5A3FA87F586FA47F6A5FA87F68EB9EED1F0BC01F0FF0102F0070232B110F8013B013A83EA010313B1F8D10020704701387047002D06BF354603383C
:40634000073815F0010F07D1013015F4807F02BF013015F4C03F0130F0BC0138704700BF70B5456A04460E463DB91020FFF79CFF6062456085600560C560656AEB6843B11D
:40638000636ADB6853F8260078B1026843F8262017E021220421204600F0B8FA636AE860DB68002BECD1002070BD012101FA06F56A1D9200204600F0A9FA0028F3D0466099
:4063C000856000230361C36070BD70B5446A06460D463CB91020FFF767FF7062446084600460C4603DB1736A6A68DB6853F82210296043F8225070BD2DE9F0410D691F462A
:4064000006460C4601F1140E0023DEF8000081B202FB01710F0C000C02FB007089B2013301EB00419D424FEA10474EF8041BECDCD7B1A3689D4212DB616830460131FFF77D
:406440008FFF2269023204F10C01804692000C30FEF70EF921463046FFF7B7FF444604EB850301355F6125612046BDE8F081030C1B0413B90004102300E0002310F07F4FB9
:4064800004BF0002083310F0704F04BF0001043310F0404F04BF80000233002803DB420003D5581C70471846704720207047036813F007020BD0D90722D49A074BBF5B088E
:4064C0009B08036003604CBF01200220704799B209B91B0C102213F0FF0F04BF1B0A0832190704BF1B090432990704BF9B080232D90702D45B0805D001320360104670478D
:40650000002070472020704710B50C460121FFF727FF01224461026110BD2DE9F74F14460A6923699A42B8BF0B468846BCBFA0461C46D8F81070D4F81090D8F80830D8F8C2
:40654000041007EB09069E42C8BF0131FFF708FF00F1140505EB860C2B460022634502D243F8042BFAE704F1140208F1140102EB890301EB87070093009B0192934257D9B8
:40658000B2F800B0BBF1000F23D08946AE464FF0000859F8044BBEF800A0A3B20BFB03A34FEA144ADEF8004043444FEA14480BFB0A8404EB1344F2469BB243EA04434F45A2
:4065C0004FEA14484AF8043B01D9D646E1E7CEF80480019BB3F802A00432BAF1000F21D02B682C4689464FF00008B9F800E0B4F802B00AFB0EBEF044A3469BB243EA0843F6
:406600004BF8043B59F8043BB4F804E01B0C0AFB03E303EB18434F454FEA134801D95C46E3E763600435A7E75CF8043D13B9013E002EF9DC066103B0BDE8F08F2DE9F84333
:40664000154612F0030206460F4607D0013A214C002354F82220FFF7CFFE0746AD1036D0746A3CB91020FFF71FFE7062446084600460C460D6F82480D8F808404CB940F25B
:4066800071213046FFF740FF0023C8F80800044603604FF00008EB070AD5394622463046FFF73BFF394681463046FFF78EFE4F466D100CD0206808B10446ECE72246214607
:4066C0003046FFF72AFF2060C0F80080F4E73846BDE8F883547B08102DE9F0470C464FEA621A26694968A368564407469146751CAB4202DA01315B00FAE73846FFF730FE26
:406700000023804600F114011A46534503DA41F823200133F9E72AEAEA73206901EB830319F01F0904F1140101EB800E14D0C9F1200C0022086800FA09F002439A4643F835
:40674000042B51F8042B8E4522FA0CF2F2D8CAF8042042B1B51C06E0043B51F8042B43F8042F8E45F9D8013D3846C8F810502146FFF72BFE4046BDE8F08703690A699B1ACA
:4067800010B511D192001430143183180A4453F8044D52F8041D8C4202D007D3012010BD9842F4D3002010BD184610BD4FF0FF3010BD2DE9F8430C460746114620461546C3
:4067C000FFF7DBFF061E08D131463846FFF7C8FD012303614661BDE8F883BCBF23462C4638466168BABF1D4601260026FFF7B8FD2B69C660266905F11409143404EB86073C
:4068000009EB830800F114054FF0000C54F8043B59F8042B1CFA83F11FFA82FE120CCEEB0101C2EB134303EB214389B24FEA234CC84541EA0343A64645F8043BE6D8BE459E
:406840000ED25EF8041B1CFA81F2131403EB114392B242EA03424FEA234C45F8042BEEE755F8043D0BB9013EFAE70661BDE8F8832DE9F34101211C46089E099D9046FFF754
:406880006FFDC4F31303C4F30A5407460CB143F480130193B8F1000F19D002A840F8088DFFF705FE009B48B1019AC0F1200102FA01F10B43C2407B61019200E07B61019B0B
:4068C000BB61002B14BF02210121396107E001A8FFF7EDFD019B7B6101213961203034B1A4F2334404443460C0F1350009E007EB8103A0F2324030601869FFF7B8FDC0EB2D
:4069000041102860384602B0BDE8F08138B502FB01F4214600F056F8054618B122460021FDF7B1FE284638BD38B50546002946D051F8043C0C1F002BB8BFE41800F0F9FB64
:406940001F4A1368114613B96360146032E0A3420ED92268A018834204BF18685B68636004BF121822600C6024E0A24203D813465A68002AF9D118681918A1420BD1216885
:40698000014458188242196014D1106852685A60014419600EE002D90C232B600AE021686018824204BF10685268626004BF091821605C602846BDE8384000F0BBBB38BD66
:4069C0001075020870B5CD1C25F0030508350C2D38BF0C25002D064601DBA94202D90C23336046E000F0A5FB234B1C681A462146A1B10B685B1B0ED40B2B03D90B60CC1875
:406A0000CD501EE08C420DBF63684B686360136018BF0C4615E00C464968E9E7174C23681BB9304600F0C0FA20602946304600F0BBFA431C18D0C41C24F00304A0420DD10E
:406A40002560304600F076FB04F10B00231D20F00700C31A0ED05A42E25070BD211A304600F0A2FA0130EBD10C233360304600F061FB002070BD00BF107502080C750208D9
:406A80002DE9F0478E689E4282460C46914698463ED88A8912F4906F3AD0256809696F1A6569022305EB450595FBF3F57B1C43449D4238BF1D4653050FD52946FFF782FF06
:406AC000064698B13A462169FDF7D2FDA38923F4906343F08003A38113E02A4600F02BFB064670B921695046FFF71EFF0C23CAF80030A38943F04003A3814FF0FF30BDE809
:406B0000F087266165613E44ED1B2660A5604646464528BF464632464946206800F0EEFAA3689B1BA36023681E4426600020BDE8F08700002DE9F04F9DB0804603938B8906
:406B40001C060D4616460DD50B695BB94021FFF739FF2860286118B90C23C8F80030CDE040236B610023099320238DF82930DFF89CB130238DF82A3037463C4614F8013BF1
:406B80001BB9B7EB060910D003E0252BF9D02746F3E74B46324629464046FFF771FF013000F0A780099B4B4409933B78002B00F0A08000234FF0FF320493079305920693D0
:406BC0008DF853301A930126052221784E48FFF777FB671C049B38B14B4A801A06FA00F0184304903C46EFE7D90644BF20228DF853201A0744BF2B228DF8532022782A2A17
:406C000003D0079A00210A200BE0039A111D12680391002A10DA524243F00200079204900BE0274601343B78303B092B03D800FB02320121F5E701B107923B782E2B1ED19A
:406C40007B782A2B0AD1039B1A1D1B680392002BB8BF4FF0FF330237059310E000230593781C19460A24074601303A78303A092A03D804FB01210123F5E703B1059103221C
:406C800039782248FFF71CFB40B14023CBEB000003FA00F0049B18430490013739781C488DF8281006227E1CFFF70AFB88B1194B33B9039B073323F007030833039314E01D
:406CC00003AB00932A46144B04A94046FDF774FD07E003AB00932A460F4B04A94046FEF725F8B0F1FF3F824603D0099B5344099342E7AB895B0601D4099801E04FF0FF30E1
:406D00001DB0BDE8F08F00BF507C0810567C08105A7C0810B9470810816A08109368013B002B10B4936009DA9469A34202DBCBB20A2B03D15DF8044BFEF7E6B91368581C64
:406D400010601970C8B25DF8044B7047F8B506460F461446D518AC4208D03A4614F8011B3046FFF7DBFF431CF5D100E00020F8BD2DE9F04F9DB00C4617460393064618B126
:406D800083690BB9FFF7A2F97F4B9C4201D1746808E07E4B9C4201D1B46803E07C4B9C4208BFF468A38918070CD5236953B10023099320238DF8293030238DF82A30DFF86F
:406DC000D4B144E021463046FEF7F2F90028EED04FF0FF30D5E0039A111D12680391002A80F28C80524243F002000792049098F800302E2B00F08480032298F8001065482E
:406E0000FFF75EFA48B14023CBEB000003FA00F0049B1843049008F1010898F800105E488DF82810062208F10107FFF749FA002800F09580594B002B40F08880039B073304
:406E400023F0070308330393099B53440993B846454615F8013B1BB9B8EB07090FD003E0252BF9D0A846F3E74B463A4621463046FFF76CFF01307FD0099B4B44099398F823
:406E80000030002B78D000234FF0FF3204930793059206938DF853301A930127052229783F48FFF70DFA05F10108049B38B13C4A801A07FA00F0184304904546EEE7D9064C
:406EC00044BF20228DF853201A0744BF2B228DF853202A782A2A3FF47EAF079A00210A20A846013598F80030303B092B03D800FB02320121F4E700293FF479AF079276E7A6
:406F000098F801302A2B0BD1039B1A1D1B680392002BB8BF4FF0FF3308F1020805936BE70023059308F1010019460A258046013098F80020303A092A03D805FB01210123CA
:406F4000F4E7002B3FF458AF059155E703AB00932246144B04A93046FDF72EFC07E003AB009322460F4B04A93046FDF7DFFEB0F1FF3F82467FF468AFA3895B063FF528AF0F
:406F800009981DB0BDE8F08FEC7A08100C7B08102C7B0810567C08105A7C0810B9470810507C08104D6D081038B5064C002305460846236000F0E8F9431C02D1236803B1FD
:406FC0002B6038BD1876020810B50C46B1F90E1000F0D8F80028ABBF636DA3891B1823F48053ACBF6365A38110BD2DE9F0411F468B89DB0505460C46164605D50223002251
:40700000B1F90E1000F068F8A389B4F90E1023F48053A38132463B462846BDE8F04100F017B810B50C46B1F90E1000F055F8431CA38915BF606523F4805343F48053A381DF
:4070400018BFA38110BDB1F90E1000F013B8000038B5074C054608461146002222601A46FCF71EFE431C02D1236803B12B6038BD1876020838B5064C00230546084623607B
:4070800000F062F9431C02D1236803B12B6038BD1876020838B5074C0023054608461146236000F059F9431C02D1236803B12B6038BD00BF1876020838B5064C00230546EF
:4070C0000846236000F050F9431C02D1236803B12B6038BD1876020838B5074C054608461146002222601A4600F046F9431C02D1236803B12B6038BD18760208884210B582
:4071000001EB020301D8421E0BE09842FBD28118D21AD34204D013F8014D01F8014DF8E710BD994204D011F8014B02F8014FF8E710BD70477047F8B5074615460E4621B9EE
:407140001146BDE8F840FFF73DBC1AB9FFF7ECFB2846F8BD00F028F885420ED929463846FFF730FC044650B131462A46FDF780FA31463846FFF7D8FB01E03046F8BD20467C
:40718000F8BD000038B5074C054608461146002222601A46FCF796FD431C02D1236803B12B6038BD1876020851F8040C0028BEBF091851F8043CC018043870474FF0FF3CEA
:4071C00006E000BF4FF0010C02E000BF4FF0010C4DF804CD4FEA410C7FEA6C5C4FEA430C18BF7FEA6C5C1BD001B050EA410C0CBF52EA430C91EA030F02BF90EA020F0020E2
:40720000704710F1000F91EA030F58BF994208BF90422CBFD8176FEAE37040F0010070474FEA410C7FEA6C5C02D150EA013C07D14FEA430C7FEA6C5CD6D152EA033CD3D0AA
