:020000041008E2
:4000000000780408EB0208100D0000005103081051030810510308105103081000000000000000000000000000000000713208104D03081000000000A1320810053308101C
:400040004D0308104D0308104D0308104D0308104D0308104D0308104D0308104D0308104D0308104D0308104D0308104D0308104D0308104D0308104D0308104D03081000
:400080004D0308104D0308104D0308104D0308104D0308104D0308104D0308104D0308104D0308104D0308104D0308104D0308104D0308104D0308104D0308104D030810C0
:4000C0004D0308104D0308104D0308104D0308104D0308104D0308104D0308104D0308104D0308104D0308104D0308104D0308104D0308104D0308104D0308104D03081080
:400100004D0308104D0308104D0308104D0308104D0308104D0308104D0308104D0308104D0308104D0308104D0308104D0308104D0308104D0308104D0308104D0308103F
:400140004D0308104D0308104D0308104D0308104D0308104D0308104D0308104D0308104D0308104D0308104D0308104D0308104D0308104D0308104D0308104D030810FF
:400180004D0308104D0308104D0308104D0308104D0308104D0308104D0308104D0308104D0308104D0308104D0308104D0308104D0308104D0308104D0308104D030810BF
:4001C0004D0308104D0308104D0308104D0308104D0308104D0308104D0308104D0308104D0308104D0308104D0308104D0308104D0308104D0308104D0308104D0308107F
:400200004D0308104D0308104D0308104D0308104D0308104D0308104D0308104D0308104D0308104D0308104D0308104D0308104D0308104D0308104D0308104D0308103E
:400240004D0308104D0308104D0308104D0308104D0308104D0308104D0308104D0308104D0308104D0308104D0308104D0308104D0308104D0308104D0308104D030810FE
:400280004D0308104D0308104D03081010B5054C237833B9044B13B10448AFF300800123237010BD9449020800000000407A0810084B10B51BB108490848AFF300800848B4
:4002C000036803B910BD074B002BFBD0BDE81040184700BF0000000098490208407A081064430208000000007047FFF7FDFF72B6104C114DAC4209DA21686268A368043B48
:40030000A2BFC858D050FAE70C34F3E70B490C4A00209142BCBF41F8040BFAE709480A490860BFF34F8F00F09DFC00F077FC00F015F9FEE7447A08105C7A081094490208CA
:40034000A45102080040020808ED00E0FEE7FEE700B504207146084202D0EFF3098001E0EFF30880043001F07FFEFEE770B5354B0120C3F83001D3F8303100F073FE88B134
:4003800031490B889BB2314A128892B2304820F813200B889BB22F4A128892B22E4921F813200BE028490B889BB20022284820F813200B889BB2284921F81320224A138810
:4003C0009BB201339BB2138013889BB20A2B35D10020108003F088F8E0B9002329E0254626461E4B1B6803EB83039A001C4B1A4453689C4204D34FF476711A4801F024FEEC
:400400003146194802F0BCFC184B23F815000134A4B200E00024032CE1D901220A4B9A7003F050F80AE00021104A22F8131001339BB2032BF7D90E4804F0CEFA014BD3F828
:40044000303170BD00003840B04902083C4B020874500208344B0208544E0208DC4C02085C770810AC70081000001D416C4F0208CC70081010B4084C235C4B40E05C002396
:4004800005E0D45C6040044C205C0133DBB28B42F7D35DF8044B70477C6F08102DE9F04106468846144602E0154804F007FB1549154802F01BFA0128F6D0144D2E706C7089
:4004C00022464146A81C03F003FEA71C424621463046FFF7CFFFE8550A4BE21C29460A4802F0AAF9014610B1094804F075FA074BDB5D22463146074804F06EFABDE8F0819D
:40050000F07008106851020800006340684E0208207108103C71081070B4BDF80C500C6830F81260A41B2C440C6020F81250D1ED007A07EE103AB8EE477AF8EE677AC7EEFD
:40054000876A16EE900A70BC704700BF82B002AB43F8040D1868086002B070472DE9F0472DED068BCAB064242246002131A803F0BAFD2246002118A803F0B5FD002317930D
:40058000169302F019FF03F025F800F0F1FD02F0D1FF274C2749204601F0F8FCB4F90030002B08DB590903F01F03012202FA03F3214A42F8213062B6204804F07FFA00212F
:4005C000642000F093FB10B91D4804F077FA00F0AFFC1C4804F072FA1B491C4803F0CEF80028F9D103F01AF90028FBD1012003F099F8174A0021174803F028F90028F8D10F
:40060000012003F08FF802F05DFF02F0C1FF4FF00009C846104B9B7813F0FF0FFAD000230D4A93701F461E46C2464D46DBE100BFA07208106D03081000E100E064710810C4
:4006400088710810B8710810F44D02087C700810204E02088C420208B0490208C74B33F817309BB2C64A32F81740A4B207EE903AF8EEE77AC34A127808EE902AF8EE688AA9
:4006800087EEA8AA07EE904AF8EEE77ABE4A127808EE102AB8EE488AC7EE889A00933223524617A931A8FFF737FF07EE900A87EEA89A009432232A4616A918A8FFF72CFFC8
:4006C00007EE900AC7EE888A0AF1010ABAF1310F01D94FF0000A0135312D00D900251AEE100A03F03FFACDE9020106F0B9F98046894619EE900A03F035FACDE9060106F044
:40070000AFF902460B464046494603F0A9FB03F08FFC0AEE100A19EE100A03F023FACDE9040106F09DF98046894618EE900A03F019FACDE9080106F093F902460B46404629
:40074000494603F08DFB03F073FC08EE100A8F4C206803F007FA80468946606803F002FACDE90A01DDE9020106F07AF902460B46DDE90A0103F04AFA02460B46CDE90E89E0
:400780004046494603F090F880468946A06803F0E9F9CDE90C01DDE9060106F061F902460B46DDE90C0103F031FA02460B464046494603F079F880468946D4ED039A6AEE70
:4007C000297A17EE900A03F0CDF942464B4603F06BF8CDE91201206903F0C4F980468946DDE9020106F03CF902460B46CDE910894046494603F00AFA80468946DDE90601AE
:4008000006F02EF902460B464046494603F0FEF902460B46DDE9120103F046F8CDE91401606903F09FF980468946DDE9020106F017F902460B46CDE912894046494603F0EB
:40084000E5F9804689461AEE100A03F08BF942464B4603F0DBF902460B46DDE9140103F023F803F0E5FB0446DDE9040106F0F8F802460B46DDE90A0103F0C8F902460B4685
:40088000DDE90E0103F010F880468946DDE9080106F0E6F802460B46DDE90C0103F0B6F902460B464046494602F0FEFF8046894668EE297A17EE900A03F054F942464B46FF
:4008C00002F0F2FFCDE90A01DDE9040106F0C8F802460B46DDE9100103F098F980468946DDE9080106F0BCF802460B464046494603F08CF902460B46DDE90A0102F0D4FF7C
:40090000CDE90A01DDE9040106F0AAF802460B46DDE9120103F07AF98046894618EE100A03F020F942464B4603F070F902460B46DDE90A0102F0B8FF03F07AFB8046DDE97E
:40094000020106F08DF8DDE9060106F089F8DDE9020106F085F8DDE9060106F081F8DDE9020106F07DF8DDE9040106F079F8DDE9080106F075F8DDE9040109E07450020823
:40098000544E020879720810787208106072081006F066F8DDE9080106F062F8DDE9040106F05EF8DFF8C49009EB060119EE100AFFF7CCFD311D59FA81F118EE900AFFF763
:4009C000C5FD06F1080159FA81F12046FFF7BEFD06F10C0159FA81F14046FFF7B7FD1036F6B20137FFB2092F7FF638AED046A94600240FE01B4B33F8142012B221461A488C
:400A000002F014FA19493144FFF7A0FD0436F6B20134E4B2032CEDD916F00F0F01D1340902E034090134E4B2002510E02901104B0E4A0A440F480144002002F01BFF10B1C4
:400A40000D4804F03BF8012002F06CFE0135A542ECDB220102F0F00206490A20FFF71EFDD8E500BF6C4F020800001D41F44C0208204E0208744F0208E471081008B501208F
:400A800001F04AFA08BD00BF704700BF5C4AD2F8803303F00F0303F1D00152F8212002F00702032A04D0042A05D092B9554914E0554A116811E003F1C002514951F82220CF
:400AC00002F01F02112A06D0132A04D04FF4FA4103E04E4901E04FF400418BBB484BD3F8902502F00100D3F88825C2F30172D3F8883513F0405F07D0414BD3F88835C3F3AD
:400B00000173012B02D102E0012300E0002303B108B9032A46D13A48D0F88025C2F31103D0F88425C2F30C02D0F88005C0F300600130B1FBF2F202FB03F2B2FBF0F131E0E2
:400B4000012B2FD12E4BD3F8402602F00100D3F80026C2F30172D3F8003613F0405F07D0274BD3F80036C3F30173012B02D102E0012300E0002303B108B9032A12D1204887
:400B8000D0F8002602F07F02D0F80036C3F30423D0F80006C0F3044002FB01F2B2FBF3F2B2FBF0F1164BD3F88033C3F3011321FA03F215494A601648D0F89030C3F307239D
:400BC00001330069000E0130B2FBF0F08860B2FBF3F3CB600B6103F5742202F23F220D48A0FB0202C2F387420A7503F2E7330A4AA2FB03239B098B61DB03CB61704700BF70
:400C00000000264000127A009C42020800366E010000214083DE1B43D34D621008B50D4801F086FAFFF730FFFFF730FF00221146042000F039FF084800F0CCFF074B1B6811
:400C400093F8513013B1064801F034F800F076FE08BD00BFD8740810B4490208CC5002081472081008B501F05CFA074AD2F8883043F47003C2F88830BFF34F8FBFF36F8FEF
:400C800001F053FA08BD00BF00ED00E038B505460C460021642000F04DFC284600F006FD200A00F003FDE0B200F000FD00F0D4FC012038BD38B504460021642000F03AFC6B
:400CC000204600F0F3FC0121642000F085FC012000F026FD0546002000F022FD044600F0BBFC44EA052080B238BD00BF10B50820FFF7E0FFC4B22146034803F06DFE162C36
:400D000014BF0020012010BD7C72081010B504461020FFF7CFFF20F0030081B221431020FFF7B4FF10BD00BF38B505460C461420FFF7C0FF20F0F00081B241EA051121F4BE
:400D4000706141EA04211420FFF7A0FF38BD00BF10B504464B20FFF7ADFF20F0800081B241EAC4114B20FFF791FF10BD08B50120FFF7CCFF43F231111120FFF787FF4FF432
:400D8000F8510620FFF782FF40F2DF110120FFF77DFF40F201110B20FFF778FF05210220FFF774FF08BD00BF38B504460D461420FFF780FF2DB920F0030080B240EA0401FA
:400DC00004E020F00C0080B240EA84011420FFF75DFF38BDF8B507460E46154600240FE004F16400C0B2FFF765FF27F8140004F16800C0B2FFF75EFF26F814000134E4B264
:400E0000AC42EDD3F8BD00BF08B5090201F4F851114418B93020FFF739FF08BD3520FFF735FF08BD08B5C90289B2520102F4FC6203F01F031A44114489B218B93920FFF750
:400E400025FF08BD3B20FFF721FF08BD08B518B94220FFF71BFF08BD4420FFF717FF08BD08B54FF4FA5191FBF0F11220FFF70EFF08BD00BF08B5010241EA00111520FFF7C1
:400E800005FF08BD08B501464E20FFF7FFFE08BD08B55F20FFF70EFF40F0010189B25F20FFF7F4FE08BD00BF08B501210F20FFF7EDFE08BD00B583B002AB03E90600A0B914
:400EC000BDF800101820FFF7E1FEBDF802101920FFF7DCFEBDF804101A20FFF7D7FEBDF806101B20FFF7D2FE13E0BDF800101E20FFF7CCFEBDF802101F20FFF7C7FEBDF88A
:400F000004102020FFF7C2FEBDF806102120FFF7BDFE03B05DF804FB08B542EA012118B93120FFF7B3FE08BD3620FFF7AFFE08BD00B585B00120FFF7E9FEFFF7B5FF0120D9
:400F4000FFF7E4FE0120FFF703FF05210846FFF7EBFE00210220FFF727FF01210846FFF723FF41F231012320FFF790FE41F234012420FFF78BFE46F2DF712520FFF786FEA8
:400F8000192220210020FFF7C7FF1922FF210120FFF7C2FF192203210020FFF735FF192203210120FFF730FF0423102219460020FFF738FF0423102219460120FFF732FF53
:400FC0004020FFF75FFFFFF763FF5020FFF748FF03210020FFF73AFF03210120FFF736FF42F295614B20FFF751FE98214D20FFF74DFE42F290014F20FFF748FE0021502013
:40100000FFF744FE47F206013C20FFF73FFE0120FFF730FF42F20903ADF808300020ADF80A00ADF80C00ADF80E00ADF80030ADF80200ADF80400ADF8060004AB13E9060092
:40104000FFF738FF9DE806000120FFF733FFFFF78DFE0220FFF75AFE322000F0D1FF05B05DF804FB38B505465F20FFF723FE044640F0060189B25F20FFF708FE034660B104
:4010800007482A4601460830FFF7A4FE24F0060189B25F20FFF7FAFD0346184638BD00BF344B020810B504462146034801F070F80028F9D010BD00BF00006640054BD3F85C
:4010C0000833C3F30803002BF8D0024BD3F84003704700BF0000664010B50024174B1C700122F8331A7001F01CF8154A137843F010031370C0B201F018F80F22114B1A7099
:40110000082203F580731A700F4B4FF08062C3F88C20BFF34F8FBFF36F8FE02283F87A230A497A2000F00EFF1022094B1A70094B1C70094B1C70094B1C7010BD1C173440C6
:40114000141934401412344000E100E099110810B8500208BE500208C6500208BC500208024A137843F00203137070471C17344008B5074B1B7823B9FFF7AEFF0122044BCE
:401180001A70FFF7EDFF4FF08062024BDA6008BD444B020800E100E038B5B64B1C78B64B1B7813F0400F00F0B181E4B214F0010F00F09481B04B1B78453B052B00F2898189
:4011C000DFE813F00600A700870187010600200104F0DF0504F00A04082C5CD1A64B1B78DBB2452B47D1A54B1B7813F0FF0F18D0A34B1B681B78DBB2A24A13700622A24BDC
:401200001A70FF22A3F204631A70002203F580631A7001229D4B1A704622974B1A702C465CE19B4B1B7813F0020F12D0994A137843F00A03137060228F4B1A704FF0806237
:40124000954BC3F88C20BFF34F8FBFF36F8F2C4644E1924A137843F02003137052228A4B1A70FF22A3F204631A70002203F580631A702C4632E10222834B1A70FF22A3F258
:4012800004631A70002203F580631A704A227A4B1A702C4622E10A2C35D17E4A137843F0A00313707A4B1B7813F0020F19D0724B1B7813F0080F01D0092300E00A23754A16
:4012C00011780B43137060226B4B1A704FF08062714BC3F88C20BFF34F8FBFF36F8F2C46FCE06E4A137843F0200313705222664B1A70FF22A3F204631A70002203F5806391
:401300001A702C46EAE0C721654800F09DFE2C46E4E014F0020F48D15C4B1A78D2B2574B1B78DBB29A4218D2584A1378DBB254490968CB5CDBB253490B700621524B19703E
:40134000FF21A3F204631970002103F58063197013780133DBB21370C0E04D4B1B7813F0020F11D04B4A137843F00A0313706022414B1A704FF08062474BC3F88C20BFF36D
:401380004F8FBFF36F8FA9E0444A137843F02003137052223C4B1A70FF22A3F204631A70002203F580631A7098E0394B1B7813F0020F11D0374A137843F09A03137060220C
:4013C0002D4B1A704FF08062334BC3F88C20BFF34F8FBFF36F8F81E0304A137843F0200313705222284B1A70FF22A3F204631A70002203F580631A70264A137843F0900306
:4014000013706BE0274A1378DBB2274908681D490978C9B2C15413780133DBB213701278D2B2224B1B78DBB29A420BD20222164B1A70FF22A3F204631A70002203F5806328
:401440001A704BE0124B1B7813F0020F30D0114A137843F0090313706022074B1A704FF080620D4BC3F88C20BFF34F8FBFF36F8F34E000BF14163440B8500208BD500208F3
:40148000C8500208181034401C173440BC500208C4500208BE50020800E100E014183440B8720810C6500208C0500208C55002081B4A137843F0200313701222194B1A7094
:4014C000FF22A3F204631A70002203F580631A7004E040F22311144800F0B6FD14F0200F1CD0124B1B7813F0080F01D0012300E002230F4A11780B431370094A137803F0CE
:40150000DF0313701022094B1A7038BD074B1B7813F0100F02D11022044B1A7038BD00BF141834401C173440B8720810B8500208BE500208234B1B78DBB2102B3CD1224BB2
:401540001B7813F0100F39D14FF080621F4BC3F88C20BFF34F8FBFF36F8F4000C0B229B140F001004922174B1A7002E04522154B1A70174B1870822203F204731A70FF228E
:40158000A3F204631A70002203F580631A70114B1B7813F0FF0FFAD10B4B1B7813F0010FFAD0094B1B7803F00A030A2B08D11022044B1A7003207047022070470120704702
:4015C00000207047B85002081416344000E100E018103440181134401B4B1B7813F0040F2ED04000C0B229B140F001004922174B1A7002E04522154B1A70154B18703222DA
:4016000003F204731A70FF22A3F204631A70002203F580631A700F4B1B7813F0FF0FFAD1094B1B7813F0010FFAD0074B1B7803F00A030A2B06D11022044B1A700320704723
:40164000022070470020704714163440B85002081810344018113440104B1B7813F0040F19D052220E4B1A70FF22A3F204631A70002203F580631A700A4B1B7813F0FF0F66
:40168000FAD11022084B1A70044B1B7813F0210FFAD0002070470220704700BF141634401C17344018113440B8500208184B1B7813F0040F29D0174B1870062203F204738B
:4016C0001A70FF22A3F204631A70002203F580631A70114B1B7813F0FF0FFAD146220F4B1A700B4B1B7813F0010FFAD0084B1B7813F0020F04D16022084B1A700020704750
:401700006022064B1A70032070470220704700BF141634401810344018113440B85002081F4B1B7813F0040F36D01E4B1B78DBB2492B12D102221C4B1A70FF22A3F20463C6
:401740001A70002203F580631A70184B1B7813F0FF0FFAD14A22134B1A70114B1B7813F0010FFAD0124B1A78D2B288B1022103F204731970FF21A3F204631970002103F5E4
:4017800080631970094B1B7813F0FF0FFAD104E06021044B197000E000221046704700BF14163440B85002081C17344018113440181034401F4B98422DD00CD840282ED0D4
:4017C00003D8E8B1102828D02FE0802829D0B0F5807F28D029E0184B984228D006D8B0F1204F0DD0154B984212D01EE0144B98420AD00133984209D0023B984215D101E0FE
:40180000002070470F4870470F4870470F4870474FF4A0007047074870470D4870470D4870470D487047034870470C4870474FF4A400704706005200010000F0090000A046
:40184000040000F0010052000200520003005200010050000200500005005200FF00520038B5124B1B6893F83130012B04D840F2C3110F4800F0E8FB0C4B1D682A6AB5F81F
:40188000B03013442C46D5F8B420D358002B0BDB084B1868FFF78EFF6B6801229A6063689B68002BFBD138BD034838BDCC500208DC720810484B0208020050001A4B186109
:4018C00028B102230370FF23437000234380174B1B6893F850202AB300B583B0B3F93830ADF80030002301931149684600F04EFBBDF90030002B08DB590903F01F030122A8
:4019000002FA03F30B4A42F82130084B1B6893F8513023B102220849012000F077FA03B05DF804FB704700BF484B0208CC500208D543020800E100E08D44020808B5024823
:40194000FFF7BCFF08BD00BF5C4B020838B50B4B1B68D3F8B4301B58002B0DDA0D4604460B0C1B0423B140F2D521054800F06CFBA9B26160002038BD024838BDCC5002087E
:401980001C73081001008A0038B50368002B01DA002300E0094B73B90D460446C2600B0C1B0423B140F2BB21054800F04DFBA9B2A160002038BD014838BD00BF01008A00BF
:4019C0001C73081038B504460D4619B99921084800F03AFB074B1B68D3F8B4301B59002B03DAE3682B60002038BD034838BD00BF5C730810CC50020801008A00254B1B6840
:401A000093F8313083423AD900293AD00B6813F01F0F38D170B50D4604461E4B1B6893F83130984204D340F2C3111B4800F00CFB184B1B68186AB3F8B03004FB0304174EF9
:401A400034602A68D2080021686802F04CFB00212046FFF77BFF346825B940F293310E4800F0F2FA2A4600212046FFF78DFF60B900210A4B1868FFF769FF40B970BD084847
:401A800070470748704706487047064870BD054870BD00BFCC5002081C730810604B020803018A0001018A0010B504461346B2B9A9B9124B1B6893F83130984204D340F230
:401AC000C3110F4800F0C0FA0C4B1B681A6AB3F8B03004FB03240B4B1C60002010BD43B149B1084A51609360111D2046FFF786FF10BD054810BD044810BD00BFCC5002086B
:401B00001C730810604B020803018A002DE9F0411B4B1B68DC68236883422CD90D464609A0EB4610012303FA00F819B900F0F9FA074600E00027124B18680368002B01DAFF
:401B4000002300E00F4B83B9626852F8263018EA030F05D023EA080342F82630002400E0094C0021FFF7F2FE00E0084C25B9384600F0DBFA00E0064C2046BDE8F08100BFAF
:401B8000604B020801008A00020188000301880004018A000B4B1B68DB681A6882420CD94109A0EB4110012202FA00F05B6853F82130184203D004487047044870470448E5
:401BC000704700BF604B02080101880004018A0000018800024B1B680BB9014B186070476C4B02082DE9F8430446884691461D46089F2C4B1B681BB9B5212B4800F024FAD9
:401C0000284B1B682C2000FB04F01C18EEB21E50C5F3072363602D0CA560244B1B6893F831309E4204D340F2C311214800F00CFA1E4B1B68196AB3F8B02006FB02162661CA
:401C4000666893F832309E4204D340F2DF11184800F0FAF9154B1B681D6A803605EB46156561A668330C1B0423B14FF4FF71104800F0EAF9330C1B0423B140F2FF110C4876
:401C800000F0E2F9B3B243EA0646AE60C4F81C90C4F820800023A36117B1B7F90030A381BDE8F8836C4B02089C730810CC5002081C730810F0B58FB0044618B95221274800
:401CC00000F0C2F9A369072B03D95621234800F0BBF9E36A1BB95821204800F0B5F9236B1BB959211D4800F0AFF907AD04F114060FCE0FC537682F6002AD26460FCE0FC5B2
:401D000033682B60164B1B68B3F93620079B1344ADF83030089B0D93A26AE16A0CAD00953B460A98FFF75EFF00210091069B0A460598FFF757FF216B284600F027F9BDF9EF
:401D40003030002B08DB590903F01F03012202FA03F3044A42F821300FB0F0BD9C730810CC50020800E100E0F8B506460F461D4614461AB9FD211F4800F066F91E4B1B6878
:401D80001BB9FE211B4800F05FF91B4B1B682C2101FB063001FB07314B68012202FA03F31B04466802FA06F60269EAB18F69EFB91268002A01DA002200E0104AC2B92288B6
:401DC000134323600369DC6001238B614D620469330C1B0423B140F2BB21094800F034F9B2B2A2600020F8BD0648F8BD0648F8BD0548F8BD9C7308106C4B020801008A00D2
:401E00001C73081004028A0007028A00F8B505460F4616460E4B1B6823B94FF4AF710D4800F012F90A4B1B682C2404FB0534236A23B94FF4B171074800F006F9E369B34217
:401E400004D9236A43F826700020F8BD0248F8BD6C4B02089C7308100A028A0070B582B000230193044620B940F2D111284800F0EBF8236923B94FF4E971254800F0E4F80F
:401E8000636923B940F2D311214800F0DDF8236A23B94FF4EA711E4800F0D6F86369DD682A0C20D012041A601B682069194B1B68D3F8B430C358002B15DA01A9FFF782FD4E
:401EC00060B9019803681E0CDBB2E269934206D2226A52F8233013B1984700E0002631462069FFF733FDADB275B16369ADB21D601B68636A1BB198470023636202E0A36A1F
:401F000003B198470023A36163691B6802B070BD9C730810CC50020810B50446074B1B6823B940F2B111064800F08EF8034B1B682C2000FB0430FFF791FF10BD6C4B020894
:401F40009C73081038B50D4B9A680D4B9A420FD10D46044621B940F237110A4800F074F804F11003064A52F8230042F8235038BD1030054B53F8200038BD00BF00ED00E05D
:401F800000400208DC7308100000081048B338B504460D464368072B03D93221134800F053F8B4F900306268002B08DB5201D2B203F1604303F5614383F8002305E003F0FC
:401FC0000F035201D2B20A49CA540A4B9A680A4B9A4208D12946B4F90000FFF7B3FF002038BD06487047002038BD00BFDC73081014ED00E000ED00E00040020801005600BE
:4020000010B5044605E0084B186800F081F8A4F50044B4F5004FF6D8044B186800FB04F000F076F810BD00BFB8420208B442020808B5034B1B7800FB03F000F069F808BD7F
:40204000B042020801BEFEE738B50D46044C18220146204602F042FDA5610020FFF7F2FF00490208FEE700BF08B50268254BDA6142681A6282685A62C2689A620269DA62A9
:4020800042691A6382695A63C2699A631E4A916AD963D16A1964516A5964516B9964926BDA64F1EE103A13F0900F27D0026A154B1A65426A5A65826A9A65C26ADA65026B2A
:4020C0001A66426B5A66826B9A66C26BDA66026C1A67426C5A67826C9A67C26CDA67026DC3F88020426DC3F88420826DC3F88820C26DC3F88C20026EC3F89020FFF7B2FF9B
:4021000008BD00BF0049020800ED00E0000000000230800803D001300238FCD100BF00BF7047EFF3108072B6704780F310887047014B1860704700BFCC50020810B4D0F802
:40214000003303F00F03072B06D900230DE0D0F84043CC54013300E000239342F7D306E0D0F8404321F8134001339342F8D35DF8044B704710B51446D0F80833C3F3080316
:402180009A4200D31C462246FFF7D8FF204610BD036813F4006F01D0802200E04022D0F80832C3F30803934203D0C0F84012012070470020704700BF10B4D0F8003203F07C
:4021C0000F03072B06D900230DE0CC5CC0F84042013300E000239342F7D306E031F81340C0F8404201339342F8D35DF8044B704710B51446036813F4006F01D0802200E056
:402200004022D0F80832C3F30803D31AA34200D81C462246FFF7D0FF204610BD2DE9F84305460C46036813F4006F02D04FF0800801E04FF04008D5F8007207F00F07A26AE5
:40224000012A19D9D4F82490E262561EB9F1000F00D026B940F273512548FFF7F5FE324649462846FFF7C4FFA36A1B1AA362072F00D9400048446062D5F80832C3F308037B
:40228000984533D0A36A012B30D10023A362072F02D8636A1E7801E0636A1E88FFF741FFC5F840624FF40073C5F8803FD5F8803FFFF73BFFD5F8883F23F4007222F0010260
:4022C00042F4007623F4EE6323F0030323B140F236410848FFF7B8FEC5F8886F236843F002032360236B0BB101209847BDE8F88390750810D07508102DE9F04105460C4676
:40230000036813F4006F01D0802600E040267608A769D4F81C8017B1B8F1000F04D14FF499613148FFF790FE424639462846FFF721FF236A03442362E3691B1AE36173BBA3
:40234000A368FBB1E3689E4201D8013E00E05E1E2B6813F4006F01D0802300E040239E4204D34FF423712148FFF76EFED5F8043323F0FF03F6B21E43C5F804630123C5F8C7
:40238000C83F02E00023C5F8C83F636823F001036360236B33B304209847BDE8F081A169D5F8002302F00F02072A00D940000844A0619E4216D95C1E2B6813F4006F01D064
:4023C000802300E040239C4204D34FF423710748FFF73AFED5F8043323F0FF02E3B21343C5F80433BDE8F08190750810D0750810002800F0A48170B50546002900F0A1817F
:4024000016460C460B78022B03D93F21A248FFF71BFE637B023BDBB2062B03D940219E48FFF712FEA37B3BB1022B05D0032B03D041219948FFF708FE94F82130012B03D9D6
:4024400042219548FFF700FE94F82830012B03D943219148FFF7F8FD2378012B06D86368083B082B94BF0023012307E0A37F2BB16368013B062B94BF002301231BB14521AB
:402480008548FFF7E1FDA368053B042B03D946218148FFF7D9FD6369FF2B03D947217E48FFF7D2FDA369FF2B03D948217A48FFF7CBFDA37C6BB1237833B9A368092B05D192
:4024C000A37B2BB1012304E0012302E0012300E000231BB14A217048FFF7B6FD636B23F4366323F00D031BB14C216B48FFF7ACFDE36B23F4EE6323F003031BB14D21664832
:40250000FFF7A2FD2378022B01D1A37F13B16268013A00E00022237F13B14FF4803100E00021A368082B02D84FF4006300E000230B4302F00F02134343F000732B60226BFE
:402540002B6813F4006F01D0802300E040239A4203D362215048FFF777FDA26B2B6813F4006F01D0802300E040239A4203D363214948FFF769FD626A2B6813F4006F01D0CE
:40258000802300E040239A4203D364214248FFF75BFD23781B0603F040732B64637F0BB1402200E00022A37C13B14FF4806300E000231343227C12B14FF4807200E0002239
:4025C0001343627C12B14FF4007200E000221A43E36A013B1B0403F470231343627B013A02F007021343A27B120102F030021343AB64237B13B14FF4807200E00022E37B2F
:4026000023B92378022B03D1012302E0012300E0002313B14FF4007300E000231A43A368013B03F00F031343C5F80033227DA3691B0403F47F031343C5F81033E26AD5F8D7
:40264000003303F00F0303339A4201D3102A03D97A211148FFF7F8FCE37F23B12378012B03D0002302E0002300E0012313B14FF4807200E00022637B013B03F007031A43DD
:40268000A37B1B0103F0300313436B64237B2BB14FF4807203E000BF147608100022A368013B03F00F0313432278012A02D14FF4803200E000221343C5F8003294F830301E
:4026C000C5F8043394F8203013B14FF0007200E0002294F82130012B02D14FF0807300E00023134394F82820012A02D14FF4803200E00022134394F8242013432B6594F8CB
:402700003830C5F80432636B23F4926323F002031B051B0DC5F8C83FE36B23F08C035B055B0DC5F8883F76B1002070603060B060F0603062F0623063044B736370BD0448E8
:402740007047034870BD002070BD00BFEFCDAB000160AA000B694A69934202D34869181A7047CA684869101A184470472DE9F04107460D46036813F4006F02D04FF08008C0
:4027800001E04FF040084FEA5808D7F80863C6F308062C6926E00134EB689C4200D100246B699C420FD12B6B0BB1082098476B699C4208D10023C7F8C83F0CB1013C13E0D5
:4027C000EC68013C10E0D7F84023D7F8003303F00F03072B02D8AB681A5502E0AB6823F81420013E002ED6D12C61EC6829463846FFF7B0FF201A804519D908B1441E00E0DA
:4028000000243B6813F4006F01D0802300E040239C4204D34FF423710648FFF715FCD7F8040320F0FF03E0B21843C7F80403BDE8F08100BFD0750810F8B505460E4617464D
:402840001C4623B940F261312448FFF7FDFB626B234B9A4204D040F262312048FFF7F4FB06B127B940F263311C48FFF7EDFB236813F0010F30D1012323606662A7622B68B6
:4028800013F4006F01D0802300E040235C082B6813F4006F01D0802300E040239C4204D34FF43D710F48FFF7CFFBD5F8043223F0FF032343C5F804322B6CC3F30163012BBC
:4028C00005D140F20153C5F8883F0020F8BD0123C5F8883F0020F8BD0348F8BD14760810EFCDAB00D07508100360AA000868704738B504460D46D0F8003E13F0080F35D05D
:40290000D0F8CC3F13F448730AD04A681A434A60C0F8C03FD0F8C03F0B6B0BB110209847D4F8CC3F13F4006F09D06B6843F400636B604FF40063C4F8C03FD4F8C03FD4F85A
:40294000CC3F13F0010F11D0EB6923B129462046FFF7D2FC05E0AB681BB129462046FFF705FF0123C4F8C03FD4F8C03FD4F8003E13F0040F2ED0D4F88C3F13F4A0630AD0C1
:402980002A681A432A60C4F8803FD4F8803F2B6B0BB120209847D4F88C3F13F0010F08D029462046FFF73AFC0123C4F8803FD4F8803FD4F88C3F13F4007F0BD00022C4F8A4
:4029C000882F2B6823F001032B60EA622B6B0BB10220984738BD00BF2DE9F8430E46074618B93A217548FFF72FFB1EB93B217348FFF72AFB002F00F0DA80002E00F0DA80A3
:402A000032686F4B13401BB14A216C48FFF71CFB72686C4B13401BB14B216848FFF714FBB36813F0FC2F03D04C216448FFF70CFBF36813F0FC2F03D04D216048FFF704FB8D
:402A4000337D032B03D94E215C48FFF7FDFAB369B3F5803F03D34F215848FFF7F5FAF36D072B03D950215548FFF7EEFA336EB3F5803F03D351215148FFF7E6FA736EB3F5AC
:402A8000803F03D352214D48FFF7DEFA736843F000437B60B3683B61F3687B613369BB61337D9B07FB61B3693B62336803F46068736803F00409002435E02546A31D06EBE8
:402AC00083035A68404B13401BB163213B48FFF7BBFAAB1D06EB8303596805F1200247F822105B6813F0012F0BD1B8F5606F08D1B9F1000F05D04FF47842344B23F8152028
:402B000003E00022314B23F81520726F02F11C7303F58033520093FBF2F31BB22C4A42F825300134E4B20F2CC7D9F36DC7F81832F36DC7F81032336EC7F82832336EC7F895
:402B40002032736EC7F83832736EC7F8303296F87030DBB1B36EB3F1804F03D382211748FFF772FAF36E23F44F0323F0FF031BB183211248FFF768FA6FF04043C7F8043396
:402B8000B36EC7F80033F36EC7F84433D7F8003F3F2B02D0D7F8003F13B90B23C7F8003F336843F400133B600020BDE8F8830948BDE8F8830748BDE8F88300BF54760810DA
:402BC0000811DF0001FE302088CA887ED0500208F05002080100060038B50D46044618B9B5211748FFF730FA2CB30023236063604FF0031222616261A361E361236206E076
:402C000003F12002002144F822100133DBB20F2BF6D90023C4F81832C4F82832C4F838325DB16FF04043C4F804330020C4F84003C4F8440338BD034838BD002038BD00BFB2
:402C4000547608100100060008B50368002B0ADBD0F8A032002BFBDB036843F0004303600220FFF7E5F908BD38B505460C46012904D940F271110648FFF7E6F9012C04D12F
:402C80006B6843F480336B6038BD01236B6238BD5476081038B504460D46012904D94FF4F0711148FFF7D0F9D4F8103203F00103012D06D00AE0D4F8103203F00103013A4F
:402CC00000E00A4A1BB9002AF5D100E0074A33B10123C4F81032D4F81032002038BD0AB9034838BD034838BD5476081055555501020006000300060038B505460C460F298A
:402D000004D94FF415710848FFF79EF90F2C07D8203455F8243013F0012F03D0002038BD002038BD012038BD5476081038B505460C460F2904D940F222211048FFF784F9FA
:402D40000F2C14D821462846FFF7D6FF80F0010010F0FF0F05D06B6813F0080F09D1002038BD6B6813F0040F05D1002038BD002038BD012038BD012038BD00BF54760810A6
:402D800038B505460C460F2904D940F27B210648FFF75AF90F2C04D8603455F8240080B200E0002000B238BD54760810F8B506460C4615460F2904D940F27B311948FFF748
:402DC00043F90F2C2BD8736813F0800F22D104F1200356F8233013F4806F1BD07768C7F302170137012303FA07F7736813F4807F02D1102F00D9102721463046FFF796FFEB
:402E000020B9ADB2B5FBF7F52DB203E03FB295FBF7F52DB2044B33F81430ED1A2DB22846F8BD00BF54760810D050020870B505460C4616460F2904D94FF477711348FFF76F
:402E400003F90F2C1AD86B6813F0020F19D1324621462846FFF7AAFF07EE900AF8EEE77AF2EE046A67EEA66A094B53F8243007EE103AB8EEC77AC6EE877A04E0DFED057AE6
:402E800001E0DFED047A17EE900A70BD54760810F05002080000000070B5064614461D4621B140F29E410E48FFF7CEF8B4F1804F04D340F29F410A48FFF7C6F8012D04D95E
:402EC0004FF494610648FFF7BFF8012D05D1D6F800331C43C6F8004370BDC6F8044370BD5476081070B504460D46164621F44F0323F0FF0323B140F2ED410C48FFF7A4F845
:402F0000012E04D940F2EE410848FFF79DF8012E05D1D4F844331D43C4F8445370BDD4F8443323EA0505C4F8445370BD5476081000287DD00346002A7CD070B45068000253
:402F400080B29568AD0405F480252843D468240404F4403404431069000600F0E0602043147F0CB1012400E0002420430C1DA4011851D06828B903EB81100024C0F808416F
:402F80000CE0012805D1146803EB8110C0F8084104E003EB81100124C0F80841106938B9546903EB8110C0F80C419469C0F81041146803EB8110C0F81441906CB0F1FF3F0D
:402FC00017D0946A04F00F04166B360206F470663443956B2D0405F470252543146C2403A4B22C430001C0B2204303EB8114C4F82001506A00F00300D66A360106F03006CC
:403000003043556B2D0205F440752843D46BA401E4B20443506C800000F00C00204303EB8113C3F82401126AC3F83821002003E0024870470148704770BC70470100B60029
:4030400043684B609A688A609A68516099600861036801330360704703694268816891608268416851605A68904201D182685A60002202611A68013A1A601868704700BF50
:40308000094B9B6A1B680BB9012300E0002323B14FF0FF32044BDA627047034B9A6AD268D2685268DA627047AC4B02082DE9F0413C4BD3F81831002B65D13A4BD3F8144167
:4030C0000134C3F81441CCB99B6A1B6843B14FF03F0383F31188BFF36F8FBFF34F8FFEE7304B9A6AD3F8F8109962C3F8F820D3F820210132C3F82021FFF7C2FF294BDB6A0A
:403100009C4203D2002645E0012600E00026254B9B6A1B680BB9012300E0002323B14FF0FF32204BDA6235E01E4B9B6ADB68DD686B689C4202D21B4AD3622BE005F104085F
:403140004046FFF789FFAB6A1BB105F11800FFF783FFEB6A134AD2F80C21934202D9114AC2F80C310F4F07F1300003EB83039A0041461044FFF764FFEA6AD7F80031DB6AD8
:403180009A42C1D2C3E7074AD2F824310133C2F824310026034BD3F8283103B101263046BDE8F081AC4B0208304BD3F8183123B101222E4BC3F82821704710B52B4B00222C
:4031C000C3F82821D3F800311B6B1A68B2F1A53F0BD15A68B2F1A53F07D19A68B2F1A53F03D1DB68B3F1A53F07D0204BD3F80001D3F80011343100F09BF81C4BD3F80C31DA
:403200000AE043B94FF03F0383F31188BFF36F8FBFF34F8FFEE7013B03EB83018A0013490A44126B002AECD008469900CC18A2000244546B64685463303019448A00083238
:403240000244944206D1606803EB83018A0007490A445063054903EB830082000A44526BD268C1F80021C1F80C3110BDAC4B0208074B19680868B0E8F04F80F30988BFF352
:403280006F8F4FF0000080F311887047AFF30080AC4C0208000000000000000000000000EFF30980BFF36F8F154B1A681EF0100F08BF20ED108A20E9F04F10602DE909007B
:4032C0004FF03F0080F31188BFF34F8FBFF36F8FFFF76AFF4FF0000080F3118809BC19680868B0E8F04F1EF0100F08BFB0EC108A80F30988BFF36F8F704700BFAFF3008057
:40330000AC4C020808B54FF03F0383F31188BFF36F8FBFF34F8FFFF7C9FE18B14FF08052024B1A60002383F3118808BD04ED00E008B54FF03F0383F31188BFF36F8FBFF329
:403340004F8F4FF441710248FEF77EFEFEE700BF9076081070B539B900240AE015F8010BFDF7A0FE013402E016460D460024B442F4DB204670BD00BF70B561B900240FE0DA
:40338000FDF79CFEC0B2287001340A2808D00D2806D0013502E016460D460024B442EFDB204670BD08B502490248FFF7A1FA08BD305102080000664008B5114B1B785BB954
:4033C000104A11491148FFF713F811491148FEF7DDFD01220A4B1A700E4BB3F90030002B08DB590903F01F03012202FA03F30A4A42F82130054A136843F00043136008BD15
:40340000D84C020830510208E076081000006640A5330810A872081000E100E038B50446264B1A68916892F8703003F00403DBB243F08043C1F800340369FF2B0AD89168B4
:40344000B2F874200A44116921F47F411B029BB20B431361194B1A68906892F87310032303FA01F592F8703092F8721003FA01F1294303F004030B4343F00043C0F8003406
:403480009368D3F800340E4D00212846FFF7A4FBA1682846FFF7A0FA01234FF4803200212846FFF7F9FC6368012B05D901224FF480312846FFF716FD38BD00BFCC500208BC
:4034C00000001D4108B5074B5B6813F4802F04D001210448FFF7C8FB08BD00210148FFF7C3FB08BD00001D4108B501460348FFF7D1FB08B1002008BD012008BD00001D41F2
:4035000008B5084B1B7963B907490848FEF73EFD044B5B792BB90122024B5A710448FFF77DFF08BDDC4C020861350810907208105C77081008B5084B1B7913F0010F06D1C3
:40354000FFF7DEFF044A137943F0010313710348FFF77AFB08BD00BFDC4C020800001D4110B5094BD3F81042072C04D940F231610648FEF769FD044BC3F81042D3F810220D
:40358000D3F8103210BD00BF00001D412077081008B5084B1B783BB9074A00210748FFF7C7FC0122034B1A70044B01229A609A6108BD00BFE24C0208E87708100000384047
:4035C00008B502490248FFF793F908BD685102080000634008B5114B1B785BB9104A11491148FEF705FF11491148FEF7CFFC01220A4B1A700E4BB3F90030002B08DB5909EC
:4036000003F01F03012202FA03F30A4A42F82130054A136843F00043136008BDE34C0208685102083478081000006340C1350810B072081000E100E00B4B10B519680B4BAB
:403640000C691A688B69126A80335B019B180122D868A24080B2824205D11A601B68CB69002B00D0984710BDE44C0208CC500208084B1A684369126A80335B019B189A6817
:40368000036901209840120C801A43425841C0B27047C046CC500208074B1A681300116AB0321288B43350431B685B1818180068C043C00F7047C046CC500208134B10B5BC
:4036C0001C682000FFF7D4FF00281BD02069FFF7E3FF002818D001210D4B62691B6891401A00B032108822691B6A50432200C018FEF74AF943425841064B40421840064B3D
:40370000C01810BD0548FCE70548FAE7E44C0208CC500208FCFFCDFF040032000600320007003000114B70B51C680500002C16D02378002B13D02000FFF79AFF002810D03E
:40374000002D06D12069FFF7A7FF00280BD0606870BD2069FFF7A0FF0028FAD0F7E70448F6E70448F4E70448F2E7C046E44C0208080032000600320007003000F7B505002B
:403780006B6800684B61AB6808618B616B691E4FCB614B1C01932B7B4A1CD3773B680C001A000126B03212881B6A50430021C018FEF7CCF826702000FFF75AFF002820D0A9
:4037C000E369002B19D0280010490C30FEF7DEFBA3693A688033126A5B019B18320021698A4092B29A60A319DB7F5BB2002B04DB1F2213409E40064B1E600020054B1C60D4
:40380000FEBD0548FCE7C046CC5002083936081000E100E0E44C020806003200094B10B51B68002B0BD0012400221C709A62FFF745FF002802D12000FFF774FF10BD024871
:40384000FCE7C046E44C020808003200074B10B51B68002B07D007249A621C7090615175FFF72CFF10BD0248FCE7C046E44C02080800320070B5074C2468002C08D008251B
:40388000A36225701875D9621A63FFF717FF70BD0148FCE7E44C02080800320081F0004102E000BF83F0004330B54FEA41044FEA430594EA050F08BF90EA020F1FBF54EA63
:4038C000000C55EA020C7FEA645C7FEA655C00F0E2804FEA5454D4EB5555B8BF6D420CDD2C4480EA020281EA030382EA000083EA010180EA020281EA0303362D88BF30BDD1
:4039000011F0004F4FEA01314FF4801C4CEA113102D0404261EB410113F0004F4FEA03334CEA133302D0524263EB430394EA050F00F0A780A4F10104D5F1200E0DDB02FA41
:403940000EFC22FA05F2801841F1000103FA0EF2801843FA05F359410EE0A5F120050EF1200E012A03FA0EFC28BF4CF0020C43FA05F3C01851EBE37101F0004507D54FF0D4
:40398000000EDCF1000C7EEB00006EEB0101B1F5801F1BD3B1F5001F0CD349085FEA30004FEA3C0C04F101044FEA445212F5800F80F09A80BCF1004F08BF5FEA500C50F1A8
:4039C000000041EB045141EA050130BD5FEA4C0C404141EB010111F4801FA4F10104E9D191F0000F04BF01460020B1FA81F308BF2033A3F10B03B3F120020CDA0C3208DD7C
:403A000002F1140CC2F10C0201FA0CF021FA02F10CE002F11402D8BFC2F1200C01FA02F120FA0CFCDCBF41EA0C019040E41AA2BF01EB0451294330BD6FEA04041F3C1CDAE4
:403A40000C340EDC04F11404C4F1200220FA04F001FA02F340EA030021FA04F345EA030130BDC4F10C04C4F1200220FA02F001FA04F340EA0300294630BD21FA04F029463A
:403A800030BD94F0000F83F4801306BF81F480110134013D4EE77FEA645C18BF7FEA655C29D094EA050F08BF90EA020F05D054EA000C04BF1946104630BD91EA030F1EBF14
:403AC0000021002030BD5FEA545C05D14000494128BF41F0004130BD14F580043CBF01F5801130BD01F0004545F0FE4141F470014FF0000030BD7FEA645C1ABF194610468A
:403B00007FEA655C1CBF0B46024650EA013406BF52EA033591EA030F41F4002130BD00BF90F0000F04BF0021704730B54FF4806404F132044FF000054FF0000150E700BFD5
:403B400090F0000F04BF0021704730B54FF4806404F1320410F0004548BF40424FF000013EE700BF42004FEAE2014FEA31014FEA02701FBF12F07F4393F07F4F81F0605169
:403B8000704792F0000F14BF93F07F4F704730B54FF4607401F0004521F0004120E700BF50EA010208BF704730B54FF000050AE050EA010208BF704730B511F0004502D50D
:403BC000404261EB41014FF4806404F132045FEA915C3FF4DCAE4FF003025FEADC0C18BF03325FEADC0C18BF033202EBDC02C2F1200300FA03FC20FA02F001FA03FE40EAE6
:403C00000E0021FA02F11444C1E600BF70B54FF0FF0C4CF4E06C1CEA11541DBF1CEA135594EA0C0F95EA0C0F00F0DEF82C4481EA030621EA4C5123EA4C5350EA013518BF82
:403C400052EA033541F4801143F4801338D0A0FB02CE4FF00005E1FB02E506F00042E0FB03E54FF00006E1FB03569CF0000F18BF4EF0010EA4F1FF04B6F5007F64F54074C3
:403C800004D25FEA4E0E6D4146EB060642EAC62141EA55514FEAC52040EA5E504FEACE2EB4F1FD0C88BFBCF5E06F1ED8BEF1004F08BF5FEA500E50F1000041EB045170BD49
:403CC00006F0004646EA010140EA020081EA0301B4EB5C04C2BFD4EB0C0541EA045170BD41F480114FF0000E013C00F3AB8014F1360FDEBF002001F0004170BDC4F1000431
:403D0000203C35DA0C341BDC04F11404C4F1200500FA05F320FA04F001FA05F240EA020001F0004221F0004110EBD37021FA04F642EB06015EEA430E08BF20EAD37070BDF6
:403D4000C4F10C04C4F1200500FA04F320FA05F001FA04F240EA020001F0004110EBD37041F100015EEA430E08BF20EAD37070BDC4F1200500FA05F24EEA020E20FA04F3E6
:403D800001FA05F243EA020321FA04F001F0004121FA04F220EA020000EBD3705EEA430E08BF20EAD37070BD94F0000F0FD101F00046400041EB010111F4801F08BF013CB9
:403DC000F7D041EA060195F0000F18BF704703F00046520043EB030313F4801F08BF013DF7D043EA0603704794EA0C0F0CEA135518BF95EA0C0F0CD050EA410618BF52EAB2
:403E00004306D1D181EA030101F000414FF0000070BD50EA410606BF1046194652EA430619D094EA0C0F02D150EA013613D195EA0C0F05D152EA03361CBF104619460AD110
:403E400081EA030101F0004141F0FE4141F470014FF0000070BD41F0FE4141F4780170BD70B54FF0FF0C4CF4E06C1CEA11541DBF1CEA135594EA0C0F95EA0C0F00F0A7F862
:403E8000A4EB050481EA030E52EA03354FEA013100F088804FEA03334FF0805545EA131343EA12634FEA022245EA111545EA10654FEA00260EF000419D4208BF964244F1F6
:403EC000FD0404F5407402D25B084FEA3202B61A65EB03055B084FEA32024FF480104FF4002CB6EB020E75EB030E22BFB61A754640EA0C005B084FEA3202B6EB020E75EB91
:403F0000030E22BFB61A754640EA5C005B084FEA3202B6EB020E75EB030E22BFB61A754640EA9C005B084FEA3202B6EB020E75EB030E22BFB61A754640EADC0055EA060EA3
:403F400018D04FEA051545EA16754FEA06164FEAC30343EA52734FEAC2025FEA1C1CC0D111F4801F0BD141EA00014FF000004FF0004CB6E711F4801F04BF01430020B4F174
:403F8000FD0C88BFBCF5E06F3FF6AFAEB5EB030C04BFB6EB020C5FEA500C50F1000041EB045170BD0EF0004E4EEA113114EB5C04C2BFD4EB0C0541EA045170BD41F4801181
:403FC0004FF0000E013C90E645EA060E8DE60CEA135594EA0C0F08BF95EA0C0F3FF43BAF94EA0C0F0AD150EA01347FF434AF95EA0C0F7FF425AF104619462CE795EA0C0F1A
:4040000006D152EA03353FF4FDAE1046194622E750EA410618BF52EA43067FF4C5AE50EA41047FF40DAF52EA43057FF4EBAE12E74FEA4102B2F1E04324BFB3F5001CDCF1E9
:40404000FE5C0DD901F0004C4FEAC0024CEA5070B2F1004F40EB830008BF20F00100704711F0804F21D113F13872BCBF01F00040704741F480114FEA5252C2F11802C2F1AD
:40408000200C10FA0CF320FA02F018BF40F001004FEAC1234FEAD32303FA0CFC40EA0C0023FA02F34FEA4303CCE77FEA625307D150EA01331EBF4FF0FE4040F44000704703
:4040C00001F0004040F0FE4040F40000704700BF10B5431E0A44914204D011F8014B03F8014FF8E710BD02440346934202D003F8011BFAE770472DE9F04788B0002B149FC8
:404100001299109EDDF84CA01D4627F02007BBBF03F100431D4600232D231446B8BF1446462F0B7003D0452F03D1013601E0032300E0022307AA049206AA03928DE8480477
:4041400022462B4600F030FE472F804602D1119BDB0728D5462F08EB060911D198F80030302B0AD1002200232046294602F0DAFB18B9C6F10106CAF80060DAF800309944EE
:40418000002200232046294602F0CCFB08B9302202E0CDF81C9006E0079B994503D9591C07911A70F8E7079B159AC8EB03034046136008B0BDE8F08773B503460029B8BF26
:4041C000494203F8022BB4BF2D222B220929427019DD0DF1070216460A2591FBF5F405FB14113031092C02F8011D2146F5DC3031541E02F8011CB4421A460AD214F8012BBD
:4042000003F8012BF7E730241A46214402F8024B5970101A02B070BD2DE9F04F91B00C46DDF8688016461F46054601F0D5FC03680893184600F04AFC00230E93D8F8003076
:404240000990073323F0070303F1080294F818A0D4F800B0C8F80020D3E90023C4E91223D4E9128929F000430B93CDF828804FF0FF32A74BDDE90A0102F086FBA0B94FF0F2
:40428000FF32A34BDDE90A0102F060FB60B9002200234046494602F04FFB10B12D2384F843309C4B9C4A0AE042464B464046494602F06AFB002800F09281984B984ABAF13B
:4042C000470F8CBF90469846032323612BF0040323604FF000093DE0BAF1670F00F08A81BAF1470F00F08681236000210DF133020193636805900292009342464B460691FF
:40430000CDF810A0CDF80CE02846FFF7F4FE0AF0DF03472B804600F08481BAF1650F0D9900F28D810139524604F150000D91FFF743FF0E9A8318012A8146236100F37C819D
:404340002268D10700F178819DF8333013B12D2384F84330009733460FAA2146284600F09FF9013002D14FF0FF3096E123685A0501D4236965E0BAF1650F40F2D58000228F
:404380000023D4E9120102F0CDFA78B30123654A31462846B8470130E5D00E9B0D9A9A420BDB2368D80708D423689B0740F111814FF0000804F1190906E1099B089A31463F
:4043C0002846B8470130CED04FF0000804F11A090E9B013B9845E7DA01234A4631462846B8470130BFD008F10108F1E70D9B002B29DC01234B4A31462846B8470130B2D045
:404400000D9B23B90E9B13B92368D907CCD5099B089A31462846B8470130A4D04FF0000904F11A0A0D9B5B42994509DA0123524631462846B847013095D009F10109F1E72F
:404440000E9B4246A7E00E9AA36D9A42A8BF1A46002A914606DC4FF0000A29EAE97904F11A0B11E01346314642462846B8470130F1D178E701235A4631462846B84701308D
:404480003FF471AF0AF1010AA36DC9EB03029245F0DB08EB03090D9A0E9B9A420FDB2368DA070CD40E9B0D9A9844C9EB08089B1A9845A8BF9846B8F1000F08DC0FE0099BE1
:4044C000089A31462846B8470130EBD14BE743464A4631462846B84701303FF444AF4FF0000928EAE87804F11A0A09E00123524631462846B84701303FF435AF09F101091B
:404500000D9A0E9B9B1AC8EB03039945EEDB4BE7FFFFEF7F7C7808108078081084780810887808108C7808100E9A012A01DCDB0738D50123424631462846B84701303FF481
:4045400012AF099B089A31462846B84701303FF40AAF00220023D4E9120102F0E3F920B14FF0000804F11A0A0EE00E9B08F10102013B19E00123524631462846B847013086
:404580003FF4F1AE08F101080E9B013B9845F1DB4B4604F1500231462846B84701307FF403AFE0E60123424631462846B8470130EED1D8E601234A4631462846B8470130BA
:4045C0003FF4D1AE08F10108E3680F9A9B1A9845F0DBE0680F9B9842B8BF18465DE06268531C0EA84BF480630DF1340E7FF474AE062201E012B90122626075E60021069126
:404600000DF133018DE80C00236005904246CDF810A0CDF80CE002914B462846FFF76BFD80460D9BD81C02DB626893421DDDAAF1020A5FFA8AFA70E60133236184E6BAF192
:40464000660F14D10029636807DD216113B92268D2071DD501330B4419E013B92268D00701D5023313E0012311E04FF0670A0D9B0E9A934205DB22682361D10708D50133FD
:4046800005E0002BD4BFC3F102030123134423610D9BA3654FF0000956E611B0BDE8F08F2DE9F04791461F460A698B68DDF820809342B8BF1346C9F8003091F84320064654
:4046C0000C4612B10133C9F800302368990642BFD9F800300233C9F80030256815F0060510D104F1190A07E00123524639463046C04701301AD00135E368D9F800209B1AB7
:404700009D42F1DB94F843302268003318BF012392060FD5E1185A1C302081F84300224494F8451082F84310023303E04FF0FF30BDE8F08704F1430239463046C047013003
:40474000F4D02268D9F80050E36802F00602042A08BF5D1B2269A3680CBF25EAE57500259342C4BF9B1AED184FF000091A344D4509D00123224639463046C0470130D5D0B8
:4047800009F10109F3E70020BDE8F0872DE9F04317460A7E85B06E2A984606460C460C9B01F1430E00F0AE8011D8632A22D009D8002A00F0BB80582A40F0CA8081F84520E8
:4047C000834955E0642A1ED0692A1CD0C0E0732A00F0B08009D86F2A2ED0702A40F0B8800A6842F020020A603EE0752A24D0782A3AD0ADE01A6801F14205111D19601368EF
:4048000084F84230A8E021681A6811F0800F02D0111D196008E011F0400F02F10401196002D0B2F9003000E01368002B3CDA2D225B4284F8432037E021681A6811F0800F7F
:4048400002D0111D196007E011F0400F02F10401196001D0138800E01368227E5C496F2A14BF0A2208221BE078225A4984F845202268186812F0800F00F104051D6003D14A
:40488000550601D5038800E00368D00744BF42F0200222601BB9226822F0200222601022002084F8430001E049490A226568A560002D08DB206820F0040020602BB9002D6E
:4048C0007DD175460CE0002B79D07546B3FBF2F002FB1033CB5C05F8013D03460028F5D1082A0BD12368DA0708D5236962689A42DEBF302305F8013C05F1FF35C5EB0E038D
:4049000023612EE008681A68496910F0800F03D0101D1860136808E010F0400F02F104001860136801D0198000E0196000232361754616E01A68111D1960156862680021F2
:40494000284601F0B5F908B1401B6060636804E004F1420584F8422001232361002384F84330CDF800803B4603AA21463046FFF797FE013002D14FF0FF3026E023692A4684
:4049800039463046C0470130F5D023689B0710D5002504F1190907E001234A4639463046C0470130E7D00135E368039A9B1A9D42F2DBE068039B9842B8BF184605E00B78BC
:4049C00084F8423004F142058AE705B0BDE8F0838E7808109F7808100FB40A4B13B51C6824B1A36913B9204601F06CF805AB049AA1680193204601F065FD02B0BDE81040EB
:404A000004B070471C43020870B50E46054618B183690BB901F056F8AB69AC6813B9284601F050F8224B9C4201D16C6808E0214B9C4201D1AC6803E01F4B9C4208BFEC683C
:404A4000A3891B0701D523693BB92146284600F0ADF810B14FF0FF3070BD013EA36816F8011F013BA36091B1002B04DAA269934206DB0A2904D023685A1C22601970EDE722
:404A80002246284600F03EF80130E7D1E2E7002B08DA22460A21284600F034F80130D9D00A2070BD23680A205A1C2260187070BDC0780810E078081000790810024B0146A6
:404AC0001868FFF7A1BF00BF1C430208034613F8012B002AFBD1181A0138704710B5034642B111F8014B03F8014B013A002CF7D11A4400E010BD934202D003F8014BFAE77A
:404B000010BD0000F8B50F461446064618B183690BB900F0D7FF224B9C4201D1746808E0204B9C4201D1B46803E01F4B9C4208BFF468A369A360A3891A0709D523693BB1A9
:404B400023682069181A63699842FDB20FDB08E02146304600F02AF80028F1D04FF0FF30F8BD2146304600F043FF0028F6D1A368013BA36023685A1C22601F706269431C49
:404B8000934204D0A389DB0707D50A2D05D12146304600F02DFF0028E0D12846F8BD00BFC0780810E078081000790810324B70B51D6806460C4625B1AB6913B9284600F077
:404BC00081FF2E4B9C4201D16C6808E02C4B9C4201D1AC6803E02B4B9C4208BFEC68B4F90C309AB215071DD4D00602D4092232603AE0510712D5616B41B104F144039942EA
:404C000002D0304601F088FB00236363A38923F02403A3810023636023692360A38943F00803A38123694BB9A38903F42073B3F5007F03D02146304600F0F6FFA28912F093
:404C4000010305D00023A36063695B42A36103E0920758BF6369A36023695BB9B4F90C3003F0800080B230B143F04003A3814FF0FF3070BD002070BD1C430208C07808101C
:404C8000E0780810007908102DE9F74F03690C699C42804600F38380013C01F114074FEA840E00F1140657F8245006EB0E030193013556F82430B3FBF5F507EB0E09002DFD
:404CC00039D04FF0000A3846B446D34650F8042B93B205FB03A34FEA134A9BB2C3EB0B03120CBCF800B005FB02A213FA8BF34FEA124A1FFA82FBDCF80020CBEB124202EB09
:404D000023429BB243EA024381454FEA224B4CF8043BDBD256F80E306BB9019B043B9E421A4602D3C8F8104005E01268043B002AF8D1013CF3E7404601F017FA00282CDBA4
:404D4000013530464FF0000E57F8041BD0F800C08AB2C2EB0E03090C13FA8CF3C1EB1C4202EB23429BB243EA0243B9454FEA224E40F8043BE8D256F8242006EB840362B991
:404D8000043B9E421A4602D3C8F8104005E01268043B002AF8D1013CF3E7284600E0002003B0BDE8F08F00002DE9F04F456A97B08246239CCDE9022345B9102000F070FF68
:404DC000CAF82400456085600560C560DAF82430196859B15A684A60012393408B60504600F0EBFFDAF8243000221A60039BA04A002BBFBF01232360039B23F00043B8BF45
:404E00000393DDF80C80A4BF0023236028F000431B0D1B0593421DD1229A42F20F731360029B43B9934A944BC8F31300002814BF1846104600E09048249B002B00F04A85F4
:404E4000C37813B100F1080300E0C31C249A136000F040BDDDE90245002200232046294601F060FD074658B1229A01231360249B002B00F0228581481860013800F02ABD6A
:404E800014AB019315AB009322462B46504601F0E7F9C8F30A56059056B1C5F3130343F07F51204641F44011A6F2FF3611971DE0159B149E1E4406F23243202B0ADD029A27
:404EC00006F21240C3F1400322FA00F008FA03F3184304E0C3F12000029B03FA00F0FEF71FFE0123A1F1F871013E11930022644BFEF7D8FC58A3D3E90023FEF787FE58A3D3
:404F0000D3E90023FEF7D0FC044630460D46FEF717FE55A3D3E90023FEF778FE02460B4620462946FEF7C0FC04460D4601F042FD0022834600232046294601F0FDFC58B1B0
:404F40005846FEF7FDFD02460B462046294601F0E9FC08B90BF1FF3BBBF1160F0DD8494901EBCB01DDE90223D1E9000101F002FD30B10BF1FF3B002300E00123109300E012
:404F80001090149B9E1B731E089343BFC3F10009002308934FF00009BBF1000F07DB089BCDF834B05B4408930023099306E0CBF1000309930023CBEB09090D93209B092B5B
:404FC00027D8052BC4BF043B2093209BA3F10203CCBF00250125032B20D8DFE803F0060E0204012302E0012308E000230C93219B002B1CDD069398461EE000230C93219B42
:405000005B4403F1010806934346012BB8BF012312E00125002320930C9501E001230C934FF0FF33069398460022122303E00123069398461A462192DAF8244000226260CE
:40504000042101F114029A421ED86268013262604900F6E7AFF3008061436F63A787D23FB3C8608B288AC63FFB799F501344D33F0000F07FB0780810B97808108D78081077
:405080000000F83F607908106168504600F060FEDAF8243020601B680793B8F10E0F00F25D81002D00F05A819DED027BBBF1000F8DED0E7B31DDA04A0BF00F0302EBC3034D
:4050C00093ED007B4FEA2B14E2068DED0A7B0CD59A4BDDE90E01D3E90823FEF7C1FE04F00F04CDE90201032600E00226934D6CB1E30708D5DDE90A01D5E90023FEF786FD41
:40510000CDE90A01013664100835F0E7DDE90A23DDE90201FEF7A4FE20E0CBF1000404B3854B864D04F00F0203EBC203D3E90023DDE90E01FEF76AFDCDE9020124110023A9
:40514000022654B1E70705D5D5E90023FEF75EFD0136012364100835F3E71BB1CDE9020100E00226109BEBB1DDE902450022744B2046294601F0E0FBA0B1B8F1000F11D0D6
:40518000069B002B40F3E6800BF1FF330A9300226C4B20462946FEF739FD0136CDE90201069F02E0CDF828B047463046FEF7C8FCDDE90223FEF72AFD0022634BFEF774FBDB
:4051C0000446A1F15075CFB90022604BDDE90201FEF768FB22462B46CDE9020101F0CAFB002840F04182224605F10043DDE9020101F0A2FB002840F02E82ABE00C9A4E4B6B
:40520000791E002A4AD003EBC103D3E9002300204F49FEF725FE22462B46FEF743FB079C05460E46DDE9020101F0C4FB1290FEF787FC02460B46DDE90201FEF733FB129B1F
:40524000303304F8013B2A463346CDE9020101F073FB002840F02183DDE9022300203849FEF720FB2A46334601F066FB002840F0D280079BE31ABB426CDA0022314B284627
:405280003146FEF7C3FC002205460E462D4BDDE90201FEF7BBFCCDE90201C3E703EBC10122462B46D1E90001FEF7B0FC079BCDE91201DC191D46DDE9020101F07BFB06468E
:4052C000FEF73EFC303602460B46DDE90201FEF7E9FA05F8016BAC42CDE902014FF0000223D11B4BDDE91201FEF7DEFA02460B46DDE9020101F03EFB002840F08C80DDE9D8
:40530000122300201249FEF7CDFA02460B46DDE9020101F011FBE8B114F8013C302B04F1FF3240F0BA821446F6E7064BFEF76EFCCDE90201BFE700BF607908103879081014
:405340000000F03F0000244000001C40000014400000E03FDDE90E34CDE90234159B002B7CDBBBF10E0F79DC8F4B03EBCB03D3E90067219B002B14DAB8F1000F11DC40F024
:405380006C810022894B30463946FEF73FFCDDE9022301F0E5FA45464646002840F05F8166E1079C32463B46DDE90201FEF758FD01F000FB0546FEF7C3FB32463B46FEF70D
:4053C00025FC0B460246DDE90201FEF76BFA05F1300E04F801EB079BC3EB040EF045CDE902012ED102460B46FEF75EFA8046894602460B463046394601F09EFA78B942461A
:405400004B463046394601F08DFA002800F04782E90704D443E2DDF828B000E01C4614F8012C392A04F1FF3307D1079A9A42F5D1079930220BF1010B0A701A7801321A7010
:405440002DE200225A4BFEF7E1FB00220023CDE9020101F067FA0028A4D020E20C9A002A2DD0209A012A0ADC119A12B103F2334302E0149BC3F13603099D4C4615E0099BD7
:4054800008F1FF35AB42BFBF099B0995EA1A0D9BB7BF9B185D1B0D930025B8F1000FB9BFC8EB090400234C464346089A01211A4450469944089200F01FFD064602E0099DC3
:4054C0000C9E4C465CB1089B002B08DDA342089AA8BF2346C3EB0909E41AD31A0893099B002B1DDD0C9BABB185B131462A46504600F09CFD059A01460646504600F005FD51
:4055000005990746504600F058FC0597099B5A1B06D000E0099A0599504600F087FD05900121504600F0E8FC0D9B05465BB31A460146504600F07AFD209B012B054618DC04
:40554000029B83B9039BC3F3130373B9039B23F000473F0D3F054FB1089B013309F101090893012702E0002700E0029F0D9B73B100E000272B6905EB8303186900F06FFC53
:40558000C0F1200004E0209B012BD9DD0D9F0120089B184410F01F000ED0C0F12003042B08DDC0F11C0008E060790810000014400000244006D018461C30089B034481445B
:4055C00004440893B9F1000F05DD4A460599504600F07AFD0590089B002B05DD29461A46504600F071FD0546109BEBB12946059800F0BBFD002817DA00230A220599504618
:4056000000F0F2FB0C9B05900BF1FF3B002B00F05881002331460A22504600F0E5FB069B002B064637DC33E0B8F1000F2ADC209B022B27DDCDF81880069B83B92946052243
:40564000504600F0D1FB01460546059800F08DFD00280DDC03E03D4600E000252E46219B079C6FEA030B0AE0DDF828B03D463E46079B079A5C1C312313700BF1010BB0464B
:405680000026F7E00C9BCDF8188023B9079CB1E0209B022BD0DC002C05DD31462246504600F012FD06469FB17168504600F050FB326902320446920006F10C010C30FEF79D
:4056C00007FD01222146504600F0FEFC804600E0B046029BDDF81C9003F00103089329460598FFF7D1FA3146044600F13007059800F03BFD424602902946504600F051FD78
:40570000C36802463BB901460990059800F02DFD099A034600E0012311465046099300F04CFB099B4BB9209A3AB9089A2AB9392F28D0029B002B1ADC1BE0029A002A04DB23
:405740001AD1209AC2B9089AB2B9002B11DD01220599504600F0B8FC2946059000F005FD002802DC05D1FA0703D5392F0AD004F1310709F101040CE0002B09F101040BDDD1
:40578000392F05D1392389F8003009F1010954E0013789F800706DE0079B069A04F8017CE31A9342A1463AD000230A220599504600F01AFB464505904FF000034FF00A023D
:4057C0003146504604D100F00FFB0646804686E700F00AFB4146064600230A22504600F003FB80467BE700230A220599504600F0FBFA059029460598FFF746FA00F1300724
:4058000004F8017B079B069AE31A9342EBDB079B012AACBF9B180133B0469946002601220599504600F050FC2946059000F09DFC002802DC15D1FB0713D54C4614F8013C2B
:40584000392B04F1FF3209D1079B934204D10BF1010B3123079A02E01446EFE70133137008E04C4614F8013C302B04F1FF3201D11446F7E72946504600F09FFAB8F1000F1E
:405880000DD02EB1464503D03146504600F095FA4146504600F091FA01E0DDF828B00599504600F08AFA0023229A23700BF101031360249B1BB11C6001E008480AE00798CE
:4058C00008E0069B002B3FF7E1AE209B022B7FF7DDAEB1E617B0BDE8F08F00BF8C7808108A892DE9F041054610070C4659D44B68002B02DC0B6C002B17DDE66AAEB102F4B7
:405900008052002392B22F682B600AB1606D15E0216A01232846B047411C0FD12B686BB11D2B01D0162B03D12F600020BDE8F081A38943F04003A381BDE8F081A3895A0733
:4059400005D56368C01A636B0BB1236CC01A00230246E66A216A2846B047431CA38906D129681D293AD8214ACA40D60736D500226260D9042269226004D5421C01D12B68F8
:4059800003B96065616B2F600029CED004F14403994202D0284600F0BFFC00206063BDE8F0810F69002FC0D093070E6808BF4B690F6018BF0023C7EB06088B6002E0074446
:4059C000C0EB0808B8F1000FAFDD43463A46216AA66A2846B0470028F1DCA38943F04003A3814FF0FF30BDE8F08100BF0100402038B50B6905460C46DBB118B183690BB93D
:405A000000F060F80C4B9C4201D16C6808E00B4B9C4201D1AC6803E0094B9C4208BFEC68B4F90C302BB121462846BDE83840FFF757BF002038BD00BFC0780810E0780810BA
:405A400000790810014900F0A9B800BFF1590810002310B5044603604360836081814366C281036143618361194608225C30FEF73AFB054B6362054BA362054BE362054B56
:405A80002462236310BD00BF1D6708103F670810776708109B67081070B568234D1E5D430E4605F1740100F085FC044640B1002180E842000C30A06005F16802FEF713FB54
:405AC000204670BD836910B5044633BB8364C3640365124B124A1B688262984204BF0123836100F01FF86060204600F01BF8A060204600F017F80022E06004216068FFF715
:405B0000A7FF01220921A068FFF7A2FF02221221E068FFF79DFF0123A36110BD78780810455A0810F8B51C4B1E68B369074613B93046FFF7C7FF4836B4687368013B04D464
:405B4000B4F90C507DB16834F8E733680BB13668F2E704213846FFF79FFF30600028F6D10C233B60F8BD4FF6FF73E3810123A38165662560A560656025616561A561082277
:405B8000294604F15C00FEF7AEFA6563A563A564E5642046F8BD00BF787808102DE9F8438046894600F14804002694B1A5686768013F0CD4AB89012B07D9B5F90E3001339A
:405BC00003D029464046C84706436835F0E72468EBE73046BDE8F883004870472043020870B50E46B1F90E10002990B014461D4606DA00232B60B3891A060ED540230EE02C
:405C000001AA00F0F1FD0028F3DB029A02F47042A2F500535A425A412A604FF480630020236010B070BD00008B8973B59E0705460C4610D401AB6A46FFF7D2FF00990646D6
:405C4000284600F0B7FB68B9B4F90C309A0522D443F00203A38104F14703236023610123636118E00D4BAB62A389206043F08003A381009B6361019B20614BB1B4F90E10C5
:405C8000284600F0C3FD18B1A38943F00103A381A0893043A08102B070BD00BF455A0810024B0146186800F085BB00BF1C43020801F0FF01102A2BDB10F0070F08D010F8D1
:405CC000013B013A8B422DD010F0070F42B3F6D1F0B441EA012141EA014122F007047FF000070023F0E80256083C85EA010586EA010685FA47F5A3FA87F586FA47F6A5FAED
:405D000087F68EB9EED1F0BC01F0FF0102F0070232B110F8013B013A83EA010313B1F8D10020704701387047002D06BF35460338073815F0010F07D1013015F4807F02BF53
:405D4000013015F4C03F0130F0BC0138704700BF70B5456A04460E463DB91020FFF7A0FF6062456085600560C560656AEB6843B1636ADB6853F8260078B1026843F82620B0
:405D800017E021220421204600F0B8FA636AE860DB68002BECD1002070BD012101FA06F56A1D9200204600F0A9FA0028F3D04660856000230361C36070BD70B5446A064659
:405DC0000D463CB91020FFF76BFF7062446084600460C4603DB1736A6A68DB6853F82210296043F8225070BD2DE9F0410D691F4606460C4601F1140E0023DEF8000081B229
:405E000002FB01710F0C000C02FB007089B2013301EB00419D424FEA10474EF8041BECDCD7B1A3689D4212DB616830460131FFF78FFF2269023204F10C01804692000C307E
:405E4000FEF746F921463046FFF7B7FF444604EB850301355F6125612046BDE8F081030C1B0413B90004102300E0002310F07F4F04BF0002083310F0704F04BF00010433B0
:405E800010F0404F04BF80000233002803DB420003D5581C70471846704720207047036813F007020BD0D90722D49A074BBF5B089B08036003604CBF01200220704799B295
:405EC00009B91B0C102213F0FF0F04BF1B0A0832190704BF1B090432990704BF9B080232D90702D45B0805D00132036010467047002070472020704710B50C460121FFF74F
:405F000027FF01224461026110BD2DE9F74F14460A6923699A42B8BF0B468846BCBFA0461C46D8F81070D4F81090D8F80830D8F8041007EB09069E42C8BF0131FFF708FF1A
:405F400000F1140505EB860C2B460022634502D243F8042BFAE704F1140208F1140102EB890301EB87070093009B0192934257D9B2F800B0BBF1000F23D08946AE464FF05F
:405F8000000859F8044BBEF800A0A3B20BFB03A34FEA144ADEF8004043444FEA14480BFB0A8404EB1344F2469BB243EA04434F454FEA14484AF8043B01D9D646E1E7CEF818
:405FC0000480019BB3F802A00432BAF1000F21D02B682C4689464FF00008B9F800E0B4F802B00AFB0EBEF044A3469BB243EA08434BF8043B59F8043BB4F804E01B0C0AFBC8
:4060000003E303EB18434F454FEA134801D95C46E3E763600435A7E75CF8043D13B9013E002EF9DC066103B0BDE8F08F2DE9F843154612F0030206460F4607D0013A214C85
:40604000002354F82220FFF7CFFE0746AD1036D0746A3CB91020FFF723FE7062446084600460C460D6F82480D8F808404CB940F271213046FFF740FF0023C8F8080004466D
:4060800003604FF00008EB070AD5394622463046FFF73BFF394681463046FFF78EFE4F466D100CD0206808B10446ECE7224621463046FFF72AFF2060C0F80080F4E73846D9
:4060C000BDE8F883287908102DE9F0470C464FEA621A26694968A368564407469146751CAB4202DA01315B00FAE73846FFF730FE0023804600F114011A46534503DA41F803
:4061000023200133F9E72AEAEA73206901EB830319F01F0904F1140101EB800E14D0C9F1200C0022086800FA09F002439A4643F8042B51F8042B8E4522FA0CF2F2D8CAF818
:40614000042042B1B51C06E0043B51F8042B43F8042F8E45F9D8013D3846C8F810502146FFF72BFE4046BDE8F08703690A699B1A10B511D192001430143183180A4453F8FA
:40618000044D52F8041D8C4202D007D3012010BD9842F4D3002010BD184610BD4FF0FF3010BD2DE9F8430C460746114620461546FFF7DBFF061E08D131463846FFF7C8FD42
:4061C000012303614661BDE8F883BCBF23462C4638466168BABF1D4601260026FFF7B8FD2B69C660266905F11409143404EB860709EB830800F114054FF0000C54F8043B60
:4062000059F8042B1CFA83F11FFA82FE120CCEEB0101C2EB134303EB214389B24FEA234CC84541EA0343A64645F8043BE6D8BE450ED25EF8041B1CFA81F2131403EB1143BC
:4062400092B242EA03424FEA234C45F8042BEEE755F8043D0BB9013EFAE70661BDE8F8832DE9F34101211C46089E099D9046FFF76FFDC4F31303C4F30A5407460CB143F412
:4062800080130193B8F1000F19D002A840F8088DFFF705FE009B48B1019AC0F1200102FA01F10B43C2407B61019200E07B61019BBB61002B14BF02210121396107E001A817
:4062C000FFF7EDFD019B7B6101213961203034B1A4F2334404443460C0F1350009E007EB8103A0F2324030601869FFF7B8FDC0EB41102860384602B0BDE8F08138B502FBB3
:4063000001F4214600F056F8054618B122460021FDF7E9FE284638BD38B50546002946D051F8043C0C1F002BB8BFE41800F090FA1F4A1368114613B96360146032E0A34270
:406340000ED92268A018834204BF18685B68636004BF121822600C6024E0A24203D813465A68002AF9D118681918A1420BD12168014458188242196014D1106852685A60FD
:40638000014419600EE002D90C232B600AE021686018824204BF10685268626004BF091821605C602846BDE8384000F052BA38BDEC4C020870B5CD1C25F0030508350C2DB6
:4063C00038BF0C25002D064601DBA94202D90C23336046E000F03CFA234B1C681A462146A1B10B685B1B0ED40B2B03D90B60CC18CD501EE08C420DBF63684B6863601360AC
:4064000018BF0C4615E00C464968E9E7174C23681BB9304600F072F920602946304600F06DF9431C18D0C41C24F00304A0420DD12560304600F00DFA04F10B00231D20F0D9
:406440000700C31A0ED05A42E25070BD211A304600F054F90130EBD10C233360304600F0F8F9002070BD00BFEC4C0208E84C02089368013B002B10B4936009DA9469A34201
:4064800002DBCBB20A2B03D15DF8044BFEF73ABB1368581C10601970C8B25DF8044B7047F8B506460F461446D518AC4208D03A4614F8011B3046FFF7DBFF431CF5D100E0E0
:4064C0000020F8BD2DE9F04F9DB00C4617460393064618B183690BB9FFF7F4FA7F4B9C4201D1746808E07E4B9C4201D1B46803E07C4B9C4208BFF468A38918070CD5236901
:4065000053B10023099320238DF8293030238DF82A30DFF8D4B144E021463046FEF746FB0028EED04FF0FF30D5E0039A111D12680391002A80F28C80524243F002000792C6
:40654000049098F800302E2B00F08480032298F800106548FFF7ACFB48B14023CBEB000003FA00F0049B1843049008F1010898F800105E488DF82810062208F10107FFF7BA
:4065800097FB002800F09580594B002B40F08880039B073323F0070308330393099B53440993B846454615F8013B1BB9B8EB07090FD003E0252BF9D0A846F3E74B463A466B
:4065C00021463046FFF76CFF01307FD0099B4B44099398F80030002B78D000234FF0FF3204930793059206938DF853301A930127052229783F48FFF75BFB05F10108049BD1
:4066000038B13C4A801A07FA00F0184304904546EEE7D90644BF20228DF853201A0744BF2B228DF853202A782A2A3FF47EAF079A00210A20A846013598F80030303B092BC7
:4066400003D800FB02320121F4E700293FF479AF079276E798F801302A2B0BD1039B1A1D1B680392002BB8BF4FF0FF3308F1020805936BE70023059308F1010019460A2577
:406680008046013098F80020303A092A03D805FB01210123F4E7002B3FF458AF059155E703AB00932246144B04A93046FDF7B4FD07E003AB009322460F4B04A93046FEF791
:4066C00065F8B0F1FF3F82467FF468AFA3895B063FF528AF09981DB0BDE8F08FC0780810E0780810007908102E7A0810327A081019420810287A0810A164081038B5064C84
:40670000002305460846236000F09CF9431C02D1236803B12B6038BDA051020810B50C46B1F90E1000F096F80028ABBF636DA3891B1823F48053ACBF6365A38110BD2DE967
:40674000F0411F468B89DB0505460C46164605D502230022B1F90E1000F068F8A389B4F90E1023F48053A38132463B462846BDE8F04100F017B810B50C46B1F90E1000F08D
:4067800055F8431CA38915BF606523F4805343F48053A38118BFA38110BDB1F90E1000F013B8000038B5074C054608461146002222601A46FCF7CEFD431C02D1236803B1A2
:4067C0002B6038BDA051020838B5064C002305460846236000F016F9431C02D1236803B12B6038BDA051020838B5074C0023054608461146236000F00DF9431C02D123682C
:4068000003B12B6038BD00BFA051020838B5064C002305460846236000F004F9431C02D1236803B12B6038BDA051020838B5074C054608461146002222601A4600F0FAF8FD
:40684000431C02D1236803B12B6038BDA05102087047704738B5074C054608461146002222601A46FCF788FD431C02D1236803B12B6038BDA05102084FF0FF3C06E000BF07
:406880004FF0010C02E000BF4FF0010C4DF804CD4FEA410C7FEA6C5C4FEA430C18BF7FEA6C5C1BD001B050EA410C0CBF52EA430C91EA030F02BF90EA020F0020704710F118
:4068C000000F91EA030F58BF994208BF90422CBFD8176FEAE37040F0010070474FEA410C7FEA6C5C02D150EA013C07D14FEA430C7FEA6C5CD6D152EA033CD3D05DF8040B48
:40690000704700BF8446104662468C461946634600E000BF01B5FFF7B7FF002848BF10F1000F01BD4DF808EDFFF7F4FF0CBF012000205DF808FB00BF4DF808EDFFF7EAFFE2
:4069400034BF012000205DF808FB00BF4DF808EDFFF7E0FF94BF012000205DF808FB00BF4DF808EDFFF7CEFF94BF012000205DF808FB00BF4DF808EDFFF7C4FF34BF012063
:4069800000205DF808FB00BF4FEA410C7FEA6C5C02D150EA013C0AD14FEA430C7FEA6C5C02D152EA033C02D14FF0000070474FF0010070474FEA410212F5001215D211D59B
:4069C0006FF47873B3EB625212D94FEAC12343F0004343EA505311F0004F23FA02F018BF404270474FF00000704750EA013005D111F0004008BF6FF0004070474FF0000066
:406A0000704700BF024B58221A604FF0FF307047A0510208024B58221A604FF0FF307047A0510208024B58221A600020704700BFA0510208024B58221A604FF0FF307047E6
:406A4000A0510208044A05491368002B08BF0B461844106018467047F04C0208A85102082DE9F0418AB004460D4600F079F8374B93F90080B8F1FF3F06460F460DD02246BD
:406A80002B4620462946FFF77FFF30B90022002320462946FFF76EFF20B1304639460AB0BDE8F0812A4B0890CDE90245CDE904450193B8F1000F19D1264F4FF06046204621
:406AC000294600220023CDE90667FFF72BFF002834D002230093684600F036FAA8B1089BC3B9DDE906010AB0BDE8F0811A4F00262046294600220023CDE90667FFF712FF05
:406B000068B1022398450093E5D100F025FA22230360E4E700F020FA089B0360E1E70123B8F1020F00930BD100F016FA212303600A4800F00BFACDE90601D0E70123009331
:406B4000684600F001FA0028F2D1EDE7584302083C7A0810FFFFEFC70000F0FF847108102DE9F04FB1F5801F85B006460F460B465ADA024621F00044224300F0F880002912
:406B8000C0F27A810022D64BFDF740F80B460F46D4498B4206466FF035024ADCC3F3130505F5152404F6647404F4801E8EF07F5181F440111B15A3F2FF3341EA05079C18C2
:406BC00030460022C84B394604EB1E54FCF76AFEAB1CC3F31303022B82468B464FF0000230DC0023FFF79EFE002800F0C980002C00F04B812046FCF7A3FFA5A3D3E90023E9
:406C000006460F46FDF702F8A3A3D3E9002304460D4630463946FCF7F9FF02460B4620462946FCF741FE0AE0AE498B424FF00002B4DD32463B4630463946FCF735FE05B03A
:406C4000BDE8F08F4FF08043FCF72EFE02460B4650465946FDF704F9064620460F46FCF76FFF3246CDE900013B4630463946CDE90267FCF7CBFF02460B4680468946FCF706
:406C8000C5FF87A3D3E9002306460F46FCF7BEFF85A3D3E90023FCF707FE32463B46FCF7B5FF83A3D3E90023FCF7FEFD32463B46FCF7ACFF80A3D3E90023FCF7F5FD42461E
:406CC0004B46FCF7A3FF7EA3D3E900238046894630463946FCF79AFF7BA3D3E90023FCF7E3FD32463B46FCF791FF79A3D3E90023FCF7DAFD32463B46FCF788FF0B4602463B
:406D000049464046FCF7D0FDA5F5C223C5F5D725A3F27A4351351D43002D8046894656DD0022724B50465946FCF770FF52465B46FCF76CFF06460F46002C68D132463B4610
:406D400040464946FCF7B0FDDDE90223FCF75EFF02460B4630463946FCF7A4FD02460B4650465946FCF79EFD05B0BDE8F08F0022002300205E49FDF773F805B0BDE8F08F88
:406D800055A3D3E9002350465946FCF73FFF02460B4600205549FCF785FD524606460F465B4650465946FCF731FF02460B4630463946FCF72BFF06460F46002C40F09A80D6
:406DC00002460B4650465946FCF76CFD37E7002C00F0A4802EA3D3E90023DDE90001FCF715FF42464B4604460D4650465946FCF759FDDDE90223FCF709FF27A3D3E90023CA
:406E000006460F46DDE90001FCF700FF21E020A3D3E90023DDE90001FCF7F8FE32463B4604460D4640464946FCF73EFDDDE90223FCF7ECFE18A3D3E9002380468946DDE90F
:406E40000001FCF7E3FE02460B4640464946FCF72BFD02460B4630463946FCF723FD52465B46FCF71FFD02460B4620462946FCF719FD05B0BDE8F08F02460B46FCF712FDA0
:406E800000220023FCF7ECFFD9E600200021D6E60000E0FE422EE63F763C7935EF39EA3D44523EDF12F1C23FDE03CB966446C73F599322942449D23F935555555555E53FA8
:406EC0009FC678D0099AC33FAF788E1DC571CC3F04FA97999999D93F555555555555D53F00005043FFFFEF7F0000F03F0000E03F000050C32046FCF723FE0FA3D3E9002338
:406F000080468946FCF782FE0DA3D3E9002304460D4640464946FCF779FE9AE702460B4650465946FCF7BEFCDDE90223FCF76EFE14E700BFAFF300800000E0FE422EE63F09
:406F4000763C7935EF39EA3D0020704700200149704700BF0000F87F014B1868704700BF1C430208F8B500BFF8BC08BC9E467047F8B500BFF8BC08BC9E46704700070E096D
:406F80001C1B1215383F363124232A2D70777E796C6B6265484F464154535A5DE0E7EEE9FCFBF2F5D8DFD6D1C4C3CACD90979E998C8B8285A8AFA6A1B4B3BABDC7C0C9CEF1
:406FC000DBDCD5D2FFF8F1F6E3E4EDEAB7B0B9BEABACA5A28F88818693949D9A2720292E3B3C35321F18111603040D0A5750595E4B4C45426F68616673747D7A898E8780B1
:4070000095929B9CB1B6BFB8ADAAA3A4F9FEF7F0E5E2EBECC1C6CFC8DDDAD3D4696E676075727B7C51565F584D4A4344191E171005020B0C21262F283D3A33344E49404770
:4070400052555C5B7671787F6A6D64633E39303722252C2B0601080F1A1D1413AEA9A0A7B2B5BCBB9691989F8A8D8483DED9D0D7C2C5CCCBE6E1E8EFFAFDF4F3030000004B
:4070800001000000020000001B000000020000000000000000000000000000001A00000002000000540000000200000047656E6572617465645F536F757263655C50536F71
:4070C00043362F4144432E68000000006572726F723A20436F6E76657273696F6E206E6F742066696E697368656420796574210057616974696E6720666F7220707265765B
:40710000696F7573207472616E736D697373696F6E20746F20636F6D706C6574650D00000D0A6572726F723A2054782073746174757320307825780D0A0000000D0A0A6F85
:4071400070636F64653A2025642C206C656E6774683A2025642C206372633A20307825780D0A0000496E697469616C697A696E672041445044313038302073656E736F728F
:407180002E2E2E0D000000006572726F723A2041445044313038302073656E736F7220696E697469616C697A6174696F6E206661696C6564210D000041445044313038307B
:4071C0002073656E736F7220696E697469616C697A6174696F6E207375636365737366756C2E0D006572726F723A2041455320456E6372797074696F6E206661696C656405
:40720000210D00000D0000003078253032582000257300000300000001000000010000000000000005036000040000000100000000000000010000000604600008000000EF
