:020000041000EA
:4000000000400208230100100D00000085010010000000000000000000000000000000000000000000000000000000008101001000000000000000008101001081010010E9
:400040008101001081010010810100108101001081010010810100108101001081010010810100108101001081010010810100108101001081010010810100108101001060
:400080008101001081010010810100108101001081010010810100108101001081010010810100108101001081010010810100108101001081010010810100108101001020
:4000C00010B5064C2378002B07D1054B002B02D0044800E000BF0123237010BD3C0600080000000008310010084B10B5002B03D00749084800E000BF07480368002B00D1F1
:4001000010BD064B002BFBD09847F9E7000000004006000808310010E8000008000000007047FFF7FDFF72B60F4C104DAC4209DA21686268A368043B02DBC858D050FAE770
:400140000C34F3E70A490B4A0020521A02DD043A8850FCDC084809490860BFF34F8F00F005F900F01DF8FEE70C310010243100103C060008140800080000000808ED00E0F5
:40018000FEE7FEE700B504207146084202D0EFF3098001E0EFF30880043001F0D1FAFEE710B562B6014800F067F9FEE70000081010B5002001F040F810BDC04670B562491A
:4001C000E0239B00CB580F2213401A00D0329200525807210A40032A05D0042A06D0002A12D15A4814E05A4A106811E01A00C0329200554952581F210A40112A06D0132A7C
:4002000004D0FA20C00103E0524801E080200002002B36D14C4BB222D2009A5801211140B125ED005A59120F032422405B591B0F1C4207D0444C63591B0F03242340012BDC
:4002400002D102E0012300E00023002B01D0002901D1032A4BD13C4BB022D2009D58AD03AD0B3D495958C904C90C9C58240E01231C40013401F06CFD6843210001F068FDAA
:4002800035E0012B33D1304BC822D2009A5801251540C024E4001A59120F03210A401B591B0F194207D028490B591B0F03210B40012B02D102E0012300E00023002B01D049
:4002C000002D01D1032A12D11F4DC022D200AB587F210B40A958090A1F263140AC58240C3440584301F034FD210001F031FDE0239B00154AD3581B0903221340D840144C36
:400300006060164B1D692D0AFC32154001351969090E013101F01CFDA060290001F018FD0500E06020610E4BC0180E4901F010FD20750D4BE818FA21890001F009FDA0614D
:40034000C003E06170BDC0460000264000127A00C000000800366E0184050000000021403F420F0040420F00E703000010B5284801F0E8FC274CB022D200A3585B005B0818
:40038000A350E0218900635830208343635080235B04A350204A214BE250A02292010433E250FF221E4BE25001F0BAFCC0225200A35801218B43A35000F040FAFFF7FEFEF0
:4003C000B0235B055B78002B04D0B0235B055B78DBB200E02123212B03D1124B0022DA605A60114C22008021042000F0CBFC2000103000F05FFD0D4B1A685123D35C002B5F
:4004000002D00B4800F0CCFD00F094FB10BDC046503000100000264001000200840500008C050000E00023405806000810080008C81E00108023024AD3580320184070476E
:400440000000214010B501F00CFA084980228C58074B2340074C23438B508823034AD358DB06FAD501F001FA10BDC04600002140FCFF00000100FA0570B50500830504D0CB
:40048000E821FF310F4801F02DF901F0EAF90400FFF7D0FF032801D1FFF7D4FF0A4AB0239B00D55080215058084B03400848034353508823044AD358DB06FAD5200001F04E
:4004C000D4F970BDFC1E001000002140FCFF00000300FA05FEE7C046F0B50025002711E0BB00C658F3B2FF22964308E06A008A181478A419527822700135013BDBB2002B72
:40050000F4D10137062FEBD9F0BDC04680231B060B4A1360902292030A490A600A490A60C0210901094A1160094A1360094B0A4A13600A4A13600A4A0A4B1A607047C0468E
:40054000000010418000104188001041C400104100001D4178004D0000031D4144031D4101001180000E1F4110B50A00002101F084FC10BD10B501F077FC10BD30B587B002
:400580009D49A022D2008B58032083438B509B4A116808688823CB58C31818689849084018601368186884241B59C01803681B021B0A80256D042B430360106805680359BE
:4005C000EB1818680140196013683E229A5C002A06D08948E02189004258753CA24342503E229A5C002A06D08348E021890042583024A24342503E229B5C002B07D07E49A0
:40060000E02292008B588020000603438B500021012000F043FE0021022000F03FFE0021032000F03BFE0021042000F037FE0021002000F033FE01A8724903000A0032CAF3
:4006400032C312CA12C300F057FE002802D00420FFF740FF68496C4A8B588020000603438B506A4800F004FF002802D00420FFF731FF614C664BE158664A0A40E250E15846
:40068000654A0A40E250E25880252D062A43E250043BE158614A0A40E250E158604A0A40802189010A43E250E258802109020A43E2505C4A11685C4B0B40802149000B433A
:4006C0001360002001F00EFB584BE2581543E550E158012291430A43E2506421002001F047F8464B1B683F229A5C052A06D970229A5C01210A404E49986842509A68742152
:400700005B5AD21851683E4B0B408C2189010B4353603A4B1B6873229A5C0321914070229A5C7220185C140084402143012002400A43802109060A438021C900986842505A
:400740009A6852583F229A5C392A06D970229A5C02210A403749986842509A6874215B5AD2189168264B0B40C42189010B439360224B1B6873229A5C0321914070229A5C9A
:400780007220185C140084402143022002400A43802109060A438021C900986842509A6852583F229A5C092A03D90021224A986881509A6874215B5AD2181168104B0B4088
:4007C000F02149010B4313600C4B1A687323D15C703B8B4019007023D35C7220105C83400B43802109060B438021C9009068435093685B5807B030BD000026401008000816
:40080000FF00FFFF141F0010087F0000400D030004050000FEFCFFFFFFFF00FFFFF0FFFFFF8FFFFF00002740FFFCFFFF0C050000140C0000E40C0000240C000070B58AB01A
:400840009621002000F094FF00F06AFF002814D100F056FFC0235B004D4AD358DB0705D411004C4A8B585B005B088B504849494A8B588020000603438B50012001F0CAF9F2
:40088000454A516C454B0B40E82189010B435364536C1B0AFF2213403A2B07D13E4A516C3F4B0B40E82189010B435364FFF766FE3C4A3D4B1A6000240CE062001219530060
:4008C0003A4AD318198B9A8AD88A00041043FFF74BFE01340B2CF0D900240AE0620012199300324AD3185A6E196ED86DFFF742FE0134112CF2D92E4D28005C302D493431EE
:40090000FFF7EAFD01232C4A13602C4A13602C4A1368832149000B43136001AC22002B00783323CB23C223CB23C223CB23C22100244800F007F9244D22002B001C3343CB8F
:4009400043C243CB43C243CB43C221001F4800F0F9F822002B00403343CB43C243CB43C243CB43C221001A4800F0ECF822002B00643323CB23C223CB23C223CB23C2210015
:40098000144800F0DFF8FFF7C1FD0AB070BDC046000026400C05000000002740FF00FFFFFFC5FFDF0300FA05F0012140141F0010942200101420001004793440087934406F
:4009C000007934408002324014230010000332408004324000053240214B984230D00ED8402831D004D800281FD010282AD031E080282BD080235B00984229D02AE0194B40
:400A0000984229D007D8A0231B0698420DD0164B984212D01EE0154B98420AD0144B984209D0144B984215D101E0002016E0124814E0124812E0124810E0A020C0030DE0BE
:400A400007480BE00F4809E00F4807E00F4805E0034803E00E4801E0A420C0037047C04606005200010000F0090000A0040000F0050000F0030000F0010052000200520064
:400A800003005200010050000200500005005200FF00520070B5124B1A683123D35C002B04D1C421FF310F4800F01CFE0C4B1D682C00B423EB582A6A944663441B68002BB4
:400AC0000BDB094B1868FFF787FF6B6801229A6063689B68002BFBD100E0044870BDC04610080008CC2C0010E80700080200500010B50D4B1861002805D002230370FD33E0
:400B0000437000234380094B1B6850229A5C002A08D051229B5C002B04D04F3A0449002000F0F8FA10BDC046E8070008100800086101000810B502481430FFF7D9FF10BD58
:400B4000E807000870B505000C0000285DD000295DD0FF230A689A4303D099212D4800F0C1FDFF2322699A4303D09A21294800F0B9FDA3685B0D03D09B21264800F0B2FD3E
:400B800063685B0A03D09C21224800F0ABFDE3695B0F03D09D211F4800F0A4FD236A5B0F03D09E211B4800F09DFD1B4A11688B69EB1ADB0949691B01CB18216829607D21A2
:400BC0001068415C6918E06808607E211068415C6918206908607F211068415C6918606908607C211068415C6918A06808606168A961116880228A5CAD18A2692A60E26906
:400C00001A60226A5A60002002E0044800E0034870BDC0460C2D00101008000801005A0070B504000D000A4B1A68B423D3581B181B68002B0ADA0B0C03D00649064800F039
:400C400051FD2D042D0C6560002000E0034870BD10080008D50200008C2D001001008A0070B505000C000368002B01DA002300E0084B002B0BD1EA60230C03D00649074846
:400C800000F030FD2404240CAC60002000E0014870BDC04601008A00BB0200008C2D001070B505000C1E03D19921084800F01AFD074B1A68B423D3585B191B68002B03DA18
:400CC000EB682360002000E0024870BDCC2D00101008000801008A0070B504000D00234B1A683123D35C834236D9002936D00B68DB0635D13123D35C984204D3C421FF31A4
:400D00001B4800F0EFFC194B1B681A6AB0215B5A5C431419174E34602B68DA080021686801F0ABF800212000FFF77AFF3468002D03D111490E4800F0D5FC2A00002120009C
:400D4000FFF78EFF00280DD10A4B18680021FFF767FF002808D108E0084806E0074804E0064802E0064800E0054870BD100800088C2D0010000800089303000003018A0051
:400D800001018A0010B50400002A17D1002915D1124B1A683123D35C984204D3C421FF310F4800F09FFC0D4B1B681A6AB0215B5A5C4314190B4B1C6000200EE0002A09D01F
:400DC000002909D0074B59609A60191D2000FFF783FF02E0044800E0034810BD100800088C2D00100008000803018A00F0B583B00D001C4B1B68DC68236883422DD94709B8
:400E00007B01C01A012383401E00002903D100F028FD019001E000230193124B18680368002B01DA002300E00F4B002B0ED16368BF00DF193B68334203D0B3433B60002445
:400E400000E00A4C0021FFF7EBFE00E0084C002D04D1019800F009FD00E0064C200003B0F0BDC0460008000801008A00020188000301880004018A000A4B1B68DA681368E9
:400E800083420BD943095901401A0121814052689B009B580B4203D0034802E0034800E003487047000800080101880004018A0000018800034B1B68002B01D1014B1860A0
:400EC0007047C0460C080008F0B5474680B404000F0090461E002D4B1B68002B03D1B5212B4800F0FFFB294B1B682C2060431C18FF22150035402560330A13406360360CA0
:400F0000A660244B1A683123D35C9D4204D3C421FF31214800F0E6FB1E4B1A68B023D35A6B43116A8C466344236166683223D35C9E4204D3E021FF31174800F0D3FB154B6A
:400F40001B681D6A80367601AD196561A668330C04D0FF214900104800F0C4FB330C03D00E490D4800F0BEFB3604330C1E43AE604346E36127620023A361069B002B02D0B3
:400F800000229B5EA38104BC9046F0BD0C0800080C2E0010100800088C2D0010FF010000F0B58FB0041E03D15221294800F09AFB6368032B03D95421254800F093FBE36A9B
:400FC000002B03D15821224800F08CFB236B002B03D159211E4800F085FB07AA1300210061C961C321C921C302AD290023001433C1CBC1C141CB41C10821535E0CAE338015
:40100000144B1B6836215B5E07998C466344B370089B0D930B9B0A980096A26AE16AFFF753FF2B69E868002200920021FFF74CFF216B300000F0E8FA0023F25E002A05DBBD
:401040001F231A401E3B9340034A13600FB0F0BD0C2E00101008000800E100E0F8B505000F0016001C00002A03D1FD21224800F039FB224B1B68002B03D1FE211E4800F050
:4010800031FB1E4B1B682C2128004843181879435918012213004D68AB401B044568AA4015000269002A20D08F69002F1FD11268002A01DA002200E0114A002A19D13268F4
:4010C0001204120C134333600369DE6001238B614C6204692B0C03D00A490B4800F002FB2A04120CA260002004E0084802E0084800E00748F8BDC0460C2E00100C0800083D
:4011000001008A00BB0200008C2D001004028A0007028A0070B504000D0016000F4B1B68002B04D1AF2149000D4800F0DBFA0B4B1B682C2060431C18236A002B04D1B121C4
:401140004900074800F0CEFAE369B34204D9236AB6009D51002000E0024870BD0C0800080C2E00100A028A0070B582B0040000230193002804D1D221FF312D4800F0B2FA1A
:401180002369002B04D1E9214900294800F0AAFA6369002B04D1D421FF31254800F0A2FA236A002B04D1EA214900214800F09AFA6269D5682B0C24D01B04136013682069CA
:4011C0001C4B1A68B423D358C3181B68002B18DA01A9FFF765FD00280ED1019803681E0CFF221340E269934207D29B00226AD358002B02D0984700E0002631002069FFF701
:401200000FFD2D042D0C0FD063691D601B68636A002B03D098470023636203E0A36A002B00D098470023A36163691B6802B070BD0C2E00101008000810B50400084B1B68D3
:40124000002B04D1B221FF31064800F04BFA044B1B682C2060431818FFF786FF10BDC0460C0800080C2E001010B50400094B1B689B6CC340DB0703D4BE21074800F032FA96
:40128000044B1B681B691034A402E3580F20184010BDC046100800084C2E0010134B1A683C23D35C83421DD9042904D94B1EFF3B9BB2132B18D8FF290CD91F2319400C4A60
:4012C0000300C0339B009950D03080000423835000200AE007231940D0308000044BC150002002E0034800E002487047100800080000264001004A0070B5041E03D14A49E0
:401300004A4800F0EFF9B023DB00494AD358002B00DA87E0474B22689A4203D94649434800F0E0F923689B039B0BE279002A02D08022520400E000221343B022D2003C4915
:401340008B50A2883D4B9A4204D98C218900374800F0C8F922893A4B9A4203D93949334800F0C0F9A388DB04D90C23891B04364A13400B43354A2E498B50A37A0F2B04D953
:401380008E218900294800F0ADF9E37A0F2B03D92F49264800F0A6F9A289284B9A4203D92C49224800F09EF9A37A0F211940E27A1201FF2313400B43A289120226490A407A
:4013C0001343A27B1207C02189050A401343B122D20017498B50A379042B03D91F49134800F080F9228A164B9A4204D9912189000E4800F077F90E4819494558194B1D4052
:40140000A3791B02E022D20013402B4343504558154B1D40238A1B040B4A13402B434350002000E0114870BD1F0200008C2E001000002640FFFF030029020000FF1F00005B
:40144000FF010000310200000000FF0184050000390200003A02000000FF1F00430200008C050000FFF8FFFFFFFF00FE03004A0070B505003149324A8B5880200006034318
:401480008B502C0003E0012000F020F9013CB223DB002A4AD3585B0701D4002CF3D12749B122D2008858274B03408020800503438B50002D01D0002C0CD02049B022D20062
:4014C0008B588020000603438B5003E0012000F0FDF8013CB223DB00184AD358DB0701D4002CF3D1002D01D0002C08D01349B122D2008B58C020800503438B5013E00F4B7F
:40150000B121C90058580F4A02408020800502435A5008395A58520052085A5008495A58520052085A50002D03D0002C03D0002002E0002000E0044870BDC0460000264029
:401540008C050000FFFFFFCF02004A0070B505000C001A4B1B6828229A5C012A15D1820807211000884327D19200AD1AED00FF20A8401B6820339A181168AC4023004B40E6
:40158000184004004C40146016E03A229B5EDBB2994203D176210A4800F0A4F8074B1B681B68072215408022120615438022920194466444A400E55070BDC0461008000808
:4015C000142F001070B504000D000B4B9A680B4B9A420CD1002904D13821FF31084800F081F81034054BA400E058E55003E01034A400044BE05870BD00ED00E000000008C2
:40160000142F001000000010F0B5474680B482B0061E01914AD04368032B03D93221264800F060F80023F05E002804DBB178FFF78DFF002400E0214C0023F15E7368002917
:4016400012DB88081E4FC0308000C55903221140C900FC3290468A4095439A01434613408B402B43C35116E089B20F220A40083A920806329200134810184768032211404F
:40168000C900FF252A008A4097439A012B0013408B403B4343600B4B9A680B4B9A4206D10023F05E0199FFF78DFF00E0034C200002B004BC9046F0BD142F0010010056008E
:4016C00000E100E000ED00E00000000810B5034B1B78584300F0BCF810BDC046D400000801BEFEE770B50D00044C18220100200000F0CBFBA5610020FFF7F2FF000600086E
:40170000054B802212069A649B6C002B01DB002000E002487047C0460000274003004600054B8022120198585B68FF221A4202D08023DB021843704700002640FEE7C046F2
:4017400010B50A4B0268DA6142681A6282685A62C2689A620269DA6242691A6382695A63C2699A63FFF7EAFF10BDC04600060008F0B5474680B4002801D0192300E0642357
:401780008B429B415B42304D2C682268A826A45BA41822680327BA433B401A4322602C682268A45BA2181668284CA046264016602C682668AA229446A25A96193268BA431F
:4017C000134333602A6813686546525BD3181A68444614401C60002805D010291BD921291BD8012024E0184B1B6855229A5C914215D956229A5C914213D957229A5C9142C5
:4018000011D958229A5C91420FD959229B5C99420DD804200CE000200AE0022008E0002006E0012004E0022002E0032000E00520054A1268526813680F218B430343136051
:4018400004BC9046F0BDC04610080008FFFCFFFF0230800803D001300238FCD1C046C0467047EFF3108072B6704780F31088704710B5B0235B059B899BB2002B04D0B02330
:401880005B059B899BB201E080235B0080225200934215D1184C23681968683A9B58C9180B680F208343963A13430B6021680C689C23CB58E318196881430A431A6019E00B
:4018C0000D4C2368196898229B58C918B02040050A4BC2580A4B13400A681343C022920013430B60226811689C23D358CB18054A82581A6010BDC046100800084818000006
:40190000FFFCFFFF4418000030B5B0235B059B899BB2002B04D0B0235B059B899BB201E080235B0080225200934215D1184C23681968683A9B58C9180B680F208343953A7B
:4019400013430B6021680C689C23CB58E318196881430A431A6019E00D4D2B68196898229B58C918B0246405C12040012258094B13400A681343C022920013430B602A68BC
:4019800011689C23D358CB1822581A6030BDC04610080008FFFCFFFFB0235B059B899BB2002B04D0B0235B059B899BB201E080235B008022520093420DD1104B1B681A68B4
:4019C00098215B58D21811680D4B0B40C021C9010B43136011E0094B1B68196898229B58C918084BB0225205D258074B13400A681343C022920013430B6070471008000813
:401A0000FF8FFFFF18180000FFFCFFFF30B5B0235B059B899BB2002B04D0B0235B059B899BB201E080235B008022520093420DD1134B1B681A6898215B58D2181168114BB1
:401A40000B408021C9010B43136018E00C4D2B68196898229B58C918B02464050A4822580A4B13400A681343C022920013430B602A6811689C23D358CB1822581A6030BD95
:401A800010080008FF8FFFFF4C180000FFFCFFFF10B5B0235B059B899BB2002B04D0B0235B059B899BB201E080235B0080225200934217D10020FFF7D7FBB0235B055B7893
:401AC000002B04D0B0235B055B78DBB200E02123222B03D8002803D1013004E0012002E0002000E0012010BDF8B50700012803D93D493E48FFF7F6FDB0235B055B78002B27
:401B000004D0B0235B055B78DBB200E021239DB2B0235B059B899BB2002B04D0B0235B059E89B6B201E0802676000020FFF79CFB002814D180235B009E4212D1222D12D8B5
:401B40002B4B1B685C682B4821582B4B19403B068022520413400B432350002404E0274C02E0264C00E0254C80235B009E4201D1222D03D880235B009E4232D01C4B1A68DD
:401B80003123D35C002B04D1C421FF311C48FFF7A9FD174B1B681D6A80235B009E4203D1002F05D0174A06E0002F03D0164A02E0164A00E0164A01212800FFF751F800288F
:401BC0000FD10B4B1A68B423D3585B191B68002BF7DBEB681B0E1B06A0221206934200D100242000F8BDC0464C0A0000582F00101008000818F00000FFFFFFFE04004200C5
:401C0000CC2C0010010100300300000C010000300100000CF8B50500012804D9822109012948FFF75FFDFFF733FF002849D0FFF718FE0700002D11D10021244B244AD1504B
:401C4000E823DB00B0225205D65CF6B20120FFF74BFF041E19D1FFF70BFE16E0B02252051C4BD0581A4B194958501B49565CF6B21A481A581F218A4314390A431A5003202C
:401C8000FFF724FDFFF7C2FE0024002C15D11049124A8B581F20834306401E438E50002D02D1FFF779FE08E00720FFF70FFDFFF72BFE0020FFF718FF04003800FFF7D5FD31
:401CC00000E0074C2000F8BD582F0010307F00000000264010180000410700001CFF000003004200042805D10B4A116804230B4313600FE0094B1A681168A023D358CB1899
:401D00000006C022920410401860034A136804218B4313607047C04610E000E0100800080749C02252008B589B009B088020C00503438B508B588020000603438B507047F6
:401D400000002640014B18607047C04610080008002243088B4274D303098B425FD3030A8B4244D3030B8B4228D3030C8B420DD3FF22090212BA030C8B4202D31212090275
:401D800065D0030B8B4219D300E0090AC30B8B4201D3CB03C01A5241830B8B4201D38B03C01A5241430B8B4201D34B03C01A5241030B8B4201D30B03C01A5241C30A8B42F2
:401DC00001D3CB02C01A5241830A8B4201D38B02C01A5241430A8B4201D34B02C01A5241030A8B4201D30B02C01A5241CDD2C3098B4201D3CB01C01A524183098B4201D36B
:401E00008B01C01A524143098B4201D34B01C01A524103098B4201D30B01C01A5241C3088B4201D3CB00C01A524183088B4201D38B00C01A524143088B4201D34B00C01A04
:401E40005241411A00D20146524110467047FFE701B5002000F006F802BDC0460029F7D076E770477047C046002310B59A4203D0CC5CC4540133F9E710BD03008218934261
:401E800002D019700133FAE77047030030B5002A0DD00C7801335D1E013A2C700131002CF5D19A189A4202D01C700133FAE730BDF8B5C046F8BC08BC9E467047F8B5C04677
:401EC000F8BC08BC9E4670470300000001000000010000000000000005036000040000000100000000000000010000000604600008000000C8070008B1010010737973747E
:401F0000656D5F70736F63365F636D30706C75732E630000F4010000140004010A00090508000000630100000020344074008020344074000022344074008022344074001B
:401F4000002434407400802434407400002634407400802634407400002834407400802834407400002A34407400802A34407400002134409C23001090000000002334405E
:401F80002C2400109000000000253440BC24001090000000002734404C2500109000000000293440DC25001090000000002B34406C2600109000000000603440FC26001057
:401FC0007C00000080603440782700107C00000000613440F42700107C00000080613440702800107C00000000623440EC2800107C00000080623440682900107C00000008
:4020000000633440E42900107C00000080633440602A00107C00000000643440DC2A00107C00000080643440582B00107C00000000653440D42B00107C0000008065344035
:40204000502C00107C0000001404180F190800280253050406800738080109070A060B080C020D070E010F20107911161204140816101701180319141A101B021D16200807
:4020800021102223230424402510262B2706280B2A102C302E0332F833033407353C36F837033A203B205C045D046301810283048410860888108A088E1090109201950266
:4020C000964F970498109A049C0FA010A202A40FAA0FAB01AC20B106B230B301B440B60FB808BE44C063C402C50BC7DDC831C9FFCA7FCBFFCC42CDA0CE70D00CDC04DD04E8
:40210000DE04E301E509E640E709E830E9090002020C0320071408020A250B400C240D3F0E0211101301162617181A261E261F08200221102208230225042708290F2A10B6
:40214000300E31403210333F3420360139083A023E10404346504702481849FF4AFF4BFF4C424DA04E70500851105C045D045E046301654866406748688069486A806B4858
:40218000870189018F08930297109B069F02A702A910AD01AF04B301B50EB710B980BB20D620D704DD04DF04E30100FF01030340044006130701084609010AA90C2A0D036E
:4021C0000E541033112F120C150119281B021D201F14211F2201248025902656270B280E29202A302B0B2D222F09312032FF33E0371F390A3F055C045D0463018002811C42
:40220000821C8322840C8504860289018B1E8C048D018E0A904E913F928097409806992A9A089B109C219D22A003A118A210A306A532A708A821A906AC4EAD22AE80AF189D
:40224000B020B160B2E0B360B401B61EB71FB82AB980BA80BE05DC04DD04E30101060581070E09020D0611FF1520170E19021D441E011F0A217423082510270E29022D0A42
:402280002FF033FE3501360139203F045C045D04630180E281A5834A8492866087B5880189048C048D028EE0905D92A29301940D97029840994D9A1D9B929E089F04A1FFF6
:4022C000A202A5CCA6FFA713A801A91AAB60AC3DADA9AEC2AF54B0FFB5FFBE01BF10D4F6DC04DD04DF04E301688600011401180103013440602434404E2634405928344094
:40230000462A34400172344003783440030000000000000000000000680000000000000000000000000000001212000000000000000000000000000000000000000000BA9A
:402340000000000000000000000000000000000000001D1D0F00000000000000000000000000000000000000000000000000000004050000000000007E000000000000008D
:4023800000000000C80C00000000000000000000000000000003030000000000000000000000000000000000FFFFFFFFFFFFFFFFFFFFFFFFFFFFFFFFFFFFFFFFFF00000058
:4023C000FFFFFFFFFFFFFFFFFFFFFFFFFFFFFFFFFFFFFFFFFF000000000000000000000000000000000000000000000000000000FFFFFFFFFFFFFFFFFFFFFFFF11111111BA
:402400001111111111111111111111111111111111111111111111111111111111111111111111111111111111111111000000000000000000000000FFFFFFFFFFFFFFFFB8
:40244000FFFFFFFFFFFFFFFFFFFFFFFFFF000000FFFFFFFFFFFFFFFFFFFFFFFFFFFFFFFFFFFFFFFFFF0000000000000000000000000000000000000000000000000000007E
:40248000FFFFFFFFFFFFFFFFFFFFFFFF11111111111111111111111111111111111111111111111111111111111111111111111111111111111111111111111100C0000038
:4024C0000000000000000000571327F30017FF73341463F0FFFFFFFFF2FFFFFFFF0000003F50515300616FFFFFF5FF6F0F766FFFFFFFFFFFFF0000000000000000000000F8
:40250000000000000000000060000000000000FFFFFFFFFFFFFFFFFFFFFFFFFFD41001651114033111711D1611111107163011DD03110133111019113201111D011101116A
:402540001D1114940111101111414121400000000000000000000000FFFFFFFFFFFF65F0341161F3FFFFFF310621FFFFFF000000F2215F55F7F35F10F3633501FF33FFFF48
:40258000FFFFFF0FFF000000000000000000000000000000000000000004000F00000400FFFFFFFFFFFFFFFFFFFFFFFFFF100011130105F11111014F3111010F3FF03CFFAD
:4025C0004F3131FFA1131F111F49111F09110112511114012D111011111111110000000000000000000000006337F5FF02F7733734531253FFFFFFFFFFFFFFFFFF00000054
:40260000303FF133F73523136274333277FFFFFFFFFFFF2FFF000000000000000000000000000000000000000000000010000006FFFFFFFFFFFFFFFFFFFFFFFF4410461413
:40264000110651011C1101411513363F0F031F10F10D33FF111F4F11101F11110111311141111FD111215411351111140000000000000000000000003332202020151033DE
:4026800012331210FFFFFFFFFFFFFFFFFF000000FFFFFF5FFFFF411123331220FFFFF3FFFFFFFFFFFF0000000000000000000000000000000000000000000000000000009D
:4026C000FFFFFFFFFFFFFFFFFFFFFFFFF152F11F119F6187F17121F11F11CF167FCFB51311BF141F111F111113511C11311111111111111111111111111111110000000046
:40270000000000001F1F1F1F1F1F1F1F1F1F1F1F1F1F1F1F1F1F1F1F1F1F1F1F1F1F1F1F1F1F1F1F000000000000000000000000000000000000000000000000FFFFFFFFBD
:40274000FFFFFFFFFFFFFFFF111111111111111111111111111111111111111111111111111111111111111111111111111111111111111111111111000000000000000031
:402780001F1F1F1F1F1F1F1F1F1F1F1F1F1F1F1F1F1F1F1F1F1F1F1F1F1F1F1F1F1F1F1F000000000000000000000000000000000000000000000000FFFFFFFFFFFFFFFF41
:4027C000FFFFFFFF11111111111111111111111111111111111111111111111111111111111111111111111111111111111111111111111100000000000000001F1F1F1F31
:402800001F1F1F1F1F1F1F1F1F1F1F1F1F1F1F1F1F1F1F1F1F1F1F1F1F1F1F1F000000000000000000000000000000000000000000000000FFFFFFFFFFFFFFFFFFFFFFFF40
:4028400011111111111111111111111111111111111111111111111111111111111111111111111111111111111111111111111100000000000000001F1F1F1F1F1F1F1F30
:402880001F1F1F1F1F1F1F1F1F1F1F1F1F1F1F1F041F1F1F1F1F1F1F00000000000000000000000000000000000F000000000000FFFFFFFFFFFFFFFFFFFFFFFF1111111104
:4028C00011111111111111111111111111111111111111111111111111111111111D111111111111111111111111111100000000000000001F1F1F1F1F1F1F1F1F1F1F1F6C
:402900001F1F1F1F1F1F1F1F1F1F1F1F1F1F1F1F1F1F1F1F000000000000000000000000000000000000000000000000FFFFFFFFFFFFFFFFFFFFFFFF1111111111111111AF
:402940001111111111111111111111111111111111111111111111111111111111111111111111111111111100000000000000001F1F1F1F1F1F1F1F1F1F1F1F1F1F1F1FBF
:402980001F1F1F1F1F1F1F1F1F1F1F1F1F1F1F1F000000000000000000000000000000000000000000000000FFFFFFFFFFFFFFFFFFFFFFFF11111111111111111111111167
:4029C00011111111111111111111111111111111111111111111111111111111111111111111111100000000000000001F1F1F1F1F1F1F1F1F1F1F1F1F1F1F1F1F1F1F1F07
:402A00001F1F1F1F1F1F1F1F1F1F1F1F000000000000000000000000000000000000000000000000FFFFFFFFFFFFFFFFFFFFFFFF111111111111111111111111111111111E
:402A4000111111111111111111111111111111111111111111111111111111111111111100000000000000001F1F1F1F1F1F1F1F1F1F1F1F1F1F1F1F1F1F1F1F1F1F1F1F4E
:402A80001F1F1F1F1F1F1F1F000000000000000000000000000000000000000000000000FFFFFFFFFFFFFFFFFFFFFFFF1111111111111111111111111111111111111111D6
:402AC0001111111111111111111111111111111111111111111111111111111100000000000000001F1F1F1F1F1F1F1F1F1F1F1F1F1F1F1F1F1F1F1F1F1F1F1F1F1F1F1F96
:402B00001F1F1F1F000000000000000000000000000000000000000000000004FFFFFFFFFFFFFFFFFFFFFFFF1011111111111111111111111111111111111111111111118A
:402B400011110111111111111111111111111111111111111111111100000000000000001F1F1F1F1F1F1F1F1F1F1F1F1F1F1F1F0C081F1F1F1F1F1F1F1F1F1F1F1F1F1F17
:402B8000000000000000000000000000000000000000000500000F00FFFFFFFFFFFFFFFFFFFFFFFF121111111111111D111111111111111111111111111111111111111124
:402BC000111101111111111111111111111111111111111100000000000000001F1F1F1F1F1F1F1F1F1F1F1F1F1F1F1F1F1F1F1F1F1F1F1F1F1F1F1F1F1F1F1F00000000B1
:402C0000000000000000000000000000000000000000000FFFFFFFFFFFFFFFFFFFFFFFFF111111111111111111111111111111111111111111111111111111111111D111B1
:402C40001111111111111111111111111111111100000000000000001F1F1F1F1F1F1F1F1F1F1F1F1F1F1F1F1F1F1F1F1F1F1F1F1F1F1F1F1F1F1F1F000000000000000064
:402C800000000000000000000000000000000000FFFFFFFFFFFFFFFFFFFFFFFF111111111111111111111111111111111111111111111111111111111111111111111111BC
:402CC00011111111111111111111111147656E6572617465645F536F757263655C50536F43365C70646C5C647269766572732F7065726970686572616C2F6970632F6379FA
:402D00005F6970635F6472762E68000047656E6572617465645F536F757263655C50536F43365C70646C5C647269766572735C7065726970686572616C5C6770696F5C6328
:402D4000795F6770696F2E630000000047656E6572617465645F536F757263655C50536F43365C70646C5C647269766572735C7065726970686572616C5C6770696F5C63AC
:402D8000795F6770696F2E680000000047656E6572617465645F536F757263655C50536F43365C70646C5C647269766572735C7065726970686572616C5C6970635C637961
:402DC0005F6970635F6472762E68000047656E6572617465645F536F757263655C50536F43365C70646C5C647269766572735C7065726970686572616C5C6970635C637962
:402E00005F6970635F6472762E63000047656E6572617465645F536F757263655C50536F43365C70646C5C647269766572735C7065726970686572616C5C6970635C637926
:402E40005F6970635F706970652E630047656E6572617465645F536F757263655C50536F43365C70646C5C647269766572735C7065726970686572616C5C70726F745C6374
:402E8000795F70726F742E630000000047656E6572617465645F536F757263655C50536F43365C70646C5C647269766572735C7065726970686572616C5C737973636C6B2A
:402EC0005C63795F737973636C6B2E630000000047656E6572617465645F536F757263655C50536F43365C70646C5C647269766572735C7065726970686572616C5C737904
:402F000073636C6B5C63795F737973636C6B2E680000000047656E6572617465645F536F757263655C50536F43365C70646C5C647269766572735C706572697068657261C5
:402F40006C5C737973696E745C63795F737973696E742E630000000047656E6572617465645F536F757263655C50536F43365C70646C5C647269766572735C706572697054
:402F8000686572616C5C737973706D5C63795F737973706D2E6300000000204000002440000000400000000000002340000030400000314000009F40000022400000104030
:402FC00002020202020202020210101D800017007500FF030602063604102000000000007FC0000000040000000000000019324B647D00804000080B100000000000FF015F
:403000002002001F00800004FF081018001000140018001C4044484C50000000081000000800000004000000041000000012000004210000002100000016000040114002A3
:40304000C41300138013A013200000001C0000000000214000002540000001400000344000002440000031400000324000001F410000234000001140010101010101010106
:4030800001101010800019005500F0000501053B04101C01010000000FC000000004000001010101011D3A57789600082000101208000000001F00000010000F0020000243
:4030C0003F06080E00080009000A000B24282C3034000000100000009000000088000000080000008000000004F0000000F00000400200002005A000D00100018001A001E4
:403100002000000010000000000000000000001000000008C00000002C310010C0000008400500003C060008D80100000048E80100127A0000093D0000093D0000093D005B
:4031400004000000A00F00000000D007E9000010C10000100000000010B50004400B27D0144B1A68146AB023D15ACA00531AE3181B68002BF4DA3E220F4B1A600F4A104BFD
:403180001A60104B0621A322D20099500E4A98509B58084B1A68106AB023D15ACA00531AC31800225A60084B064AD358002BFADA10BDC04610080008040126401E1F0000BD
:4031C00008012640000026401C05000010B54378FF2B20D100F00AFA04000F4B1A683123D35C042B04D8C421FF310C4800F026FA094B1A68116AB023D35A9B00CB18DB6851
:403200005A68116801230B4313601368DB07FCD4200000F0E3F910BD10080008CC2C0010F0B585B001900291544B1A683123D35C002B04D1C421FF31514800F0FFF94F4B8E
:403240001B681E6AB4229A58971950229B5C002B77D000F0DBF9050003283CD1474B1A683123D35C062B04D8C421FF31444800F0E5F9424B1968B023CB5A5A00D21853003F
:403280000A6A94466344B4228A58D3181B68002B23DB002000F0CAF93A4B98421FD03A4B1A6900230021012000F0B8F9002803D0364C17E0013400E00024002000F0B6F92F
:4032C000304B984202D0324B9C42F3D9304B9C4207D92E4C06E0002404E02C4C02E02B4C00E00024002C46D100F080F90390294B294AD358002B13DA234A0121300000F0F2
:40330000ADF900280ED10298FFF726FF019B002B0AD03B68002BFCDB00F070F9040004E01A4C02E0194C00E01C4C032D05D10121002000F08BF90028F9D1039800F04EF92F
:4033400019E000F053F905000F4A0121300000F085F9002809D1019B002B08D03B68002BFCDB00F04BF9040002E0084C00E00B4C280000F033F9200005B0F0BD1008000829
:40338000CC2C001001018800E807000805005200EF4902001C0500000000264001005000F0B54F464646C0B4824B1A685468B0235B055B78002B04D0B0235B055B78DBB23E
:4033C00000E02123212B67D1B023D15ACB005B1A116A8C46634419680029F5DADD6802212943D960B023D15ACB005B1A116A8C466344D968C9073ED5D9680904090C8C46E2
:4034000084271168D559A84641440968090A0904FF26360431400D0088261168894691598846C14449460968090A0906294365462943D9601168D359C9180A685E4B984649
:403440001A4090252D012A430A605A4B99461A6813689C46925962441368414619400B002B4313604B461A681568D15969180B689359EB181B684F4B1A68B021555AEB0056
:403480005B1B156AAC46634400255D60156A515ACA00531AEB185B68484A116904230B431361012801D030BF00E020BF414B1A68B023D15ACB005B1A116A8C466344196817
:4034C0000029F3DAB02149054978002904D0B02149054978C9B200E02121212932D1D968C90722D510688421525880180468324A1440DB681B0C1B02FF2109020B40234329
:4035000003602C4B19688823C8580B689C46604403681A400D6AB023CC5AE1000B1BEB18DB681B0E1B021A430260224B1A68106AB023D15ACA00531AC318DA6802218A433A
:40354000DA6028E086235B00E358002B23D11C4807681C4BA321C9005E581B4A904615681A4A0260062058503E21424611600631174A9950164B134AD358002BFADA154AC2
:4035800086235B00E2500E4B1F60A323DB000D4AD6500D4B1D60074B1A68106AB023D15ACA00531AC31800225A600CBC90469946F0BDC04610080008FF00FFFF00ED00E0B6
:4035C0000801264000002640040126401E1F00001C050000AAAAAAAA0000000001B40248844601BC604700BF6B18001001B40248844601BC604700BF6318001001B4024890
:40360000844601BC604700BF950A001001B40248844601BC604700BF3504001001B40248844601BC604700BF5D10001001B40248844601BC604700BF790E001001B40248CE
:40364000844601BC604700BFE516001001B40248844601BC604700BFED0D001001B40248844601BC604700BF610C00100000000000000000000000000000000000000000F3
:40368000000000000000000000000000000000000000000000000000000000000000000000000000000000000000000000000000000000000000000000000000000000000A
:4036C00000000000000000000000000000000000000000000000000000000000000000000000000000000000000000000000000000000000000000000000000000000000CA
:403700000000000000000000000000000000000000000000000000000000000000000000000000000000000000000000000000000000000000000000000000000000000089
:403740000000000000000000000000000000000000000000000000000000000000000000000000000000000000000000000000000000000000000000000000000000000049
:403780000000000000000000000000000000000000000000000000000000000000000000000000000000000000000000000000000000000000000000000000000000000009
:4037C00000000000000000000000000000000000000000000000000000000000000000000000000000000000000000000000000000000000000000000000000000000000C9
:020000041008E2
:4000000000780408EB0208100D0000005103081051030810510308105103081000000000000000000000000000000000F13B08104D03081000000000913C0810F53C0810A0
:400040004D0308104D0308104D0308104D0308104D0308104D0308104D0308104D0308104D0308104D0308104D0308104D0308104D0308104D0308104D0308104D03081000
:400080004D0308104D0308104D0308104D0308104D0308104D0308104D0308104D0308104D0308104D0308104D0308104D0308104D0308104D0308104D0308104D030810C0
:4000C0004D0308104D0308104D0308104D0308104D0308104D0308104D0308104D0308104D0308104D0308104D0308104D0308104D0308104D0308104D0308104D03081080
:400100004D0308104D0308104D0308104D0308104D0308104D0308104D0308104D0308104D0308104D0308104D0308104D0308104D0308104D0308104D0308104D0308103F
:400140004D0308104D0308104D0308104D0308104D0308104D0308104D0308104D0308104D0308104D0308104D0308104D0308104D0308104D0308104D0308104D030810FF
:400180004D0308104D0308104D0308104D0308104D0308104D0308104D0308104D0308104D0308104D0308104D0308104D0308104D0308104D0308104D0308104D030810BF
:4001C0004D0308104D0308104D0308104D0308104D0308104D0308104D0308104D0308104D0308104D0308104D0308104D0308104D0308104D0308104D0308104D0308107F
:400200004D0308104D0308104D0308104D0308104D0308104D0308104D0308104D0308104D0308104D0308104D0308104D0308104D0308104D0308104D0308104D0308103E
:400240004D0308104D0308104D0308104D0308104D0308104D0308104D0308104D0308104D0308104D0308104D0308104D0308104D0308104D0308104D0308104D030810FE
:400280004D0308104D0308104D03081010B5054C237833B9044B13B10448AFF300800123237010BD8449020800000000447E0810084B10B51BB108490848AFF300800848BC
:4002C000036803B910BD074B002BFBD0BDE81040184700BF0000000088490208447E081054430208000000007047FFF7FDFF72B6104C114DAC4209DA21686268A368043B60
:40030000A2BFC858D050FAE70C34F3E70B490C4A00209142BCBF41F8040BFAE709480A490860BFF34F8F00F003FA00F0DDF900F0E1F8FEE7487E0810607E08108449020838
:400340002C7602080040020808ED00E0FEE7FEE700B504207146084202D0EFF3098001E0EFF30880043001F069FBFEE700B5A7B000230493059302930393104804F0A6FF9E
:400380000F4804F0A3FF00F09FFA00F037FB00F023FBBDF81030BDF8082092B200929BB2084A802106A804F099FF06A804F01CFF4FF4FA7003F086F8E9E700BF2C76081051
:4003C0004C760810707608102DE9F04F91B003F057FE454804F07AFF012003F063FE0028FAD0DFF80CA10021504602F055F902460021504602F0A6F983460121504602F068
:400400004BF902460121504602F09CF904460221504602F041F902460221504602F092F905460321504602F037F902460321504602F088F906460421504602F02DF9024641
:400440000421504602F07EF907460521504602F023F902460521504602F074F980460621504602F019F902460621504602F06AF981460721504602F00FF902460721504678
:4004800002F060F98246584603F0C4FFCDE90E01504603F0BFFFCDE90C01484603F0BAFFCDE90A01404603F0B5FFCDE90801384603F0B0FFCDE90601304603F0ABFFCDE979
:4004C0000401284603F0A6FFCDE90201204603F0A1FFCDE90001DDE90E23044804F084FE642002F0EFFF77E78C760810A476081000001D4100B583B062B603F03BFD00F048
:4005000021FB03F0F5FD002401940223009323464FF480620849094802F05EFE01940323009323464FF480620549064802F054FE02F084FEFEE700BFD07608106D03081011
:40054000E0760810C903081008B5012001F0CEF908BD00BF704700BF5C4AD2F8803303F00F0303F1D00152F8212002F00702032A04D0042A05D092B9554914E0554A11682D
:4005800011E003F1C002514951F8222002F01F02112A06D0132A04D04FF4FA4103E04E4901E04FF400418BBB484BD3F8902502F00100D3F88825C2F30172D3F8883513F066
:4005C000405F07D0414BD3F88835C3F30173012B02D102E0012300E0002303B108B9032A46D13A48D0F88025C2F31103D0F88425C2F30C02D0F88005C0F300600130B1FB5D
:40060000F2F202FB03F2B2FBF0F131E0012B2FD12E4BD3F8402602F00100D3F80026C2F30172D3F8003613F0405F07D0274BD3F80036C3F30173012B02D102E0012300E067
:40064000002303B108B9032A12D12048D0F8002602F07F02D0F80036C3F30423D0F80006C0F3044002FB01F2B2FBF3F2B2FBF0F1164BD3F88033C3F3011321FA03F2154942
:400680004A601648D0F89030C3F3072301330069000E0130B2FBF0F08860B2FBF3F3CB600B6103F5742202F23F220D48A0FB0202C2F387420A7503F2E7330A4AA2FB032355
:4006C0009B098B61DB03CB61704700BF0000264000127A008C42020800366E010000214083DE1B43D34D621008B50D4801F008FAFFF730FFFFF730FF00221146042000F0ED
:40070000BDFE084800F050FF074B1B6893F8513013B1064800F0B8FF00F0FAFD08BD00BF58790810A04902083C750208EC76081008B501F0DEF9074AD2F8883043F4700357
:40074000C2F88830BFF34F8FBFF36F8F01F0D5F908BD00BF00ED00E038B505460C460021642000F0D1FB284600F08AFC200A00F087FCE0B200F084FC00F058FC012038BDEF
:4007800038B504460021642000F0BEFB204600F077FC0121642000F009FC012000F0AAFC0546002000F0A6FC044600F03FFC44EA052080B238BD00BF10B504461020FFF7B9
:4007C000DFFF34B920F0030081B21020FFF7C4FF10BD012C09D120F0030141F0010109B289B21020FFF7B8FF10BD022C09D120F0030141F0020109B289B21020FFF7ACFF2D
:4008000010BD002010BD00BF38B505460C461420FFF7B6FF20F0F00081B241EA051121F4706141EA04211420FFF796FF38BD00BF10B504464B20FFF7A3FF40EAC41189B26D
:400840004B20FFF789FF10BD08B51420FFF798FF20F00F0040F0090109B289B21420FFF77BFF08BDF8B507460E46154600240FE004F16400C0B2FFF783FF27F8140004F165
:400880006800C0B2FFF77CFF26F814000134E4B2AC42EDD3F8BD00BF08B53420FFF770FF40F4407189B23420FFF756FF08BD00BF08B53420FFF764FF20F4407081B2342060
:4008C000FFF74AFF08BD00BF08B50120FFF774FFFF210020FFF740FF01210F20FFF73CFF0120FFF769FF0120FFF7A2FF05210846FFF78AFF00210220FFF7A6FF41F20401B7
:400900002420FFF729FF4FF480512320FFF724FF46F2DF712520FFF71FFF41F219013120FFF71AFF41F219013620FFF715FF4FF408713020FFF710FF4FF408713520FFF792
:400940000BFF4FF4D7513920FFF706FF4FF4D7513B20FFF701FF05211220FFF7FDFE41F637414220FFF7F8FE41F637414420FFF7F3FE42F295614B20FFF7EEFE98214D2015
:40098000FFF7EAFE42F290014F20FFF7E5FE00215020FFF7E1FE47F206013C20FFF7DCFE43F231111120FFF7D7FE4FF4F8510620FFF7D2FE4CF2FF010120FFF7CDFE40F23D
:4009C00001110B20FFF7C8FE05210220FFF7C4FE0220FFF7F1FE08BD08B50020FFF7D0FE0548042201460830FFF73CFFFF210020FFF7B2FE08BD00BF204B020808B50120B1
:400A0000FFF7DAFE0020FFF747FF41F219013120FFF7A2FE41F219013620FFF79DFE0220FFF7CAFE4FF47A7000F0D4FF1148042201460830FFF716FF0120FFF7BDFE002059
:400A4000FFF736FF00210220FFF7FEFE41F219013120FFF781FE41F219013620FFF77CFE4FF488711520FFF777FE0220FFF7A4FE08BD00BF204B020810B5044621460348A0
:400A800001F06EF80028F9D010BD00BF00006640054BD3F80833C3F30803002BF8D0024BD3F84003704700BF0000664010B50024174B1C700122F0331A7001F01AF8154A32
:400AC000137843F010031370C0B201F016F80F22114B1A70082203F580731A700F4B4FF08062C3F88C20BFF34F8FBFF36F8FE02283F87A230A497A2000F00EFF1022094BCF
:400B00001A70094B1C70094B1C70094B1C7010BD2C1734401C1934401812344000E100E06D0B0810287502082E750208367502082C750208024A137843F002031370704772
:400B40002C17344008B5074B1B7823B9FFF7AEFF0122044B1A70FFF7EDFF4FF08062024BDA6008BD304B020800E100E038B5B64B1C78B64B1B7813F0400F00F0B181E4B2EC
:400B800014F0010F00F09481B04B1B78453B052B00F28981DFE813F00600A700870187010600200104F0DF0504F00A04082C5CD1A64B1B78DBB2452B47D1A54B1B7813F0DA
:400BC000FF0F18D0A34B1B681B78DBB2A24A13700622A24B1A70FF22A3F5C3631A70002203F580631A7001229D4B1A704622974B1A702C465CE19B4B1B7813F0020F12D0E9
:400C0000994A137843F00A03137060228F4B1A704FF08062954BC3F88C20BFF34F8FBFF36F8F2C4644E1924A137843F02003137052228A4B1A70FF22A3F5C3631A700022C0
:400C400003F580631A702C4632E10222834B1A70FF22A3F5C3631A70002203F580631A704A227A4B1A702C4622E10A2C35D17E4A137843F0A00313707A4B1B7813F0020F9A
:400C800019D0724B1B7813F0080F01D0092300E00A23754A11780B43137060226B4B1A704FF08062714BC3F88C20BFF34F8FBFF36F8F2C46FCE06E4A137843F0200313700E
:400CC0005222664B1A70FF22A3F5C3631A70002203F580631A702C46EAE0C721654800F09DFE2C46E4E014F0020F48D15C4B1A78D2B2574B1B78DBB29A4218D2584A137823
:400D0000DBB254490968CB5CDBB253490B700621524B1970FF21A3F5C3631970002103F58063197013780133DBB21370C0E04D4B1B7813F0020F11D04B4A137843F00A0325
:400D400013706022414B1A704FF08062474BC3F88C20BFF34F8FBFF36F8FA9E0444A137843F02003137052223C4B1A70FF22A3F5C3631A70002203F580631A7098E0394B12
:400D80001B7813F0020F11D0374A137843F09A03137060222D4B1A704FF08062334BC3F88C20BFF34F8FBFF36F8F81E0304A137843F0200313705222284B1A70FF22A3F519
:400DC000C3631A70002203F580631A70264A137843F0900313706BE0274A1378DBB2274908681D490978C9B2C15413780133DBB213701278D2B2224B1B78DBB29A420BD22A
:400E00000222164B1A70FF22A3F5C3631A70002203F580631A704BE0124B1B7813F0020F30D0114A137843F0090313706022074B1A704FF080620D4BC3F88C20BFF34F8F0E
:400E4000BFF36F8F34E000BF1C163440287502082D75020838750208141034402C1734402C750208347502082E75020800E100E01C18344038770810367502083075020851
:400E8000357502081B4A137843F0200313701222194B1A70FF22A3F5C3631A70002203F580631A7004E040F22311144800F0B6FD14F0200F1CD0124B1B7813F0080F01D060
:400EC000012300E002230F4A11780B431370094A137803F0DF0313701022094B1A7038BD074B1B7813F0100F02D11022044B1A7038BD00BF1C1834402C173440387708101C
:400F0000287502082E750208234B1B78DBB2102B3CD1224B1B7813F0100F39D14FF080621F4BC3F88C20BFF34F8FBFF36F8F4000C0B229B140F001004922174B1A7002E033
:400F40004522154B1A70174B1870822203F5E3631A70FF22A3F5C3631A70002203F580631A70114B1B7813F0FF0FFAD10B4B1B7813F0010FFAD0094B1B7803F00A030A2B2D
:400F800008D11022044B1A7003207047022070470120704700207047287502081C16344000E100E014103440141134401B4B1B7813F0040F2ED04000C0B229B140F00100E2
:400FC0004922174B1A7002E04522154B1A70154B1870322203F5E3631A70FF22A3F5C3631A70002203F580631A700F4B1B7813F0FF0FFAD1094B1B7813F0010FFAD0074B94
:401000001B7803F00A030A2B06D11022044B1A700320704702207047002070471C163440287502081410344014113440104B1B7813F0040F19D052220E4B1A70FF22A3F501
:40104000C3631A70002203F580631A700A4B1B7813F0FF0FFAD11022084B1A70044B1B7813F0210FFAD0002070470220704700BF1C1634402C17344014113440287502087B
:40108000184B1B7813F0040F29D0174B1870062203F5E3631A70FF22A3F5C3631A70002203F580631A70114B1B7813F0FF0FFAD146220F4B1A700B4B1B7813F0010FFAD084
:4010C000084B1B7813F0020F04D16022084B1A70002070476022064B1A70032070470220704700BF1C1634401410344014113440287502081F4B1B7813F0040F36D01E4B1C
:401100001B78DBB2492B12D102221C4B1A70FF22A3F5C3631A70002203F580631A70184B1B7813F0FF0FFAD14A22134B1A70114B1B7813F0010FFAD0124B1A78D2B288B195
:40114000022103F5E3631970FF21A3F5C3631970002103F580631970094B1B7813F0FF0FFAD104E06021044B197000E000221046704700BF1C163440287502082C173440C7
:4011800014113440141034401F4B98422DD00CD840282ED003D8E8B1102828D02FE0802829D0B0F5807F28D029E0184B984228D006D8B0F1204F0DD0154B984212D01EE060
:4011C000144B98420AD00133984209D0023B984215D101E0002070470F4870470F4870470F4870474FF4A0007047074870470D4870470D4870470D487047034870470C48FC
:4012000070474FF4A400704706005200010000F0090000A0040000F0010052000200520003005200010050000200500005005200FF00520038B5124B1B6893F83130012B47
:4012400004D840F2C3110F4800F0E8FB0C4B1D682A6AB5F8B03013442C46D5F8B420D358002B0BDB084B1868FFF78EFF6B6801229A6063689B68002BFBD138BD034838BD7F
:401280003C7502085C770810344B0208020050001A4B186128B102230370FF23437000234380174B1B6893F850202AB300B583B0B3F93830ADF80030002301931149684656
:4012C00000F04EFBBDF90030002B08DB590903F01F03012202FA03F30B4A42F82130084B1B6893F8513023B102220849012000F077FA03B05DF804FB704700BF344B0208A2
:401300003C750208C543020800E100E07D44020808B50248FFF7BCFF08BD00BF484B020838B50B4B1B68D3F8B4301B58002B0DDA0D4604460B0C1B0423B140F2D521054865
:4013400000F06CFBA9B26160002038BD024838BD3C7502089C77081001008A0038B50368002B01DA002300E0094B73B90D460446C2600B0C1B0423B140F2BB21054800F040
:401380004DFBA9B2A160002038BD014838BD00BF01008A009C77081038B504460D4619B99921084800F03AFB074B1B68D3F8B4301B59002B03DAE3682B60002038BD034800
:4013C00038BD00BFDC7708103C75020801008A00254B1B6893F8313083423AD900293AD00B6813F01F0F38D170B50D4604461E4B1B6893F83130984204D340F2C3111B483D
:4014000000F00CFB184B1B68186AB3F8B03004FB0304174E34602A68D2080021686803F06AFA00212046FFF77BFF346825B940F293310E4800F0F2FA2A4600212046FFF789
:401440008DFF60B900210A4B1868FFF769FF40B970BD084870470748704706487047064870BD054870BD00BF3C7502089C7708104C4B020803018A0001018A0010B50446D7
:401480001346B2B9A9B9124B1B6893F83130984204D340F2C3110F4800F0C0FA0C4B1B681A6AB3F8B03004FB03240B4B1C60002010BD43B149B1084A51609360111D20463C
:4014C000FFF786FF10BD054810BD044810BD00BF3C7502089C7708104C4B020803018A002DE9F0411B4B1B68DC68236883422CD90D464609A0EB4610012303FA00F819B966
:4015000000F0F7FA074600E00027124B18680368002B01DA002300E00F4B83B9626852F8263018EA030F05D023EA080342F82630002400E0094C0021FFF7F2FE00E0084C00
:4015400025B9384600F0D9FA00E0064C2046BDE8F08100BF4C4B020801008A00020188000301880004018A000B4B1B68DB681A6882420CD94109A0EB4110012202FA00F091
:401580005B6853F82130184203D004487047044870470448704700BF4C4B02080101880004018A0000018800024B1B680BB9014B18607047584B02082DE9F843044688466F
:4015C00091461D46089F2C4B1B681BB9B5212B4800F024FA284B1B682C2000FB04F01C18EEB21E50C5F3072363602D0CA560244B1B6893F831309E4204D340F2C31121488B
:4016000000F00CFA1E4B1B68196AB3F8B02006FB02162661666893F832309E4204D340F2DF11184800F0FAF9154B1B681D6A803605EB46156561A668330C1B0423B14FF49F
:40164000FF71104800F0EAF9330C1B0423B140F2FF110C4800F0E2F9B3B243EA0646AE60C4F81C90C4F820800023A36117B1B7F90030A381BDE8F883584B02081C78081020
:401680003C7502089C770810F0B58FB0044618B95221274800F0C2F9A369072B03D95621234800F0BBF9E36A1BB95821204800F0B5F9236B1BB959211D4800F0AFF907ADEB
:4016C00004F114060FCE0FC537682F6002AD26460FCE0FC533682B60164B1B68B3F93620079B1344ADF83030089B0D93A26AE16A0CAD00953B460A98FFF75EFF0021009116
:40170000069B0A460598FFF757FF216B284600F027F9BDF93030002B08DB590903F01F03012202FA03F3044A42F821300FB0F0BD1C7808103C75020800E100E0F8B50646AF
:401740000F461D4614461AB9FD211F4800F066F91E4B1B681BB9FE211B4800F05FF91B4B1B682C2101FB063001FB07314B68012202FA03F31B04466802FA06F60269EAB1F7
:401780008F69EFB91268002A01DA002200E0104AC2B92288134323600369DC6001238B614D620469330C1B0423B140F2BB21094800F034F9B2B2A2600020F8BD0648F8BDF0
:4017C0000648F8BD0548F8BD1C780810584B020801008A009C77081004028A0007028A00F8B505460F4616460E4B1B6823B94FF4AF710D4800F012F90A4B1B682C2404FB77
:401800000534236A23B94FF4B171074800F006F9E369B34204D9236A43F826700020F8BD0248F8BD584B02081C7808100A028A0070B582B000230193044620B940F2D111DF
:40184000284800F0EBF8236923B94FF4E971254800F0E4F8636923B940F2D311214800F0DDF8236A23B94FF4EA711E4800F0D6F86369DD682A0C20D012041A601B682069FD
:40188000194B1B68D3F8B430C358002B15DA01A9FFF782FD60B9019803681E0CDBB2E269934206D2226A52F8233013B1984700E0002631462069FFF733FDADB275B1636929
:4018C000ADB21D601B68636A1BB198470023636202E0A36A03B198470023A36163691B6802B070BD1C7808103C75020810B50446074B1B6823B940F2B111064800F08EF873
:40190000034B1B682C2000FB0430FFF791FF10BD584B02081C78081038B50D4B9A680D4B9A420FD10D46044621B940F237110A4800F074F804F11003064A52F8230042F8B6
:40194000235038BD1030054B53F8200038BD00BF00ED00E0004002085C7808100000081048B338B504460D464368072B03D93221134800F053F8B4F900306268002B08DB59
:401980005201D2B203F1604303F5614383F8002305E003F00F035201D2B20A49CA540A4B9A680A4B9A4208D12946B4F90000FFF7B3FF002038BD06487047002038BD00BF3A
:4019C0005C78081014ED00E000ED00E0004002080100560010B5044605E0084B186800F07FF8A4F50044B4F5004FF6D8044B186800FB04F000F074F810BD00BFA842020841
:401A0000A442020808B5034B1B7800FB03F000F067F808BDA042020801BEFEE738B50D46044C18220146204603F092FCA5610020FFF7F2FFF0480208FEE700BF08B5026874
:401A4000254BDA6142681A6282685A62C2689A620269DA6242691A6382695A63C2699A631E4A916AD963D16A1964516A5964516B9964926BDA64F1EE103A13F0900F27D0A5
:401A8000026A154B1A65426A5A65826A9A65C26ADA65026B1A66426B5A66826B9A66C26BDA66026C1A67426C5A67826C9A67C26CDA67026DC3F88020426DC3F88420826DE3
:401AC000C3F88820C26DC3F88C20026EC3F89020FFF7B2FF08BD00BFF048020800ED00E00230800803D001300238FCD100BF00BF7047EFF3108072B6704780F310887047CB
:401B0000014B1860704700BF3C75020810B4D0F8003303F00F03072B06D900230DE0D0F84043CC54013300E000239342F7D306E0D0F8404321F8134001339342F8D35DF8C4
:401B4000044B704710B51446D0F80833C3F308039A4200D31C462246FFF7D8FF204610BD036813F4006F01D0802200E04022D0F80832C3F30803934203D0C0F840120120D7
:401B800070470020704700BF10B4D0F8003203F00F03072B06D900230DE0CC5CC0F84042013300E000239342F7D306E031F81340C0F8404201339342F8D35DF8044B7047F1
:401BC00010B51446036813F4006F01D0802200E04022D0F80832C3F30803D31AA34200D81C462246FFF7D0FF204610BD2DE9F84305460C46036813F4006F02D04FF0800899
:401C000001E04FF04008D5F8007207F00F07A26A012A19D9D4F82490E262561EB9F1000F00D026B940F273512548FFF7F7FE324649462846FFF7C4FFA36A1B1AA362072F2E
:401C400000D9400048446062D5F80832C3F30803984533D0A36A012B30D10023A362072F02D8636A1E7801E0636A1E88FFF741FFC5F840624FF40073C5F8803FD5F8803FD9
:401C8000FFF73BFFD5F8883F23F4007222F0010242F4007623F4EE6323F0030323B140F236410848FFF7BAFEC5F8886F236843F002032360236B0BB101209847BDE8F883B6
:401CC000107A0810507A08102DE9F04105460C46036813F4006F01D0802600E040267608A769D4F81C8017B1B8F1000F04D14FF499613148FFF792FE424639462846FFF7EC
:401D000021FF236A03442362E3691B1AE36173BBA368FBB1E3689E4201D8013E00E05E1E2B6813F4006F01D0802300E040239E4204D34FF423712148FFF770FED5F80433C2
:401D400023F0FF03F6B21E43C5F804630123C5F8C83F02E00023C5F8C83F636823F001036360236B33B304209847BDE8F081A169D5F8002302F00F02072A00D940000844AB
:401D8000A0619E4216D95C1E2B6813F4006F01D0802300E040239C4204D34FF423710748FFF73CFED5F8043323F0FF02E3B21343C5F80433BDE8F081107A0810507A08107D
:401DC000002800F0A48170B50546002900F0A18116460C460B78022B03D93F21A248FFF71DFE637B023BDBB2062B03D940219E48FFF714FEA37B3BB1022B05D0032B03D055
:401E000041219948FFF70AFE94F82130012B03D942219548FFF702FE94F82830012B03D943219148FFF7FAFD2378012B06D86368083B082B94BF0023012307E0A37F2BB1CB
:401E40006368013B062B94BF002301231BB145218548FFF7E3FDA368053B042B03D946218148FFF7DBFD6369FF2B03D947217E48FFF7D4FDA369FF2B03D948217A48FFF76D
:401E8000CDFDA37C6BB1237833B9A368092B05D1A37B2BB1012304E0012302E0012300E000231BB14A217048FFF7B8FD636B23F4366323F00D031BB14C216B48FFF7AEFD8A
:401EC000E36B23F4EE6323F003031BB14D216648FFF7A4FD2378022B01D1A37F13B16268013A00E00022237F13B14FF4803100E00021A368082B02D84FF4006300E00023F1
:401F00000B4302F00F02134343F000732B60226B2B6813F4006F01D0802300E040239A4203D362215048FFF779FDA26B2B6813F4006F01D0802300E040239A4203D3632140
:401F40004948FFF76BFD626A2B6813F4006F01D0802300E040239A4203D364214248FFF75DFD23781B0603F040732B64637F0BB1402200E00022A37C13B14FF4806300E0F9
:401F800000231343227C12B14FF4807200E000221343627C12B14FF4007200E000221A43E36A013B1B0403F470231343627B013A02F007021343A27B120102F0300213436A
:401FC000AB64237B13B14FF4807200E00022E37B23B92378022B03D1012302E0012300E0002313B14FF4007300E000231A43A368013B03F00F031343C5F80033227DA3691F
:402000001B0403F47F031343C5F81033E26AD5F8003303F00F0303339A4201D3102A03D97A211148FFF7FAFCE37F23B12378012B03D0002302E0002300E0012313B14FF482
:40204000807200E00022637B013B03F007031A43A37B1B0103F0300313436B64237B2BB14FF4807203E000BF947A08100022A368013B03F00F0313432278012A02D14FF45D
:40208000803200E000221343C5F8003294F83030C5F8043394F8203013B14FF0007200E0002294F82130012B02D14FF0807300E00023134394F82820012A02D14FF48032C6
:4020C00000E00022134394F8242013432B6594F83830C5F80432636B23F4926323F002031B051B0DC5F8C83FE36B23F08C035B055B0DC5F8883F76B1002070603060B060FA
:40210000F0603062F0623063044B736370BD04487047034870BD002070BD00BFEFCDAB000160AA000B694A69934202D34869181A7047CA684869101A184470472DE9F041BB
:4021400007460D46036813F4006F02D04FF0800801E04FF040084FEA5808D7F80863C6F308062C6926E00134EB689C4200D100246B699C420FD12B6B0BB1082098476B698E
:402180009C4208D10023C7F8C83F0CB1013C13E0EC68013C10E0D7F84023D7F8003303F00F03072B02D8AB681A5502E0AB6823F81420013E002ED6D12C61EC682946384624
:4021C000FFF7B0FF201A804519D908B1441E00E000243B6813F4006F01D0802300E040239C4204D34FF423710648FFF717FCD7F8040320F0FF03E0B21843C7F80403BDE837
:40220000F08100BF507A081038B504460D46D0F8003E13F0080F35D0D0F8CC3F13F448730AD04A681A434A60C0F8C03FD0F8C03F0B6B0BB110209847D4F8CC3F13F4006FA9
:4022400009D06B6843F400636B604FF40063C4F8C03FD4F8C03FD4F8CC3F13F0010F11D0EB6923B129462046FFF72EFD05E0AB681BB129462046FFF761FF0123C4F8C03F6A
:40228000D4F8C03FD4F8003E13F0040F2ED0D4F88C3F13F4A0630AD02A681A432A60C4F8803FD4F8803F2B6B0BB120209847D4F88C3F13F0010F08D029462046FFF796FCEB
:4022C0000123C4F8803FD4F8803FD4F88C3F13F4007F0BD00022C4F8882F2B6823F001032B60EA622B6B0BB10220984738BD00BF2DE9F8430E46074618B93A217548FFF7CE
:402300008DFB1EB93B217348FFF788FB002F00F0DA80002E00F0DA8032686F4B13401BB14A216C48FFF77AFB72686C4B13401BB14B216848FFF772FBB36813F0FC2F03D075
:402340004C216448FFF76AFBF36813F0FC2F03D04D216048FFF762FB337D032B03D94E215C48FFF75BFBB369B3F5803F03D34F215848FFF753FBF36D072B03D950215548E2
:40238000FFF74CFB336EB3F5803F03D351215148FFF744FB736EB3F5803F03D352214D48FFF73CFB736843F000437B60B3683B61F3687B613369BB61337D9B07FB61B369D3
:4023C0003B62336803F46068736803F00409002435E02546A31D06EB83035A68404B13401BB163213B48FFF719FBAB1D06EB8303596805F1200247F822105B6813F0012F34
:402400000BD1B8F5606F08D1B9F1000F05D04FF47842344B23F8152003E00022314B23F81520726F02F11C7303F58033520093FBF2F31BB22C4A42F825300134E4B20F2C95
:40244000C7D9F36DC7F81832F36DC7F81032336EC7F82832336EC7F82032736EC7F83832736EC7F8303296F87030DBB1B36EB3F1804F03D382211748FFF7D0FAF36E23F41C
:402480004F0323F0FF031BB183211248FFF7C6FA6FF04043C7F80433B36EC7F80033F36EC7F84433D7F8003F3F2B02D0D7F8003F13B90B23C7F8003F336843F400133B60E3
:4024C0000020BDE8F8830948BDE8F8830748BDE8F88300BFD47A08100811DF0001FE302088CA887E40750208607502080100060038B50D46044618B9B5211748FFF78EFA45
:402500002CB30023236063604FF0031222616261A361E361236206E003F12002002144F822100133DBB20F2BF6D90023C4F81832C4F82832C4F838325DB16FF04043C4F886
:4025400004330020C4F84003C4F8440338BD034838BD002038BD00BFD47A08100100060008B50368002B0ADBD0F8A032002BFBDB036843F0004303600220FFF743FA08BD5B
:4025800038B505460C46012904D940F271110648FFF744FA012C04D16B6843F480336B6038BD01236B6238BDD47A081038B504460D46012904D94FF4F0711148FFF72EFADD
:4025C000D4F8103203F00103012D06D00AE0D4F8103203F00103013A00E00A4A1BB9002AF5D100E0074A33B10123C4F81032D4F81032002038BD0AB9034838BD034838BD13
:40260000D47A081055555501020006000300060038B505460C460F2904D94FF415710848FFF7FCF90F2C07D8203455F8243013F0012F03D0002038BD002038BD012038BD2B
:40264000D47A081038B505460C460F2904D940F222211048FFF7E2F90F2C14D821462846FFF7D6FF80F0010010F0FF0F05D06B6813F0080F09D1002038BD6B6813F0040FD7
:4026800005D1002038BD002038BD012038BD012038BD00BFD47A081038B505460C460F2904D940F27B210648FFF7B8F90F2C04D8603455F8240080B200E0002000B238BD72
:4026C000D47A0810F8B506460C4615460F2904D940F27B311948FFF7A1F90F2C2BD8736813F0800F22D104F1200356F8233013F4806F1BD07768C7F302170137012303FAA7
:4027000007F7736813F4807F02D1102F00D9102721463046FFF796FF20B9ADB2B5FBF7F52DB203E03FB295FBF7F52DB2044B33F81430ED1A2DB22846F8BD00BFD47A081062
:402740004075020870B505460C4616460F2904D94FF477711348FFF761F90F2C1AD86B6813F0020F19D1324621462846FFF7AAFF07EE900AF8EEE77AF2EE046A67EEA66A1E
:40278000094B53F8243007EE103AB8EEC77AC6EE877A04E0DFED057A01E0DFED047A17EE900A70BDD47A0810607502080000000070B5064614461D4621B140F29E410E4879
:4027C000FFF72CF9B4F1804F04D340F29F410A48FFF724F9012D04D94FF494610648FFF71DF9012D05D1D6F800331C43C6F8004370BDC6F8044370BDD47A081070B50446C6
:402800000D46164621F44F0323F0FF0323B140F2ED410C48FFF702F9012E04D940F2EE410848FFF7FBF8012E05D1D4F844331D43C4F8445370BDD4F8443323EA0505C4F810
:40284000445370BDD47A081000F1080343604FF0FF328260C360036100230360704700BF00230361704700BF43684B609A688A609A685160996008610368013303607047AD
:4028800030B40D68B5F1FF3F01D1026907E000F1080200E01A4653681C68A542FAD253684B6099608A605160086103680133036030BC7047036942688168916082684168FF
:4028C00051605A68904201D182685A60002202611A68013A1A601868704700BF10B5044601F098F9A26BE36B9A4201D1012400E0002401F0B1F9204610BD00BF10B504460C
:4029000001F088F9A36B0BB9012400E0002401F0A3F9204610BD00BF70B504461646856B026CFAB166B9806801F0DAFFA268236C1344A3606268934214D32368A36011E00E
:40294000C06801F0CDFF236C5B42E2681A44E26021688A4202D262681344E360022E01D105B1013D0135A563002070BD026C72B110B50346C4681444C4604068844201D3C5
:402980001868D8600846D96801F0AAFF10BD704738B5054601F03EF995F8454064B20AE06B6A53B105F1240000F050FE08B100F0DBFE013C64B2002CF2DCFF2385F845302C
:4029C00001F04AF901F026F995F8444064B20AE02B6953B105F1100000F038FE08B100F0C3FE013C64B2002CF2DCFF2385F8443001F032F938BD00BF38B540B94FF03F03BD
:402A000083F31188BFF36F8FBFF34F8FFEE704460D4601F0FFF82168E26B236C03FB021060600020A063A160013A02FB0313E360FF2384F8443084F845307DB92369ABB1D2
:402A400004F1100000F002FE80B14FF08052094B1A60BFF34F8FBFF36F8F07E004F11000FFF7F2FE04F12400FFF7EEFE01F0F4F8012038BD04ED00E010B5029B0C4609B90A
:402A80001B6000E01A60D8631C6401211846FFF7B3FF10BD40B94FF03F0383F31188BFF36F8FBFF34F8FFEE7F0B583B0034611B101FB00F000E000201D4617460C4648308A
:402AC00001F0EAF9064638B100903B4600F1480221462846FFF7D0FF304603B0F0BD00BFF0B585B0019240B94FF03F0383F31188BFF36F8FBFF34F8FFEE7044619B9026CAD
:402B00001AB9012202E0012200E0002242B94FF03F0383F31188BFF36F8FBFF34F8FFEE7022B03D1E26B012A02D102E0012200E0002242B94FF03F0383F31188BFF36F8F5A
:402B4000BFF34F8FFEE71D460E4600F015FE18B9019B1BB9012302E0012300E0002343B94FF03F0383F31188BFF36F8FBFF34F8FFEE7002701F04EF8A26BE36B9A4201D39E
:402B8000022D21D12A4631462046FFF7C5FE636A6BB104F1240000F059FD88B14FF08052324B1A60BFF34F8FBFF36F8F08E038B14FF080522D4B1A60BFF34F8FBFF36F8F11
:402BC00001F04AF801204EE0019B1BB901F044F8002048E01FB902A800F07CFD012701F03BF800F069FB01F015F894F844305BB2B3F1FF3F02D1002384F8443094F845300F
:402C00005BB2B3F1FF3F02D1002384F8453001F023F801A902A800F067FDF0B92046FFF75DFEA0B1019904F1100000F0D7FC2046FFF7AEFE00F0CEFB00289BD14FF0805291
:402C40000A4B1A60BFF34F8FBFF36F8F92E72046FFF79EFE00F0BEFB8CE72046FFF798FE00F0B8FB002005B0F0BD00BF04ED00E02DE9F84340B94FF03F0383F31188BFF385
:402C80006F8FBFF34F8FFEE7044619B9006C18B9012002E0012000E0002040B94FF03F0383F31188BFF36F8FBFF34F8FFEE7022B03D1E06B012802D102E0012000E000202B
:402CC00040B94FF03F0383F31188BFF36F8FBFF34F8FFEE71F469046894601F09FF8EFF311864FF03F0383F31188BFF36F8FBFF34F8FA26BE36B9A4201D3022F1ED194F894
:402D000045506DB23A4649462046FFF705FEB5F1FF3F0DD1636A9BB104F1240000F096FC80B1B8F1000F0FD00120C8F800000CE06B1C5BB284F84530012006E0002004E0D6
:402D4000012002E0012000E0012086F31188BDE8F88300BFF0B585B0019240B94FF03F0383F31188BFF36F8FBFF34F8FFEE7044619B9036C1BB9012302E0012300E0002396
:402D800043B94FF03F0383F31188BFF36F8FBFF34F8FFEE70E4600F0EFFC18B9019B1BB9012302E0012300E0002343B94FF03F0383F31188BFF36F8FBFF34F8FFEE70027ED
:402DC00000F028FFA56BC5B131462046FFF7CEFD013DA563236963B104F1100000F036FC38B14FF08052304B1A60BFF34F8FBFF36F8F00F031FF012053E0019B1BB900F088
:402E00002BFF00204DE01FB902A800F063FC012700F022FF00F050FA00F0FCFE94F844305BB2B3F1FF3F02D1002384F8443094F845305BB2B3F1FF3F02D1002384F8453041
:402E400000F00AFF01A902A800F04EFCF0B92046FFF754FDA0B1019904F1240000F0BEFB2046FFF795FD00F0B5FA0028A8D14FF080520D4B1A60BFF34F8FBFF36F8F9FE7F1
:402E80002046FFF785FD00F0A5FA99E72046FFF77FFD00F09FFA2046FFF730FD00288FD0002005B0F0BD00BF04ED00E000230BE0074A52F8332032B9054A42F8331002EB02
:402EC000C303586070470133092BF1D9704700BFA075020870B504460D46164600F09AFE94F844305BB2B3F1FF3F02D1002384F8443094F845305BB2B3F1FF3F02D1002375
:402F000084F8453000F0A8FEA36B2BB93246294604F1240000F07CFB2046FFF739FD70BD094B9B6A1B680BB9012300E0002323B14FF0FF32044BDA627047034B9A6AD26819
:402F4000D2685268DA627047984B020810B50446006B00F0D1FF204600F0CEFF10BD00BF2DE9F0478246894615469846089F099E0A9C9200A521206B01F0BDFC236B05F172
:402F80008042013A03EB820525F00705002308E019F80310E21882F8341019F8032012B101330F2BF4D9002384F84330062F00D90627E762201DFFF753FC04F11800FFF74A
:402FC0004FFC2461C7F10703A3616462002306E003F1100204EB8202002151600133042BF6D90023A36584F85C3042465146284600F0E4FD206006B13460BDE8F08700BFB8
:4030000070B5002407E004EB8402930010481844FFF71AFC0134062CF5D90E4C04F1BC063046FFF711FC04F1D0052846FFF70CFC04F11400FFF708FC04F1E400FFF704FCD1
:403040002046FFF701FCA662C4F8F85070BD00BFC84B0208984B020838B5044600F0DAFD264BD3F8FC200132C3F8FC20D3F800314BB9224BC3F80041D3F8FC30012B10D128
:40308000FFF7BEFF0DE01D4BD3F804314BB91B4BD3F80031DA6AE36A9A4202D8174BC3F80041164AD2F808310133C2F80831E36AD2F80C21934202D9104AC2F80C310F4DD2
:4030C00005F1300003EB83039A00211D1044FFF7CBFB00F0C1FDD5F804316BB1D5F80031DA6AE36A9A4207D24FF08052044B1A60BFF34F8FBFF36F8F38BD00BF984B020883
:4031000004ED00E038B517E000F084FD0D4CD4F8F030DD68281DFFF7CDFBD4F8FC30013BC4F8FC30D4F81031013BC4F8103100F093FD2846FFF70AFF024BD3F81031002B09
:40314000E2D138BD984B020808B5FFF7DBFF064B1B6B012BF9D94FF08052044B1A60BFF34F8FBFF36F8FF0E7984B020804ED00E070B504460E46174BD3F81451D3F8000188
:403180000430FFF797FBB4F1FF3F07D136B11148D0F800110431FFF767FB70BD2C440D4BD3F800315C60A54208D90A4BD3F8F800D3F800110431FFF763FB70BD054DA86A6F
:4031C000D5F800110431FFF75BFBEB6A9C4200D2EC6270BD984B02082DE9F04385B006460F4615469846900000F056FE60B18146602000F051FE044610B1C0F8309004E0D9
:40320000484600F079FE00E000248CB10023039302940D9B01930C9B009343462A4639463046FFF79DFE2046FFF716FF012001E04FF0FF3005B0BDE8F08300BF00B583B0BF
:40324000194B019300230093802218491848FFF7C3FF012801D100F0F5FA012814D14FF03F0383F31188BFF36F8FBFF34F8F114B4FF0FF32DA620122C3F804210022C3F8E5
:40328000142100F069FD0BE0B0F1FF3F08D14FF03F0383F31188BFF36F8FBFF34F8FFEE703B05DF804FB00BFB44C0208107B081049310810984B0208034AD2F818310133A5
:4032C000C2F81831704700BF984B0208014BD3F814017047984B02082DE9F0413C4BD3F81831002B65D13A4BD3F814410134C3F81441CCB99B6A1B6843B14FF03F0383F373
:403300001188BFF36F8FBFF34F8FFEE7304B9A6AD3F8F8109962C3F8F820D3F820210132C3F82021FFF7FCFD294BDB6A9C4203D2002645E0012600E00026254B9B6A1B68A9
:403340000BB9012300E0002323B14FF0FF32204BDA6235E01E4B9B6ADB68DD686B689C4202D21B4AD3622BE005F104084046FFF7A1FAAB6A1BB105F11800FFF79BFAEB6A5A
:40338000134AD2F80C21934202D9114AC2F80C310F4F07F1300003EB83039A0041461044FFF762FAEA6AD7F80031DB6A9A42C1D2C3E7074AD2F824310133C2F8243100266B
:4033C000034BD3F8283103B101263046BDE8F081984B0208394BD3F8183143B94FF03F0383F31188BFF36F8FBFF34F8FFEE770B500F010FC314BD3F81821013AC3F81821EE
:40340000D3F81831002B52D12C4BD3F8FC303BBB00244FE0294D2B6ADC6804F11800FFF749FA261D3046FFF745FAE36AD5F80C21934201D9C5F80C31204D05F1300003EB7F
:4034400083039A0031461044FFF70EFAE26AD5F80031DB6A9A4204D30122C5F8282100E00024164B5B69002BD4D10CB1FFF758FD124BD3F8244164B1FFF72EFF18B1012246
:403480000E4BC3F82821013CF6D100220B4BC3F824210A4BD3F828315BB14FF08052084B1A60BFF34F8FBFF36F8F012402E0002400E0002400F0D0FB204670BD984B020826
:4034C00004ED00E010B5B0B10446104BD3F8183143B14FF03F0383F31188BFF36F8FBFF34F8FFEE7FFF7E8FE00212046FFF740FEFFF770FF00E0002038B94FF08052044B26
:403500001A60BFF34F8FBFF36F8F10BD984B020804ED00E0304BD3F8183123B101222E4BC3F82821704710B52B4B0022C3F82821D3F800311B6B1A68B2F1A53F0BD15A6802
:40354000B2F1A53F07D19A68B2F1A53F03D1DB68B3F1A53F07D0204BD3F80001D3F80011343100F087FC1C4BD3F80C310AE043B94FF03F0383F31188BFF36F8FBFF34F8FDD
:40358000FEE7013B03EB83018A0013490A44126B002AECD008469900CC18A2000244546B64685463303019448A0008320244944206D1606803EB83018A0007490A44506363
:4035C000054903EB830082000A44526BD268C1F80021C1F80C3110BD984B020840B94FF03F0383F31188BFF36F8FBFF34F8FFEE710B50C46054BD3F800111831FFF740F952
:4036000001212046FFF7B4FD10BD00BF984B020838B540B94FF03F0383F31188BFF36F8FBFF34F8FFEE70C461546074AD2F800111831FFF719F90DB14FF0FF342946204618
:40364000FFF796FD38BD00BF984B020838B5C368DC6844B94FF03F0383F31188BFF36F8FBFF34F8FFEE704F118052846FFF722F9154BD3F81831ABB9251D2846FFF71AF9F0
:40368000E36A114AD2F80C21934202D90E4AC2F80C3103EB83039A0029460C481044FFF7E3F803E029460A48FFF7DEF8E26A064BD3F80031DB6A9A4204D90120024BC3F846
:4036C000280138BD002038BD984B0208C84B0208AC4B0208034BD3F820210260D3F8143143607047984B0208F8B540B94FF03F0383F31188BFF36F8FBFF34F8FFEE70546D3
:4037000041B94FF03F0383F31188BFF36F8FBFF34F8FFEE70C4600F07DFA124BD3F814016968421A2368B3F1FF3F14D02F680D4ED6F82061B74201D088420ED29A4206D2FD
:403740009B1A23602846FFF7C5FF002406E000232360012402E0002400E0012400F07CFA2046F8BD984B02080122024BC3F82821704700BF984B0208064BD3F804312BB197
:40378000044BD3F818311BB9022070470120704700207047984B0208064B1A681368B3FA83F35B09036013B9D368186870470020704700BFC44C020808B5416000619142A5
:4037C0000AD8D21A83699A4211D2011D0A4B5868FFF756F8002008BD9A4201D2994208D2011D054B1868FFF74BF8002008BD012008BD012008BD00BFC44C020870B500F0CA
:4038000009FA0E4B9B68B3B90C4C04F10C063046FFF71AF804F120052846FFF715F82660656000220C210A20FFF734F9A06010B10349FFF73BFB00F00FFA70BDC44C0208F5
:40384000187B081000B583B0FFF7D8FF0D4B9B6853B10D4B019303230093002380220B490B48FFF7B9FC00E0002040B94FF03F0383F31188BFF36F8FBFF34F8FFEE703B06C
:403880005DF804FBC44C0208F84C0208207B0810293B081040B94FF03F0383F31188BFF36F8FBFF34F8FFEE730B585B015460446124A9068F0B11A4601910295039405296D
:4038C00013DCFFF759FF022807D10023089A01A90A488068FFF704F90DE000231A4601A906488068FFF7FCF805E0002301A9FFF7BFF900E0002005B030BD00BFC44C0208D8
:4039000070B582B029E0DB681E68DC68251D2846FEF7D0FF636A20469847E369012B1CD1A36933449E4207D2636024612946104B1868FEF7A5FF10E0002100910B4632465D
:403940002046FFF7A7FF40B94FF03F0383F31188BFF36F8FBFF34F8FFEE7054B1B681A68002AD0D1024A51681160536002B070BDC44C020838B50546FFF7A8FC0446074BE7
:403980009B6B984204D2FFF7BBFF01232B6001E000232B60014B9C63204638BDC44C020870B582B005460E46134B1B68DB68DC68201DFEF77FFFE369012B18D1A1692B46B9
:4039C000324629442046FFF7F7FE80B1002100910B462A462046FFF75DFF40B94FF03F0383F31188BFF36F8FBFF34F8FFEE7636A2046984702B070BDC44C020870B582B025
