:020000041000EA
:4000000000400208230100100D00000085010010000000000000000000000000000000000000000000000000000000008101001000000000000000008101001081010010E9
:400040008101001081010010810100108101001081010010810100108101001081010010810100108101001081010010810100108101001081010010810100108101001060
:400080008101001081010010810100108101001081010010810100108101001081010010810100108101001081010010810100108101001081010010810100108101001020
:4000C00010B5064C2378002B07D1054B002B02D0044800E000BF0123237010BD3C06000800000000EC6C0010084B10B5002B03D00749084800E000BF07480368002B00D1D2
:4001000010BD064B002BFBD09847F9E70000000040060008EC6C0010E8000008000000007047FFF7FDFF72B60F4C104DAC4209DA21686268A368043B02DBC858D050FAE751
:400140000C34F3E70A490B4A0020521A02DD043A8850FCDC084809490860BFF34F8F00F01DF900F01DF8FEE7F06C0010086D00103C060008540800080000000808ED00E05E
:40018000FEE7FEE700B504207146084202D0EFF3098001E0EFF30880043001F067FBFEE710B562B60A490B4801F006FF0A4B186005E00749074801F0FFFE074B1860064BD4
:4001C0001B68002BF5D1054800F06EF9FEE7C04620080008845300104C0800080000081010B5002001F0BEF810BDC04670B56249E0239B00CB580F2213401A00D03292004F
:40020000525807210A40032A05D0042A06D0002A12D15A4814E05A4A106811E01A00C0329200554952581F210A40112A06D0132A04D0FA20C00103E0524801E0802000027F
:40024000002B36D14C4BB222D2009A5801211140B125ED005A59120F032422405B591B0F1C4207D0444C63591B0F03242340012B02D102E0012300E00023002B01D000294A
:4002800001D1032A4BD13C4BB022D2009D58AD03AD0B3D495958C904C90C9C58240E01231C40013404F0A2FF6843210004F09EFF35E0012B33D1304BC822D2009A58012561
:4002C0001540C024E4001A59120F03210A401B591B0F194207D028490B591B0F03210B40012B02D102E0012300E00023002B01D0002D01D1032A12D11F4DC022D200AB586B
:400300007F210B40A958090A1F263140AC58240C3440584304F06AFF210004F067FFE0239B00154AD3581B0903221340D840144C6060164B1D692D0AFC3215400135196998
:40034000090E013104F052FFA060290004F04EFF0500E06020610E4BC0180E4904F046FF20750D4BE818FA21890004F03FFFA061C003E06170BDC0460000264000127A0011
:40038000C000000800366E0184050000000021403F420F0040420F00E703000010B5284801F068FD274CB022D200A3585B005B08A350E021890063583020834363508023DC
:4003C0005B04A350204A214BE250A02292010433E250FF221E4BE25001F03AFDC0225200A35801218B43A35000F0B0FAFFF7FEFEB0235B055B78002B04D0B0235B055B7858
:40040000DBB200E02123212B03D1124B0022DA605A60114C22008021042000F049FD2000103000F0DDFD0D4B1A685123D35C002B02D00B4800F04AFE00F012FC10BDC046FE
:40044000286500100000264001000200840500008C050000E00023405806000850080008B45300108023024AD3580320184070470000214010B501F08CFA084980228C587C
:40048000074B2340074C23438B508823034AD358DB06FAD501F081FA10BDC04600002140FCFF00000100FA0570B50500830504D0E821FF310F4801F0ABF901F06AFA040081
:4004C000FFF7D0FF032801D1FFF7D4FF0A4AB0239B00D55080215058084B03400848034353508823044AD358DB06FAD5200001F054FA70BDE853001000002140FCFF00006B
:400500000300FA05FEE7C046F0B50025002711E0BB00C658F3B2FF22964308E06A008A181478A419527822700135013BDBB2002BF4D10137062FEBD9F0BDC04680231B0644
:400540000B4A1360902292030A490A600A490A60C0210901094A1160094A1360094B0A4A13600A4A13600A4A0A4B1A607047C046000010418000104188001041C4001041AB
:4005800000001D4178004D0000031D4144031D4101001180000E1F4110B50A00002104F0C9FE10BD10B504F0BCFE10BD30B587B0D149A022D2008B58032083438B50CF4AD0
:4005C000116808688823CB58C3181868CC49084018601368186884241B59C01803681B021B0A80256D042B430360106805680359EB1818680140196013683E229A5C002A18
:4006000006D0BD48E02189004258753CA24342503E229A5C002A06D0B748E021890042583024A24342503E229B5C002B07D0B249E02292008B588020000603438B5000219C
:40064000012000F0C1FE0021022000F0BDFE0021032000F0B9FE0021042000F0B5FE0021002000F0B1FE01A8A64903000A0032CA32C312CA12C300F0D5FE002802D00420E1
:40068000FFF740FF9C49A04A8B588020000603438B509E4800F082FF002802D00420FFF731FF954C9A4BE1589A4A0A40E250E158994A0A40E250E25880252D062A43E25049
:4006C000043BE158954A0A40E250E158944A0A40802189010A43E250E258802109020A43E250904A1168904B0B40802149000B431360002001F08EFB8C4BE2581543E5505B
:40070000E158012291430A43E2506421002001F0C5F87A4B1B683F229A5C052A06D970229A5C01210A408249986842509A6874215B5AD2185168724B0B408C2189010B433D
:4007400053606E4B1B6873229A5C0321914070229A5C7220185C140084402143012002400A43802109060A438021C900986842509A6852583F229A5C132A06D970229A5CF0
:4007800002210A406B49986842509A6874215B5AD21891685A4B0B40C42189010B439360564B1B6873229A5C0321914070229A5C7220185C140084402143022002400A4398
:4007C000802109060A438021C900986842509A6852583F229A5C372A0AD97122985C703A82401100032282400A405349986842509A6876215B5AD2181168504B0B40504926
:400800000B4313603D4B1B6873229A5C0324210091400A007021585C0231595C8840104371229A5C01219140944022000A400243802109060A438021C900986842509A68FA
:4008400052583F229A5C392A06D970229A5C03210A403C49986842509A6874215B5AD218D168274B0B40C42189010B43D360234B1B6873229A5C03200400944070229A5C0D
:400880007221595C15008D402900214302400A43802109060A438021C900986842509A6852583F229A5C092A03D90021264A986881509A6874215B5AD2181168104B0B4030
:4008C000802189000B4313600C4B1A687323D15C703B8B4019007023D35C7220105C83400B43802109060B438021C9009068435093685B5807B030BD000026405008000806
:40090000FF00FFFF00540010087F0000400D030004050000FEFCFFFFFFFF00FFFFF0FFFFFF8FFFFF00002740FFFCFFFF0C050000140C00004C0C0000DC0C0000FF0000FF39
:40094000004FC300E40C0000240C000070B58AB09621002000F0A2FF00F078FF002814D100F064FFC0235B00534AD358DB0705D41100524A8B585B005B088B504E494F4A9D
:400980008B588020000603438B50012001F0DAF94B4A516C4B4B0B40E82189010B435364536C1B0AFF2213403A2B07D1444A516C454B0B40E82189010B435364FFF7F6FDA1
:4009C000424A434B1A6000240CE0620012195300404AD318198B9A8AD88A00041043FFF7DBFD01340A2CF0D900240AE0620012199300384AD3181A6ED96D986DFFF7D2FD48
:400A00000134122CF2D9344D2800543033493C31FFF77AFD0123324A1360324A1360324A1368832149000B43136001AC24220021200004F07FFCC023DB03E36021002B4813
:400A400000F016F922002B00703323CB23C223CB23C223CB23C22100254800F009F9254D22002B00143343CB43C243CB43C243CB43C22100204800F0FBF822002B0038332B
:400A800043CB43C243CB43C243CB43C221001B4800F0EEF822002B005C3323CB23C223CB23C223CB23C22100154800F0E1F8FFF745FD0AB070BDC046000026400C0500006B
:400AC00000002740FF00FFFFFFC5FFDF0300FA05F00121400054001000570010005500100479344008793440007934400000324080023240805700100003324080043240E1
:400B000000053240214B984230D00ED8402831D004D800281FD010282AD031E080282BD080235B00984229D02AE0194B984229D007D8A0231B0698420DD0164B984212D027
:400B40001EE0154B98420AD0144B984209D0144B984215D101E0002016E0124814E0124812E0124810E0A020C0030DE007480BE00F4809E00F4807E00F4805E0034803E0C5
:400B80000E4801E0A420C0037047C04606005200010000F0090000A0040000F0050000F0030000F0010052000200520003005200010050000200500005005200FF005200A5
:400BC00070B5124B1A683123D35C002B04D1C421FF310F4800F01CFE0C4B1D682C00B423EB582A6A944663441B68002B0BDB094B1868FFF787FF6B6801229A6063689B681F
:400C0000002BFBD100E0044870BDC04650080008A4610010E80700080200500010B50D4B1861002805D002230370FD33437000234380094B1B6850229A5C002A08D05122F8
:400C40009B5C002B04D04F3A0449002000F0F8FA10BDC046E8070008500800086101000810B502481430FFF7D9FF10BDE807000870B505000C0000285DD000295DD0FF232A
:400C80000A689A4303D099212D4800F0C1FDFF2322699A4303D09A21294800F0B9FDA3685B0D03D09B21264800F0B2FD63685B0A03D09C21224800F0ABFDE3695B0F03D0AC
:400CC0009D211F4800F0A4FD236A5B0F03D09E211B4800F09DFD1B4A11688B69EB1ADB0949691B01CB18216829607D211068415C6918E06808607E211068415C69182069A8
:400D000008607F211068415C6918606908607C211068415C6918A06808606168A961116880228A5CAD18A2692A60E2691A60226A5A60002002E0044800E0034870BDC0465C
:400D4000E46100105008000801005A0070B504000D000A4B1A68B423D3581B181B68002B0ADA0B0C03D00649064800F051FD2D042D0C6560002000E0034870BD50080008C3
:400D8000D50200006462001001008A0070B505000C000368002B01DA002300E0084B002B0BD1EA60230C03D00649074800F030FD2404240CAC60002000E0014870BDC04610
:400DC00001008A00BB0200006462001070B505000C1E03D19921084800F01AFD074B1A68B423D3585B191B68002B03DAEB682360002000E0024870BDA46200105008000804
:400E000001008A0070B504000D00234B1A683123D35C834236D9002936D00B68DB0635D13123D35C984204D3C421FF311B4800F0EFFC194B1B681A6AB0215B5A5C431419DD
:400E4000174E34602B68DA080021686804F072FA00212000FFF77AFF3468002D03D111490E4800F0D5FC2A0000212000FFF78EFF00280DD10A4B18680021FFF767FF002887
:400E800008D108E0084806E0074804E0064802E0064800E0054870BD5008000864620010000800089303000003018A0001018A0010B50400002A17D1002915D1124B1A6871
:400EC0003123D35C984204D3C421FF310F4800F09FFC0D4B1B681A6AB0215B5A5C4314190B4B1C6000200EE0002A09D0002909D0074B59609A60191D2000FFF783FF02E07C
:400F0000044800E0034810BD50080008646200100008000803018A00F0B583B00D001C4B1B68DC68236883422DD947097B01C01A012383401E00002903D100F02AFD0190E0
:400F400001E000230193124B18680368002B01DA002300E00F4B002B0ED16368BF00DF193B68334203D0B3433B60002400E00A4C0021FFF7EBFE00E0084C002D04D10198FD
:400F800000F00BFD00E0064C200003B0F0BDC0460008000801008A00020188000301880004018A000A4B1B68DA68136883420BD943095901401A0121814052689B009B58D7
:400FC0000B4203D0034802E0034800E003487047000800080101880004018A0000018800034B1B68002B01D1014B18607047C0460C080008F0B5474680B404000F0090460B
:401000001E002D4B1B68002B03D1B5212B4800F0FFFB294B1B682C2060431C18FF22150035402560330A13406360360CA660244B1A683123D35C9D4204D3C421FF312148D8
:4010400000F0E6FB1E4B1A68B023D35A6B43116A8C466344236166683223D35C9E4204D3E021FF31174800F0D3FB154B1B681D6A80367601AD196561A668330C04D0FF21D3
:401080004900104800F0C4FB330C03D00E490D4800F0BEFB3604330C1E43AE604346E36127620023A361069B002B02D000229B5EA38104BC9046F0BD0C080008E462001082
:4010C0005008000864620010FF010000F0B58FB0041E03D15221294800F09AFB6368032B03D95421254800F093FBE36A002B03D15821224800F08CFB236B002B03D1592195
:401100001E4800F085FB07AA1300210061C961C321C921C302AD290023001433C1CBC1C141CB41C10821535E0CAE3380144B1B6836215B5E07998C466344B370089B0D93C2
:401140000B9B0A980096A26AE16AFFF753FF2B69E868002200920021FFF74CFF216B300000F0E8FA0023F25E002A05DB1F231A401E3B9340034A13600FB0F0BDE4620010A3
:401180005008000800E100E0F8B505000F0016001C00002A03D1FD21224800F039FB224B1B68002B03D1FE211E4800F031FB1E4B1B682C2128004843181879435918012275
:4011C00013004D68AB401B044568AA4015000269002A20D08F69002F1FD11268002A01DA002200E0114A002A19D132681204120C134333600369DE6001238B614C62046959
:401200002B0C03D00A490B4800F002FB2A04120CA260002004E0084802E0084800E00748F8BDC046E46200100C08000801008A00BB0200006462001004028A0007028A00A0
:4012400070B504000D0016000F4B1B68002B04D1AF2149000D4800F0DBFA0B4B1B682C2060431C18236A002B04D1B1214900074800F0CEFAE369B34204D9236AB6009D5118
:40128000002000E0024870BD0C080008E46200100A028A0070B582B0040000230193002804D1D221FF312D4800F0B2FA2369002B04D1E9214900294800F0AAFA6369002B91
:4012C00004D1D421FF31254800F0A2FA236A002B04D1EA214900214800F09AFA6269D5682B0C24D01B041360136820691C4B1A68B423D358C3181B68002B18DA01A9FFF75E
:4013000065FD00280ED1019803681E0CFF221340E269934207D29B00226AD358002B02D0984700E0002631002069FFF70FFD2D042D0C0FD063691D601B68636A002B03D0D9
:4013400098470023636203E0A36A002B00D098470023A36163691B6802B070BDE46200105008000810B50400084B1B68002B04D1B221FF31064800F04BFA044B1B682C208E
:4013800060431818FFF786FF10BDC0460C080008E462001010B50400094B1B689B6CC340DB0703D4BE21074800F032FA044B1B681B691034A402E3580F20184010BDC04618
:4013C0005008000824630010134B1A683C23D35C83421DD9042904D94B1EFF3B9BB2132B18D8FF290CD91F2319400C4A0300C0339B009950D03080000423835000200AE0A9
:4014000007231940D0308000044BC150002002E0034800E002487047500800080000264001004A0070B5041E03D14A494A4800F0EFF9B023DB00494AD358002B00DA87E01A
:40144000474B22689A4203D94649434800F0E0F923689B039B0BE279002A02D08022520400E000221343B022D2003C498B50A2883D4B9A4204D98C218900374800F0C8F96A
:4014800022893A4B9A4203D93949334800F0C0F9A388DB04D90C23891B04364A13400B43354A2E498B50A37A0F2B04D98E218900294800F0ADF9E37A0F2B03D92F49264826
:4014C00000F0A6F9A289284B9A4203D92C49224800F09EF9A37A0F211940E27A1201FF2313400B43A289120226490A401343A27B1207C02189050A401343B122D200174931
:401500008B50A379042B03D91F49134800F080F9228A164B9A4204D9912189000E4800F077F90E4819494558194B1D40A3791B02E022D20013402B4343504558154B1D40F5
:40154000238A1B040B4A13402B434350002000E0114870BD1F0200006463001000002640FFFF030029020000FF1F0000FF010000310200000000FF018405000039020000D1
:401580003A02000000FF1F00430200008C050000FFF8FFFFFFFF00FE03004A0070B505003149324A8B588020000603438B502C0003E0012000F020F9013CB223DB002A4A59
:4015C000D3585B0701D4002CF3D12749B122D2008858274B03408020800503438B50002D01D0002C0CD02049B022D2008B588020000603438B5003E0012000F0FDF8013CC6
:40160000B223DB00184AD358DB0701D4002CF3D1002D01D0002C08D01349B122D2008B58C020800503438B5013E00F4BB121C90058580F4A02408020800502435A500839D2
:401640005A58520052085A5008495A58520052085A50002D03D0002C03D0002002E0002000E0044870BDC046000026408C050000FFFFFFCF02004A0070B505000C001A4BDF
:401680001B6828229A5C012A15D1820807211000884327D19200AD1AED00FF20A8401B6820339A181168AC4023004B40184004004C40146016E03A229B5EDBB2994203D106
:4016C00076210A4800F0A4F8074B1B681B68072215408022120615438022920194466444A400E55070BDC04650080008EC63001070B504000D000B4B9A680B4B9A420CD16E
:40170000002904D13821FF31084800F081F81034054BA400E058E55003E01034A400044BE05870BD00ED00E000000008EC63001000000010F0B5474680B482B0061E0191B3
:401740004AD04368032B03D93221264800F060F80023F05E002804DBB178FFF78DFF002400E0214C0023F15E7368002912DB88081E4FC0308000C55903221140C900FC32A2
:4017800090468A4095439A01434613408B402B43C35116E089B20F220A40083A92080632920013481018476803221140C900FF252A008A4097439A012B0013408B403B43D6
:4017C00043600B4B9A680B4B9A4206D10023F05E0199FFF78DFF00E0034C200002B004BC9046F0BDEC6300100100560000E100E000ED00E00000000810B5034B1B78584387
:4018000000F0BEF810BDC046D400000801BEFEE770B50D00044C18220100200003F092FDA5610020FFF7F2FF00060008054B802212069A649B6C002B01DB002000E00248D5
:401840007047C0460000274003004600054B8022120198585B68FF221A4202D08023DB021843704700002640FEE7C04610B50A4B0268DA6142681A6282685A62C2689A6260
:401880000269DA6242691A6382695A63C2699A63FFF7EAFF10BDC04600060008F0B5474680B4002801D0192300E064238B429B415B42304D2C682268A826A45BA4182268D3
:4018C0000327BA433B401A4322602C682268A45BA2181668284CA046264016602C682668AA229446A25A96193268BA43134333602A6813686546525BD3181A684446144039
:401900001C60002805D010291BD921291BD8012024E0184B1B6855229A5C914215D956229A5C914213D957229A5C914211D958229A5C91420FD959229B5C99420DD80420B1
:401940000CE000200AE0022008E0002006E0012004E0022002E0032000E00520054A1268526813680F218B430343136004BC9046F0BDC04650080008FFFCFFFF00000000D9
:401980000230800803D001300238FCD1C046C0467047EFF3108072B6704780F31088704710B5B0235B059B899BB2002B04D0B0235B059B899BB201E080235B0080225200AD
:4019C000934215D1184C23681968683A9B58C9180B680F208343963A13430B6021680C689C23CB58E318196881430A431A6019E00D4C2368196898229B58C918B020400566
:401A00000A4BC2580A4B13400A681343C022920013430B60226811689C23D358CB18054A82581A6010BDC0465008000848180000FFFCFFFF4418000030B5B0235B059B89FB
:401A40009BB2002B04D0B0235B059B899BB201E080235B0080225200934215D1184C23681968683A9B58C9180B680F208343953A13430B6021680C689C23CB58E3181968AF
:401A800081430A431A6019E00D4D2B68196898229B58C918B0246405C12040012258094B13400A681343C022920013430B602A6811689C23D358CB1822581A6030BDC0466A
:401AC00050080008FFFCFFFFB0235B059B899BB2002B04D0B0235B059B899BB201E080235B008022520093420DD1104B1B681A6898215B58D21811680D4B0B40C021C90143
:401B00000B43136011E0094B1B68196898229B58C918084BB0225205D258074B13400A681343C022920013430B60704750080008FF8FFFFF18180000FFFCFFFF30B5B02341
:401B40005B059B899BB2002B04D0B0235B059B899BB201E080235B008022520093420DD1134B1B681A6898215B58D2181168114B0B408021C9010B43136018E00C4D2B6882
:401B8000196898229B58C918B02464050A4822580A4B13400A681343C022920013430B602A6811689C23D358CB1822581A6030BD50080008FF8FFFFF4C180000FFFCFFFF66
:401BC00010B5B0235B059B899BB2002B04D0B0235B059B899BB201E080235B0080225200934217D10020FFF7D5FBB0235B055B78002B04D0B0235B055B78DBB200E02123A7
:401C0000222B03D8002803D1013004E0012002E0002000E0012010BDF8B50700012803D93D493E48FFF7F4FDB0235B055B78002B04D0B0235B055B78DBB200E021239DB2C3
:401C4000B0235B059B899BB2002B04D0B0235B059E89B6B201E0802676000020FFF79AFB002814D180235B009E4212D1222D12D82B4B1B685C682B4821582B4B19403B0697
:401C80008022520413400B432350002404E0274C02E0264C00E0254C80235B009E4201D1222D03D880235B009E4232D01C4B1A683123D35C002B04D1C421FF311C48FFF763
:401CC000A7FD174B1B681D6A80235B009E4203D1002F05D0174A06E0002F03D0164A02E0164A00E0164A01212800FFF74FF800280FD10B4B1A68B423D3585B191B68002B68
:401D0000F7DBEB681B0E1B06A0221206934200D100242000F8BDC0464C0A0000306400105008000818F00000FFFFFFFE04004200A4610010010100300300000C010000308B
:401D40000100000CF8B50500012804D9822109012948FFF75DFDFFF733FF002849D0FFF718FE0700002D11D10021244B244AD150E823DB00B0225205D65CF6B20120FFF786
:401D80004BFF041E19D1FFF70BFE16E0B02252051C4BD0581A4B194958501B49565CF6B21A481A581F218A4314390A431A500320FFF722FDFFF7C2FE0024002C15D1104991
:401DC000124A8B581F20834306401E438E50002D02D1FFF779FE08E00720FFF70DFDFFF72BFE0020FFF718FF04003800FFF7D5FD00E0074C2000F8BD30640010307F0000F3
:401E00000000264010180000410700001CFF000003004200042805D10B4A116804230B4313600FE0094B1A681168A023D358CB180006C022920410401860034A1368042172
:401E40008B4313607047C04610E000E0500800080749C02252008B589B009B088020C00503438B508B588020000603438B50704700002640014B18607047C0465008000861
:401E8000002807DB1F23C02218401E3B8340024952008B507047C04600E100E030B5F8250F4B104A18681468436A226C6D039A181168294010D01160226C9B181B680A4B2F
:401EC0001A68531CD97F002907D1416A086A496A506291620122DA7730BD0022FBE7C046500800081C080008100800080022F8B5060004000368471C0B60436828364B6046
:401F000083690D008B60C369CB604B1CDA77FB7F0B7433780B7603F069F8A169002900D11F4920002030FFF705FC1F23FB56002B06DB1F2213401E3A9A401300194A136014
:401F4000194F63683A688033126A5B019B188022216852028A40E1699A60002900D113493000FFF7E7FB00203056FFF789FF0023F356002B06DB1F2213401E3A9A401300EE
:401F8000084A13600A4A3B6812685B6A926C00209B18F82252031A60064B1D60F8BDC0461523001000E100E0500800089D1E00101C0800081008000810B5074B074A1B6878
:401FC00029331C78064B012C03D15360FFF78EFF10BD5833F9E7C0465008000810080008E0650010F0B5BA4D87B0AC68002C1CD0B84BB94E636032682378506A012B16D178
:4020000003F006F860600023AB603368E1691A00B032108822691B6A5043C018002902D00121A3699940FEF791FE07B0F0BD0268002AE8DAA94A62606A68002A11D00E2BC2
:4020400000D1EAE04CD8082B00D1ACE02DD8042B00D194E01BD8022B00D182E0032B00D183E06368002BCED12A68511CC87F002800D045E13268526A106A526AD70F012F48
:4020800001D1974BCF77A060E2606360BBE7062B00D17DE0072BE4D1D768002FE1D0A16A4A7D0B008969B8475DE00B2B00D194E006D8092B00D181E00A2BD2D197697EE01A
:4020C0000C2B00D19AE00D2BCBD1576A002FC8D0A16A0B7B00938B684A680968B84742E0142B00D1D2E025D8112B00D1B2E00FD80F2B00D1A1E0102BB3D1176B002FB0D0E6
:40210000A16ACB680A699BB2D2B28968B8479EE0122B00D1ADE0132BA3D1D76B002FA0D0A16A0B6A0193CB6900938B694A69C968B84718E0172B00D1BFE006D8152B00D136
:40214000B0E0162B8DD1976CADE0192B00D1C9E000D2B4E0552B00D083E7A06A02F0E2FF01E002F0E3FF60607BE71768002F00D177E7A16A8B684A680968B847F3E753687C
:40218000002B00D16DE7A16A0A69C9689847EAE79768002F00D164E7A16ACB6800938B684A6809687CE01769002F00D159E7A26A117D0092136BD26AB847D4E75769002F94
:4021C00000D14EE7A26A117D0292136B0193D36A0093536AD269B847C5E7D769002F00D13FE7A16A03910B6B0293CB6A01938B6A00934B6A0A6AC969B847B4E7176A002F20
:4022000000D12EE7A16A0291CB6A01934B7D00938B69CA69096BB847A5E7976A002F00D11FE7A16A0B7B02934B6901930B6900934B680A688968B84795E7D76A002F00D182
:402240000FE7A16ACB680A689BB28968B8470023636006E7576B002F00D102E7A16A8B684A680593CB6809689BB2B847059B1860EDE7976B002F00D1F3E6A16ACB689BB273
:4022800000934B680A688968B847E0E7176C002F00D1E6E6A16A0B6900934B680A688968B84760E7576C002F00D1DAE6A26AD36811780093936852687EE7D76C69E7136DDF
:4022C000002B00D1CDE6A26A116898474BE7C0461008000809003200500800080A00320001003200576D002F00D1BAE6A16A0B690A790193CB6800938B680968B84732E72D
:40230000506A926A002A00DA014B0027CF77BAE60100320070B5124C124B22681E68106853680122356A80335B01EB18D9688240090C8A4212D1210012041A60B0361B687F
:402340003388083158434019FEF740FD002805D123689B68002B01D1FFF744FE70BDC046100800085008000837B505001400012A18D149682800069A013C02F079F80C236E
:402380006142614100932800083B4431002202F0D7F8054B1B681B68ED1801232A681A42FCD137BD0968E5E71C08000813B519001300049A040002F05BF808232000009332
:4023C0000022043B482102F0BBF8044B1B681B68E418012322681A42FCD113BD1C080008F8B504000327134E080031681A721D004B693A40E3181A60096D020061180B0025
:4024000080336B6020002023E960296001F04EFF06CD200002F012F8082320000022462102F078F833681B68E418012320681840FCD1F8BD1C080008F0B50500160085B0C5
:402440001A000A9B0391DC681023671CFF3711343900FF3401F02AFF2300039A0A9928000097FFF781FF280010232200310001F01DFF002005B0F0BDF0B5160087B0040043
:4024800004911A0033076AD10E9B3500DB681F00591C31371133FF31FF33FF37039102933900102301F002FF049B012B4BD00C9B9B195B1B05930D9B9A19521B002D4BD019
:4024C00010230399200001F0F1FE039B3A000E9920000097FFF76AFF029B049A0E9920000097FFF741FF1023029A3900200001F0DDFE1023029A0599200001F0D7FE103D15
:40250000D5E710230399200001F0D0FE039B012200930E99029B2000FFF726FF029B029A00930E993B002000FFF740FF1023039A3900200001F0BAFE1023029A04992000FD
:4025400001F0B4FE103D0C9B9B195B1B04930D9B9A19521B002DD4D1002007B0F0BD0148FBE7C04602003200F0B5170089B006000C001A003B0747D1109BDD682B00313386
:40258000FF3303930399102301F090FE0E9B0593012C01D10F9B05933C006B1CFF3311350493FF35059BDB191B1B07930E9BDB191B1B06930F9BDA19121B002C02D12000C4
:4025C00009B0F0BD10230499300001F06FFE039B0022009310992B003000FFF7C5FE049B2A00109930000095FFF7E0FE10232A000699300001F05AFE1023079A03993000E7
:4026000001F054FE103CCDE70048D9E702003200F0B58DB00793159B0691DD680B922B003133FF3302936B1CFF3303931033049310330593079A10230299040001F036FE84
:402640002B00F8331A6C5B6C17BA1BBA0893069B089E1B090A93089B1399F31A1A018918099114998A180A998B420ED3029A20001023079901F01AFE0F23069A00201A4038
:4026800013000B9A13600DB0F0BD03992000102301F00CFE029B159900932000059B0022FFF762FE01220023B6185F412B0032BA39BAF83319645A64059B049A00931599E2
:4026C000039B2000FFF772FE1023049A0999200001F0ECFDBFE70200002310B50F32441E1178013A49000B4353701B0A9442F7D1002B04D07923C27B5B425340C37310BD2A
:40270000F7B505000F009668546831001023002201F0E8FD39002800009623000022FFF723FE2000FFF7D7FFF7BDF0B585B003939368166802930F0010230022029905004E
:4027400001F0D0FD0A9C039B0A9A9A18121B102C07D83C61A3B23100280001F0A7FD05B0F0BD10233100280001F0A0FD029B32000093390033002800FFF718FE0096029B28
:40278000002239002800FFF7EFFD103CDBE7F0B587B0059393680C690393536806000F00156804930F2C0DD81800FFF794FF80232B55713B1B1B611C9BB2691800223000E5
:4027C00001F090FD039B2A00009339002B003000FFF7ECFD049B2A00009339002B003000FFF7E4FD039B3900300000950022FFF7BBFD1023039A0599300001F057FD07B0C0
:40280000F0BD0000F0B585B0039119000AAB17001A78134B05001B681C6D0C9B4134FF340419FFF7DDFD230026001033303623631033A36332000C9928006463FFF760FF7F
:40284000039B32000C9928000097FFF76EFF28000B9B32000C99FFF79AFF002005B0F0BD1C080008F0B58BB0069312AB09921A78604B08911B6804001F6D5F4BC719FD1886
:402880008D3BFF3BFB180493F0239B00FB1805938823DB00FB1801923A0003933B00C0328033009229003A00119E01F0C9FB9823049ADB00FA50059AFB185A60039A9A605D
:4028C000AB689E4200D86FE02900200001F01EFC3300109A2900200001F020FC3300039A2900200001F034FC296AAB68039A5B1A9BB251180022200001F0F4FC3E4A0023C1
:40290000BE1836225C209446B268934264D32900200001F0FBFB049A2900200001F072FB069B099A2900200001F0F8FBB268069B944629006344049A200001F009FC2900C5
:40294000200001F0E3FB059A2900200001F05AFB336A049A2900200001F0E0FBB268336A29009B182000089A01F0F2FB9821C900795820008023002201F0B4FC9823DB0048
:40298000FE18716820008023002201F0ABFC80230022B168200001F0A5FC2000290001F032FC00200BB0F0BDB2B207929E420CD213000399109A200001F078FCAB68B2B21B
:4029C0009B1A039A9BB2911994E7079B109A0399200001F06BFC91E76146039AD25C4A400499CA54039A0599D25C4240CA5401338AE7C0461C080008CC040000034B1B6803
:402A00009B68C0180F230068184070471C080008F8B504000D0017001E002000FFF7EEFF0C28FAD8082D04D00C4AA358002BFCDB04E086225201A358002BFCDBE221084B5C
:402A4000C9051B680D43DA68A2181560DA68A2181760DB68E4182660F8BDC046D01000001C080008F8B507000C0016001D003800FFF7C4FF0E28FAD8064B24031B682D042D
:402A8000D8688023DB051E43344338182C430460F8BDC0461C08000870B505000C0016002800FFF7ABFF0E28FAD8054B24021B68DB68ED18D023DB051E4334432C6070BDB0
:402AC0001C08000810B504002000FFF797FF0E28FAD8044B1B68DB68E418A023DB05236010BDC0461C08000810B504002000FFF785FF0E28FAD8044B1B68DB68E418A223B6
:402B0000DB05236010BDC0461C08000870B504000E0015002000FFF771FF0C28FAD8064B06491B68DA68A2181160DA68A2181660DB68E418256070BD1C0800080C000070C0
:402B400070B505000C7A0A680234E40023000821FFF75EFF1023082204212800FFF782FF2300103B002B04D0082205212800FFF779FF70BD70B505000B7A0233DC00FFF723
:402B8000DFFF2800FFF79EFF1023062204212800FFF768FF2300103B002B04D0072205212800FFF75FFF70BDF8B51E0004000F00150031001423002202F0E8F8054B3572CC
:402BC0001B6837605B690020E41803231D402560F8BDC0461C080008F8B50D00040016001F000699002D1FD1FFF7AAFF10233A0008212000FFF70CFF102231002000FFF76E
:402C000085FF2000102308220021FFF72BFF2000002D0CD1FFF756FF2000102301220C21FFF720FF0020F8BDFFF7A4FFDEE7FFF75BFFF1E7F8B504000E0015001F001307BD
:402C40005CD10899002E1ED1FFF77AFF10233A0009212000FFF7DCFE2B00079A08212000FFF7D6FE2A0006992000FFF74FFF10230922002E20D101212000FFF7F3FE002D94
:402C800004D10020F8BDFFF775FFDFE72000FFF7B5FE0E28FAD81A4B1A4A1B682000DB68103DE3181A60FFF70DFF102301220C212000FFF7D7FEE2E702212000FFF7D2FEB6
:402CC000002DDED02000102308220021FFF7CAFE2000FFF709FF2000FFF790FE0E28FAD8074B094A1B680221DB682000E3181A6010230022FFF7B6FE103DE1E70348C1E7A9
:402D00001C0800081800104121C0104102003200F7B50F260400019115001F0016404DD10A99FFF70DFF10233A0009212000FFF76FFE1023092231002000FFF793FE2B0059
:402D4000099A08212000FFF763FE2A0008992000FFF7DCFE019B002B2CD0002D2CD02000FFF7B0FE1023082200212000FFF77AFE2000FFF743FE0E28FAD8114B114A1B6800
:402D8000103DDB68E3181A60E7E72000FFF79AFE2000FFF733FE0E28FAD8094B0A4A1B680C21DB682000E3181A6010230022FFF759FE103D002DE8D10020FEBD0348FCE735
:402DC0001C08000801C010411800104102003200F0B51D008BB004926A781B7812021A43AB7804001B041A43EB782E7A1B0613436A7906932B7912021A43AB7902911B04F3
:402E00001A43EB7913991B06134307936B7A6A7B1B023343AE7A120236043343EE7A36061E432B7B08961A43AB7B1B041A43EB7B1B061343099332BA1BBA05920193FFF728
:402E40007FFE102306AA09212000FFF7E1FD1023092200212000FFF705FE019B0C211A0E2000FFF719FE019B0D211A0CD2B22000FFF712FE019B0E211A0AD2B22000FFF7FB
:402E80000BFE6B460F211A792000FFF705FE2000FFF718FE029B129A08212000FFF7B8FD029A11992000FFF731FE029B019E1B09059F0393019B039AF31A93420ED306AA42
:402EC00020001023290001F025FF0F23029A00201A401300049A13600BB0F0BD2000FFF7F1FD01220023B6185F413ABA33BA08920C21320E20000993FFF7CEFD320CD2B28E
:402F00000D212000FFF7C8FD320AD2B20E212000FFF7C2FDF2B20F212000FFF7BDFD2000FFF76CFD0E28FAD8084B094A1B68DB68E3181A602000FFF761FD0E28FAD8034BEE
:402F4000044A1B68DB68E3181A60B3E71C0800081010006610100067034B1B689B68C0180F230068184070471C08000810B504002000FFF7F1FF0E28FAD8044B1B68DB6888
:402F8000E418A023DB05236010BDC0461C0800080200002310B50F32441E1178013A49000B4353701B0A9442F7D1002B04D07923C27B5B425340C37310BD000070B504004E
:402FC0000E0015002000FFF7C7FF0C28FAD886225201A358002BFCDB064B07491B68DA68A2181160DA68A2181660DB68E418256070BDC0461C0800080800007170B504000C
:403000000D002000FFF7A8FF0C28FAD8064B07491B68DA68A2181160DA68A2181560DB68E4181023236070BD1C0800080C000070002370B504000E000B602000FFF78CFF8E
:403040000E28FAD8144D154A2B682000DB68E3181A60FFF78BFF71682000FFF7CFFF2000FFF77AFF0E28FAD82A680D49D368E31819601368E3181A68002AFCD17068FFF7F5
:4030800087FF2000FFF768FF0E28FAD82B68DB68E418044B236070BD1C0800080000104101C010401110104170B50E001100326805009C181A00FFF781FF102C01D8346064
:4030C00070BD2800FFF748FF0E28FAD8054B064A1B682800DB68103CEB181A60FFF746FFEBE7C0461C08000818001041F0B5102587B00F000400019200212A0002A802F099
:4031000019F980237E683F6802AA137002A9EA1B2000FFF753FF2000FFF71EFF0E28FAD8184D194A2B68DB68E3181A600F2F02D83000FFF72DFF102231002000FFF73EFF98
:403140002000FFF709FF0E28FAD82B680F4ADB682000E3181A60FFF709FF01992000FFF74DFF2000FFF7F8FE0E28FAD82A680849D368E31819601368E4182368002BFCD1CB
:4031800007B0F0BD1C080008180010410800104101C0104070B504000D00160086B019000AAB1A780C9BFFF7FFFC0C992000FFF7C7FC02AB694620000193FFF739FF330043
:4031C0002A0069462000FFF76FFF20000B9A6946FFF78CFF002006B070BDF0B5F3B005937AAB0391049269A91A78040001F0EAFBC02306AA5B0006A9D250043326AACA50ED
:4032000046AE0433CE500833CF581033CB58BDB2019300222B003100200001F0B7FD799BBB4254D969A9200001F02AFC799B789A69A9200001F040FC320069A9200001F0D6
:403240006DFC019B019AEB1A9BB2B1182000002201F09CFD3622002394465C269F424ED169A9200001F00CFC3B0006AA69A9200001F022FC059B049A69A9200001F01CFC20
:4032800006AA69A9200001F049FC69A9200001F0F7FB3B0026AA69A9200001F00DFC019B06AA69A9200001F007FC039A69A9200001F034FC0C23002266A9200001F066FD74
:4032C000200069A901F0A0FC002073B0F0BD799B9BB20293799BBB420AD2029B789A3100200001F017FD029B799AED1AABB2ACE7029B789A3100200001F00CFDAAE765465A
:4033000006A95A18501CFF3001788032694006ADE95401780133714011709FE7034B1B681B68C0180368002BFCD170471C08000810B5064C246829342478012C02D100F0AA
:40334000EDFF10BD01F05CFDFBE7C0465008000810B51300064A146829342278012A03D1002200F0BFFF10BD002201F00FFDFAE75008000810B5094B1B6829331B78012BB4
:403380000AD0A023064C090324689B05E468114300191943016010BDB023F3E7500800081C0800080B03094912010968C96840180749096829310978012905D1942189051E
:4033C00011431943016070470249F9E71C080008500800080F00002410B50A4B0C241B6829331B78012B00D00434074BA1401B68DB68C018531E902252051A4311430160CE
:4034000010BDC046500800081C08000810B50A4B89061B6829331B78013B5C1EA3410C339A408023054C1B0624681943E4680A430019026010BDC046500800081C080008EF
:40344000F7B504001D005F1C0E00019200213A00FFF7C2FF3A0001212000FFF7BDFF3A0002212000FFF7B8FF2A0003212000FFF7CDFFD022204F92053B680021DB682000AA
:40348000E3181A600322FFF775FF3A681B49D368E3181960D023D26831039B050B43A21813603601164B0E431E433A68D368E318002D02DA134A1A60F7BD134901980143E8
:4034C0001960D3681149E3181960D368E3181E600F4B1B6829331978D368E318012909D1842292051A60022220001100FFF75AFF013DDAE7074AF5E71C080008002000308F
:403500000200303A070000130010003701003003500800080F000021F7B5060015001C00099B01915F003A000221FFF755FF3A0003213000FFF750FF099A00213000FFF71E
:4035400065FF2C4F2D013A68D368F1182A4B23432B430B60294B1B6829331B78012B47D08C2327499B051943D3680898F3181960D3682449F31801431960D368224AF318DF
:4035800015431D60099B30009C1C22000021FFF723FF3A681D49D3683000F3181960D3681B4AF3181A6001212200FFF715FF3B680898DA681749B21801431160DA681649E0
:4035C000B2181160DA681549B21801431160019AD96813481203711810430860D9681148711802430A60DB680F4AF3181A60F7BD9023B6E71C08000800200033500800080B
:40360000203000003020003300300020320000370C000013001000371000400310000037010040300000303003000013F8B5040080274A4D1E002B687F05D8682018076014
:40364000E027D8683F023943201801609021DB680902E3180A431A600B2132002000FFF7BBFE32000C212000FFF7B6FE32000D212000FFF7B1FE2B683949DA680227A21837
:403680001160DA683749A2181160DB68364AE3181A60721E04260A212000FFF7B7FE0A220B212000FFF766FE2B68304ADB68E3181A602000FFF732FE2B682D4ADB6820007A
:4036C000E3181A60FFF72AFE2B68DA6BA2181268324238D10B2220001100FFF763FE2B68244ADB682000E3181A60FFF717FE2B68DA6BA21812683A420AD00D222000110053
:40370000FFF750FE0E2220001100FFF74BFED0E7DA681949A2181160184ADB681268E31829321278012A0CD1154A1A600E2220001100FFF737FE0A220E212000FFF71AFE2A
:40374000B7E7104AF1E7DA680F49A2181160DB68E41888235B052360F8BDC0461C08000800D0003500E0003400B0003409C000300B00003F0D00003FDCD000365008000832
:40378000D0D00026DFD0002500380013F7B504001500089F00917E007A1C01210193FFF71BFE320002212000FFF716FE320003212000FFF711FE3A0000212000FFF726FEBF
:4037C0003A4E3B4933680198DA6801432D010D43A2181560DA683749374DA21811602A68DB6829321278E318012A5AD1334A1A60012220001100FFF7D5FD33683049DA6871
:40380000A2181160DA682F49A2181160DA682E49A21811602A6829321278012A43D08C222A4992051143DA682000A2181160DB68274AE3181A6000221100FFF7E7FD2000F0
:4038400000220121FFF796FD3A0020000021FFF7DDFD32681F49D3682000E3181960D3681D4AE3181A60FFF759FD33681B49DA681B48A2181160DA681A49A2181160DA681B
:40388000A2181060DA68A21811600099DA6808031549A21801431160DB68E418134B2360F7BD134AA3E79022BAE7C0461C080008003000333A1000335008000810100021FD
:4038C000182000332320003600400005202000000010003410100020040000042130003A2830003723003003020000300E0000131F100021F0B585B006000F0002930A9D95
:403900000B98062A37D8214C93001959A31823341B7FA45C01223A701A190B32824232D82A78002A2FD16A78012A2CD1021B0092D21A9446AA18501E00780192002822D1DB
:4039400062462800033A0392421B9446039A624515D89BB2019A3000FFF7EAFC002812D1009AA3B2AA1802993000FFF7E1FC002809D1387007E0002423002100CAE7013014
:403980004278FF2AE0D0002005B0F0BDF0670010F0B504008BB009938B68B74E0593CB68089206930B684F6807930B697D1C02934B6903938B690493B04B1B68DA6C33687B
:4039C0009200196D92B24118FFF7C2FC3A0005212000FFF701FD3A0006212000FFF7FCFC3A0007212000FFF7F7FC3A0008212000FFF7F2FC2A000A212000FFF7EDFC3A001B
:403A00000B212000FFF7E8FC3A0009212000FFF7E3FC3B00079A0821200001F0B5FB069B059A0721200001F0AFFB099B089ADB000621200001F0A8FB029B002B00D0CBE0DF
:403A400020003B0008220A21FFF7FAFC2000FFF765FC049B002B00D0C5E03368884ADB682000E3181A60082301970093092202330B21FFF751FD2000FFF750FC039B002B5E
:403A800000D0B7E020003B0008220921FFF7CEFD2000FFF743FC802133684905DA682000A2181160DA687749A2181160DA687649A2181160DA687549A2181160DA68744940
:403AC000A2181160DA687349A2181160DA687249A2181160DB68714AE3181A6009213A00FFF77AFC3A000D212000FFF775FC3A000B212000FFF770FC082306220D2100931C
:403B0000200004330197FFF707FD2000FFF706FC32686349D3682000E3181960D3686149E3181960554BD2681B68A218029329331B78013B591E8B41A0215B4289055B06AF
:403B40005B1859490B431360FFF7E8FB33680E211B692000E3189A6BDD6A9200ED04ED0C920C0135AD1AFFF751FC33684F4ADB68E3181A603368DB68E318002D41DC404AEE
:403B800020001A600522092311000097FFF7FEFD33684749DA68A21811608821DA684905A2181160354A1B681268E31829321278012A5DD17F3219681142FCD13B00200021
:403BC0000522109901F0F3FA00203368DB68E418384B23600BB0F0BD2B00029A0A21200001F0D2FA35E73B00049A0B21200001F0CBFA43E73B00039A0921200001F0C4FAEE
:403C000049E71E4A1268029229321278012A21D1294A1A602000FFF781FB01223368DB6BE3181B680097134216D004320D2311002000FFF7ABFD2000FFF770FB0D2300978C
:403C40001A0019002000FFF7A1FD2000FFF766FB013D8FE7194ADCE70D23052219002000FFF794FD2000FFF759FB00970523E7E71A68002AFCDBA1E71C0800085008000867
:403C8000009000350660000005500000077000000880000009A000000AC000000B50003007B0003000900034B9E00000BEB00020002A0013E00F0013B0B00021BFB0002165
:403CC000F0B504000B6887B002930B69344E03934B694D6804938B696F1C0593314B1B68DA6C33689200196D92B24118FFF730FB2A0020000B21FFF76FFB3A0020000D2125
:403D0000FFF76AFB2A0020000C21FFF765FB2A0020000E21FFF760FB2B00029A20000B2101F032FA2B000B220D212000FFF788FB2000FFF7F3FA3B000B27039920000D22E7
:403D400001F035FA3368184ADB680E21E3181A6020000D230C2201950097FFF7DDFB2000FFF7DCFA2B00059920000E2201F01FFA2B003A000C212000FFF758FC2000FFF7A5
:403D8000CDFA2B0020000C22049901F010FA00203368DB68E418054B236007B0F0BDC0461C0800085008000800C0003500780013F0B580270C4C7F002568DBB22C6A0619F6
:403DC000059C24023C40FF3F3A40224332606A6A82181360AB6AC3181960EB6AC018069B03600020F0BDC0461C08000870B50D001100862204000498D200A0501A002000D0
:403E000000F01CFB042300225821200000F082FB0821064B1A681368E31818680840FCD1136BE41823682B6070BDC0461C0800087FB50D0019000E4B16000393099A089B91
:403E4000040000F015FB03AB690059180823895D200000930022043B00F072FB054B1B681B68E418022322681A42FCD17FBDC046707172731C080008F0B5040016000025F2
:403E8000082787B005931B4B04911B681B6DC3180393194BE900C9183A00300001F032FA002825D00135102DF3D10025039F3200103739002000082300F0F8F90C9A03999D
:403EC0002000082300F0F2F9039E039B08360193049A3B00200000960021FFF7A9FF200008233200059900F0E1F9280007B0F0BD024DDBE71C0800089C6800100300310047
:403F0000F0B589B00593274B04001B6816001B6D0027C3180393130008330693083304910793214BFD00ED1808222900300001F0E9F9002833D008222900069801F0E2F9DF
:403F400000282CD008222900079801F0DBF9002825D00137102FE4D10025039F3200103739002000182300F0A1F90E9A03992000082300F09BF9039E039B08360193049AFD
:403F80003B00200000960121FFF752FF200008233200059900F08AF9280009B0F0BD034DDBE7C0461C0800089C6800100300310010B58024A40001518121520052088900C9
:403FC00042508222DB00DB0892008350002010BD70B50400150000F01BFA00225C21200000F086FA2021064B1A681368E31818680840FCD19369E41823682B6070BDC046A9
:404000001C0800080B0013B51100DA68040000925B6900F04BFA0C230193043B00932000043B00224C2100F0A5FA044B1B681B68E418042322681A42FCD113BD1C08000866
:40404000F0B5050005A840C804780220062C11D82000402701F0C0F80416222B394A410027488F6048621420086108622D30FF3088610020CB60C0239B004E610C704A60AB
:40408000E850F0BD1E488F60143048622020086104380862E4308861FF38EBE718488F6034304862202008610862E030F3E714485430486280208860403808611038086284
:4040C000A020800088610220D4E70E48143048628020886040380861F1E70A485430486280208860403808612438E8E706481430486280208860403808612038DFE7C04658
:404100001C6900109C6900101C6A001010B50B694A6A9BB2C96800F0C9F810BDF7B50E0017001C008D680190F361AC4208D26B1E23403A0071689BB2019800F0B7F8F7BD8F
:404140003A0031000198FFF75DFF7F19641BECE7F0B589B007938B6816000193013B0493049ACB6903901340029370230693019B0C00CF684D68802B01D0382306938023F7
:40418000029A0398AB546B469B88511C0593013B9B1A9BB20022691800F0A4F8069B029A93420AD82A0021000398FFF72BFF059B00222900039800F095F8079BDA00019B6E
:4041C000100EEB18191F0870D91E100C0870023B110A1970049B2100EA5403982A00FFF711FF236A9B08002B01D109B0F0BDFA78013B3270BA7872707A78B2703A780437C1
:40420000F2700436EFE770B50C0005008B6800229BB2496800F066F823692800E1689BB2002200F05FF8A36928009BB20022616900F058F870BD0000F0B587B004930CABBE
:404240001B7817000593184B03911B6800221E6DD02386199B00F51829002823040000F041F8059A330001923200C03280330092290032002000FFF7E3FE29002000FFF79B
:4042800045FF3B00039A29002000FFF747FF3B00049A29002000FFF75BFF20002900FFF7B2FF002007B0F0BD1C08000813B50400080011000200200000F0DAF80823200037
:4042C00000930022043B502100F03AF9044B1B681B68E418102322681A42FCD113BDC0461C08000813B5040010001A000300200000F0BEF80C23200000930022043B512189
:4043000000F01EF9044B1B681B68E418102322681A42FCD113BDC0461C08000813B5040000F0A6F80823002200935221043B200000F006F91022054B1B681B68E31819683E
:404340001142FCD1C0235B00E05816BD1C08000813B50400080011001A0004AB1B880090200000F0A3F80C230193043B00932000043B0022532100F0FDF8044B1B681B6858
:40438000E418102322681A42FCD113BD1C08000870B50400A020164D800025503F2504302550002501263C3025500830255008302650104E1030265040382150A9218900F9
:4043C00062502000190000F023F82A006021200000F08EF84021084B1A681368E31818680840FCD1D369E4182268049B1A6070BD00000331010001001C080008034B1B680A
:404400009B68C0180F230068184070471C08000870B504000D002000FFF7F0FF0628FAD88021054BC9051A68D368E3181960D368E418256070BDC0461C08000870B504005D
:404440000E0015002000FFF7D9FF0528FAD8064B06491B68DA68A2181160DA68A2181660DB68E418256070BD1C08000810000041F8B504000F0016001D002000FFF7BEFFF6
:404480000428FAD8074B08491B68DA68A2181160DA68A2181760DA68A2181660DB68E4182560F8BD1C08000810020042F8B504000F0016001D002000FFF7A0FF0328FAD8E8
:4044C000094B0A491B68DA68A2181160DA68A2181760DA68A2181660DA68A2181560DB68E418069B2360F8BD1C0800081032004370B504000D002000FFF780FF0728FAD83A
:40450000034B2D061B68DB68E418256070BDC0461C08000870B505000C001E002800FFF76DFF0728FAD8054B24061B68DB68ED180123B3401C432C6070BDC0461C080008CF
:40454000F8B507000C001D0006AB1E783800FFF755FF0728FAD8064B02211B68B140D8680123AB4024061943381821430160F8BD1C08000870B506000C001D003000FFF767
:404580003DFF0728FAD80221084B059A1B682406D868049B301899400123AB4019430323934019432143016070BDC0461C080008F0B580270C4C7F002568DBB22C6A061926
:4045C000059C24023C40FF3F3A40224332606A6A82181360AB6AC3181960EB6AC018069B03600020F0BDC0461C080008F0B504000F2716480568A8682618306838400C2813
:40460000FBD8E868124E20180660E86820180260EA680F20A21813608C23059A5B01E250AB68E218136803400F2BFBD0B022EB68D205E3181A602B68E31818680028FCD1A1
:404640002B6BE41823680B60F0BDC0461C0800080800007070B50F260B4B1B689C6805192C6834400C2CFBD886256D014459002CFCDBDC68054D04192560DC680419216020
:40468000DB68C018026070BD1C0800080800007130B50F25064B1C68A368C21813682B400F2BFBD0E3680906C018016030BDC0461C080008F0B50F27094C2668B468051943
:4046C0002C683C400F2CFBD0F468090300198024E405224311431B0419430160F0BDC0461C08000830B50F25094B1B689A68841822682A400C2AFBD8DA68064C82181460F5
:40470000DA6882181160DB68C0180823036030BD1C0800080C000070F7B5040016001F00002501911C4BEA00D21831000823200000F066FB00282CD00135102DF2D10025CB
:40474000310020000822FFF785FF082320001A000421FFF7AFFF082208992000FFF77AFF39002000FFF7BEFF082320001A000021FFF7A0FF019920004B1E99415231FFF71F
:4047800087FF2000082301220C21FFF793FF2800FEBD024DD4E7C046706A001003003100F7B504001600002700910193284BFD00ED182A0008233100200000F021FB0028DE
:4047C00043D008232A00F118200000F019FB00283BD0310008232A001031200000F010FB002832D00137102FE0D10025310020001822FFF72FFF2000102308220421FFF751
:4048000059FF082320001A000521FFF753FF082208992000FFF71EFF01992000FFF762FF082320001A000021FFF744FF009920004B1E99415431FFF72BFF20000823012270
:404840000C21FFF737FF2800FEBD024DCEE7C046706A00100300310010B58024A4000151812152005208890042508222DB00DB0892008350002010BD83239B0010B5C15041
:4048800001210433C150064B19680B68C3181C68002CFCDB8B69C01803680020136010BD1C080008034B1B689B68C0180F230068184070471C080008034B1B681B68C01877
:4048C0000368002BFCD170471C080008F8B504000F0016001D002000FFF7E4FF0C28FAD8E021074BC9051B680F43DA68A2181760DA68A2181660DB68E4182560F8BDC04626
:404900001C08000870B504000D002000FFF7CAFF0E28FAD8034B2D061B68DB68E418256070BDC0461C08000810B504002000FFF7B9FF0E28FAD8044B1B68DB68E418C8236C
:40494000DB05236010BDC0461C08000810B504002000FFF7A7FF0E28FAD8044B1B68DB68E418CA23DB05236010BDC0461C08000870B505000C0016002800FFF793FF0E28B6
:40498000FAD8054B24021B68DB68ED18D023DB051E4334432C6070BD1C08000870B504000D002000FFF77EFF0E28FAD8CC21044BC9051B682943DB68E418216070BDC04697
:4049C0001C08000870B52423150000220C0000F0DDF9062D23D8280000F0FEFB04160D2B2236410069232360224B2362402363602C3BA36012E06A2323601E4B1433236224
:404A000040236360203BF4E76A232360194B3433236240236360203BA360043B636170BD6B232360134B5433236280236360403BDFE76B232360104B143323628023636046
:404A4000403BA360103BE9E76B2323600A4B5433236280236360403BA360203BDEE76B232360064B1433236280236360403BA360243BD3E7F06A0010706B0010F06B00103C
:404A8000002370B504000D00CB61CB60FFF74CFF2000FFF711FFAB682A6A20000821FFF715FFA9682000FFF779FF2000FFF704FF2000FFF74BFF70BDF8B51E0004000D00C4
:404AC0001700CB689B19CB602000FFF7EBFE0C28FAD886225201A358002BFCDB0D4B0E491B68DA68A2181160DA68A2181760DB68E3181E606968B14201D9EE61F8BD200000
:404B0000FFF74CFF6B6829682000F61AFFF7FAFEF0E7C0461C08000808000071F0B50E004D68CF69C96885B04B0F0192CA0002920393702304000093802D01D0383B00939B
:404B400039002000FFF72AFF2000FFF7B5FE802239002000FFF70CFF009BBB4206D820003168FFF7CFFE2000FFF7A6FE029A039B691FDAB22000FFF7FBFE029A039B291F6D
:404B8000120E2000FFF7F4FE029A039B120CE91ED2B22000FFF7ECFE029A039B120AA91ED2B22000FFF7E4FE029A039B691ED2B22000FFF7DDFE31682000FFF7A3FE2000AB
:404BC000FFF77AFE7369019A0C212000FFF77EFE2000FFF7BBFE75692000FFF763FE0E28FAD8CE22064BD2051B682A43DB68E3181A60044AA358002BFCDB05B0F0BDC04672
:404C00001C080008F010000010B504002423002200F0BCF82000FFF787FE2000FFF74CFE10BDF0B504000E0017001D008BB010AB1A7801A9FFF7C6FE01A92000FFF720FFF4
:404C40003B00320001A92000FFF736FF2A0001A92000FFF763FF200001A9FFF7D5FF00200BB0F0BD034B1B689B68C0180F230068184070471C080008034B1B681B68C018BD
:404C80000368002BFCD170471C080008F8B504000D0017001E002000FFF7E4FF0C28FAD8082D04D00C4AA358002BFCDB04E086225201A358002BFCDBE221084BC9051B68DD
:404CC0000D43DA68A2181560DA68A2181760DB68E4182660F8BDC046D01000001C08000870B504000E0015002000FFF7BBFF0C28FAD8064B06491B68DA68A2181160DA6800
:404D0000A2181660DB68E418256070BD1C0800080C00007070B51E000C0005000821FFF7B5FF210032002800FFF7DAFF34000F2C18D81024330964425C43A419A4B2002CE6
:404D40000CD02800FFF78EFF0E28FAD80C4B0D4A1B682404DB681443EB181C602800FFF78BFF70BD2800FFF77DFF0E28FAD8044B054A1B68103CDB68A4B2EB181A60D6E77B
:404D80001C08000808C0004008C01040F8B51F0016001A0005003C00FFF7A2FF0F2C19D810243B0964425C43E419A4B2002C0DD02800FFF757FF0E28FAD80E4B0E4A1B68DE
:404DC0003243DB682404EB1814431C602800FFF753FFF8BD2800FFF745FF0E28FAD8054B064A1B683243DB68103CEB181A60A4B2D4E7C0461C08000800C0004200C0104273
:404E000070B51C008C231600002205005B01C2500A0023000821FFF739FF3200230009212800FFF733FF26000F2E1BD8102322095B4253431C19A4B2002C0CD02800FFF7EC
:404E400011FF0E28FAD80E4B0E4A1B682404DB681443EB181C602800FFF70EFF8C235B01E85870BD2800FFF7FDFE0E28FAD8044B054A1B68103EDB68B6B2EB181A60D3E790
:404E80001C0800089800004398001043F8B505001F000C0006AB1E8808213300FFF7F6FE33003A0009212800FFF7F0FE210032002800FFF715FF34000F2C18D8102433098F
:404EC00064425C43A419A4B2002C0CD02800FFF7C9FE0E28FAD80D4B0D4A1B682404DB681443EB181C602800FFF7C6FEF8BD2800FFF7B8FE0E28FAD8044B064A1B68103C11
:404F0000DB68A4B2EB181A60D6E7C0461C08000898C0004198C01041F7B504001000A022214D9200A126A5503F22B600A251B02200259200A550B4270832A55001220193A3
:404F4000B823BF00E251194F9B00E750A827BF00E151A921019B890060501C3963500323134FA1593800194217D0A42189006250104A019611680A68A218280008E00028F9
:404F800009D1019D6559AC466646094D1E42F4D01568002DF3DBB84200D1FEBDCB69E4182268089B1A60F8E70000033101000100010032001C08000810B50A4B89061B682E
:404FC00029331B78013B5C1EA3410C339A408023054C1B0624681943E4680A430019026010BDC046500800081C080008054B064A1B68293319781300012900D05433034AAE
:405000001360704750080008446C00101C08000870B50400FFF7EAFF3D4B3E4A19680B0029331B78012B5DD13B4B2360012512682000536BE3181D60936B126DE318A218DC
:405040001A60CA6C0F21FFF7B7FF200000220E21FFF7B2FF200000220D21FFF7ADFF200000220C21FFF7A8FF200000220B21FFF7A3FF200000220A21FFF79EFF2000002226
:405080000921FFF799FF200000220821FFF794FF200000220721FFF78FFF200000220621FFF78AFF200000220521FFF785FF200000220421FFF780FF200000220321FFF754
:4050C0007BFF200000220221FFF776FF290020000022FFF771FF002220001100FFF76CFF002070BD23680D48034080202360136880025B68E3181860802320681B06034389
:40510000236003238020A360054BC001E0508DE7500800081C08000803000080FFFFFE7F881400000323037000207047054B1B6829331A7800230360012A01D100207047BD
:405140008360FBE750080008064B89001A681369126DC91809180B6880189B009B0C9B00181870471C08000810B5064C246829342478012C02D1FFF799F810BDFFF7CAFD09
:40518000FBE7C0465008000870B5DC0805001600A4B25B0701D00134A4B22800FFF7D4FF3200010023002800FFF7DEFF70BD70B5DC0805000E00A4B25B0701D00134A4B2D0
:4051C00011002800FFF7C0FF3100020023002800FFF7CAFF70BD000002B4714649084900095C49008E4402BC7047C046002243088B4274D303098B425FD3030A8B4244D3D8
:40520000030B8B4228D3030C8B420DD3FF22090212BA030C8B4202D31212090265D0030B8B4219D300E0090AC30B8B4201D3CB03C01A5241830B8B4201D38B03C01A524141
:40524000430B8B4201D34B03C01A5241030B8B4201D30B03C01A5241C30A8B4201D3CB02C01A5241830A8B4201D38B02C01A5241430A8B4201D34B02C01A5241030A8B4208
:4052800001D30B02C01A5241CDD2C3098B4201D3CB01C01A524183098B4201D38B01C01A524143098B4201D34B01C01A524103098B4201D30B01C01A5241C3088B4201D3FD
:4052C000CB00C01A524183088B4201D38B00C01A524143088B4201D34B00C01A5241411A00D20146524110467047FFE701B5002000F006F802BDC0460029F7D076E7704727
:405300007047C04630B50024A24208D0035D651C0C5DA34201D0181B02E02C00F4E7002030BD002310B59A4203D0CC5CC4540133F9E710BD03008218934202D01970013309
:40534000FAE77047030030B5002A0DD00C7801335D1E013A2C700131002CF5D19A189A4202D01C700133FAE730BD0000F8B5C046F8BC08BC9E467047F8B5C046F8BC08BC99
:405380009E46704703000000010000000200000003001B000200000000000000000000000000000002001A00020000000400540002000000030000000100000001000000AF
:4053C0000000000005036000040000000100000000000000010000000604600008000000C8070008E101001073797374656D5F70736F63365F636D30706C75732E63000061
:40540000F4010000140004010A0009050800000063010000002034407400802034407400002234407400802234407400802434407400002634407400802634407400002866
:4054400034407400802834407400002A34407400802A344074000000002434400058001074000000002134407458001090000000002334400459001090000000002534406E
:40548000945900109000000000273440245A00109000000000293440B45A001090000000002B3440445B00109000000000603440D45B00107C00000080603440505C0010DE
:4054C0007C00000000613440CC5C00107C00000080613440485D00107C00000000623440C45D00107C00000080623440405E00107C00000000633440BC5E00107C000000A1
:4055000080633440385F00107C00000000643440B45F00107C00000080643440306000107C00000000653440AC6000107C00000080653440286100107C000000100F1108EF
:405540001C04AB01B701DD04E3010104024003080401053F080609500B010C220D500F02100413201432158016081822190F1A181C011E1E1F402018214022062314241C74
:40558000254026222708283F29402B182C2A2E10306031C0321F3460373F380839823F015C045D046301800382048401860E8B028C278E4090109301940696019C279E40F6
:4055C000A402A605A801A902AA08AC10B010B20FB302B670B701B882B908BA08BE41C065C404C5D0C7B0C822C9FFCA7FCBFFCC42CDA0CE70D00CDC04DD04DE04E301E50900
:40560000E640E709E830E90900400214034206010720080109010B420C4F0F101048118812021305144015EF160B18031C421D011E091F02200321412220230424012505F5
:40564000270A281F29602C902D462E0B301F311F34E035603640378038A039803E505C045D04630181018302840A86018A0B8E0B9108920B950899019B069C019E06A001CE
:40568000A21AA801AA04AD08AE20B020B108B210B303B408B607B704B902BA80BE10DC04DD04E30100030401080309FF0C400D0E0E070F301008118012071356141015403D
:4056C00016071713180119461BA91C221D331E051F0C203A22042401252A2754287F2C052E782F01307F33FF3E015C045D046301810D8240840586308708888189E28A02CB
:405700008C058D3D8E108FC293FF9481959296289760980499019A019C059E109F02A001A15DA20EA3A2A404A504A601A7E0A901AA80AD40AE10AF1DB070B270B480B60F42
:40574000B7FFBA8ABF40DC04DD04E301681800011401180103013440042434405F2634404E283440542A3440017234400378344002000000000000000000000060000000BB
:405780000000000000000000000000000012000000000000000000000000000000000000000000BA0000000000000000000000000000000000001D1D4F0000000000000094
:4057C000000000000000600000000000000000000000000004050000000000007E0000000000000000000000C80C00000000000000000000000000000003030000000000E8
:4058000000000F0410FF600000000F02000031010F1A306030CC081330040400004D329220A9105400A5384A100240000F0080B50FFF800070000000000020000000010180
:40584000450000000005002021FFFFFF42A0700008100000F600200400000000040404040000000100484048804880480000000000000000000000000000000000000000AB
:40588000FFFFFFFFFFFFFFFFFFFFFFFFFFFFFFFFFFFFFFFFFF000000FFFFFFFFFFFFFFFFFFFFFFFFFFFFFFFFFFFFFFFFFF0000000000000000000000000000000000000012
:4058C0000000000000000000FFFFFFFFFFFFFFFFFFFFFFFF1111111111111111111111111111111111111111111111111111111111111111111111111111111111111111C8
:4059000011111111000000000000000000000000FFFFFFFFFFFFFFFFFFFFFFFFFFFFFFFFFFFFFFFFFF000000FFFFFFFFFFFFFFFFFFFFFFFFFFFFFFFFFFFFFFFFFF0000004D
:40594000000000000000000000000000000000000000000000000000FFFFFFFFFFFFFFFFFFFFFFFF1111111111111111111111111111111111111111111111111111111157
:405980001111111111111111111111111111111111111111000000000000000000000000601732150734201030635555FF4FF4374302FFFFFF000000FF4FFFFFFFFF7FFFAA
:4059C000FFFFFFFFFFFFFFFFFFFFFFFFFF000000000000000000000000000000000000006400002000000000FFFFFFFFFFFFFFFFFFFFFFFF101171101111012111D510B0B0
:405A00001110101911000171C30110110010AB61D11011117B10231B11111110112191111111111D001000000000000000000000331F351F0F170FF7FF3F3FFFFF3F33FF97
:405A4000FFFFFFFFFF0000002252323011171F30550475357FFFFFFF1FFFFFFFFF000000000000000000000000000000000000000000000000600F00FFFFFFFFFFFFFFFFDD
:405A8000FFFFFFFF1631F0D0111601F1131F12F001600A3F110301F1F001100300131F1110121111FF13FF72111114101131111334111111042000000000000000000000A1
:405AC0002317345115573330F5566026FFFFFF2FFFFFFFFFFF0000002F61F553F74751FF6F01FF0FFFFFFFFF1FFFFFFFFF0000000000000000000000000000000000000025
:405B0000000F40000000F000FFFFFFFFFFFFFFFFFFFFFFFFFF11F114111FD1F1171F3FF30813333F11010111F3211341D0324111131111111F301FF141111F641151D11198
:405B40001F11111100000000000000000000000031131F110344511031033214FFFFFFFFFFFFFFFFFF000000541234032121F5F0110341FFFFF3FFFFFFFFFFFF0F00000033
:405B8000000000000000000000000000000000000000000000000000FFFFFFFFFFFFFFFFFFFFFFFF33131F11111FF11116F1FFFF3118111F11532121FF111111231111218D
:405BC000111111111FF3111111111111111111111111111100000000000000001F1F1F1F1F1F1F1F1F1F1F1F1F1F1F1F1F1F1F1F1F1F1F1F1F1F1F1F1F1F1F1F0000000081
:405C00000000000000000000000000000000000000000000FFFFFFFFFFFFFFFFFFFFFFFF111111111111111111111111111111111111111111111111111111111111111150
:405C40001111111111111111111111111111111100000000000000001F1F1F1F1F1F1F1F1F1F1F1F1F1F1F1F1F1F1F1F1F1F1F1F1F1F1F1F1F1F1F1F000000000000000034
:405C800000000000000000000000000000000000FFFFFFFFFFFFFFFFFFFFFFFF1111111111111111111111111111111111111111111111111111111111111111111111118C
:405CC00011111111111111111111111108000000000000001F1F1F1F1F1F1F1F1F1F1F1F1F1F1F1F1F1F1F1F1F1F1F1F1F1F1F1F1F1F1F1F000000000000000000000000F0
:405D0000000000000F00000000000000FFFFFFFFFFFFFFFFFFFFFFFF1111111111D111111111111111111111111111111111111111111111111111111111111111111111F8
:405D4000111111111111111100000000000000001F1F1F1F1F1F1F1F1F1F1F1F1F1F1F1F1F1F1F1F1F1F1F1F091F1F1F1F1F1F1F00000000000000000000000000000000D1
:405D80000000000000000000FFFFFFFFFFFFFFFFFFFFFFFF111111111101111111111111111111111111111111111111111111111111111111111111111111111111111113
:405DC0001111111100000000000000001F1F1F1F1F1F1F1F1F1F1F1F1F1F1F1F1F1F1F1F1F1F1F1F1F1F1F1F1F1F1F1F00000000000000000000000000000000000000007F
:405E000000000000FFFFFFFFFFFFFFFFFFFFFFFF1111111111111111111111111111111111111111111111111111111111111111111111111111111111111111111111113E
:405E400000000000000000001F1F1F1F1F1F1F1F1F1F1F1F1F1F1F1F1F1F1F1F1F1F1F1F1F1F1F1F1F1F1F1F00000000000000000000000000000000000000000000000042
:405E8000FFFFFFFFFFFFFFFFFFFFFFFF11111111111111111111111111111111111111111111111111111111111111111111111111111111111111111111111100000000BE
:405EC000000000001F1F1F1F1F1F1F1F1F1F1F1F1F1F1F1F1F1F1F1F1F1F1F1F1F1F1F1F1F1F1F1F000000000000000000000000000000000000000000000000FFFFFFFFC6
:405F0000FFFFFFFFFFFFFFFF111111111111111111111111111111111111111111111111111111111111111111111111111111111111111111111111000000000000000039
:405F40001F1F1F1F1F1F1F1F1F1F1F1F1F1F1F1F1F1F1F1F1F1F1F1F1F1F1F1F1F1F1F1F000000000000000000000000000000000000000000000000FFFFFFFFFFFFFFFF49
:405F8000FFFFFFFF11111111111111111111111111111111111111111111111111111111111111111111111111111111111111111111111100000000000000001F1F1F1F39
:405FC0001F1F1F1F1F1F1F1F1F1F1F1F1F1F1F1F1F1F1F1F1F1F1F1F1F1F1F1F000000000000000000000000000000000000000000000000FFFFFFFFFFFFFFFFFFFFFFFF49
:4060000011111111111111111111111111111111111111111111111111111111111111111111111111111111111111111111111100000000000000001F1F1F1F1F1F1F1F38
:406040001F1F1F1F1F1F1F1F0C0E121F1F1F1F1F1F1F1F1F1F1F1F1F000000000000000000000000000000000000000F00F00200FFFFFFFFFFFFFFFFFFFFFFFF1111111130
:406080001111111111111111111111116111D11111111111111111111111111111111111111111111111111D1111111100000000000000001F1F1F1F1F1F1F1F1F1F1F1F64
:4060C0001F1F1F1F1F1F1F1F1F1F1F1F1F1F1F1F1F1F1F1F000000000000000000000000000000000005000000004000FFFFFFFFFFFFFFFFFFFFFFFF111111111111111173
:40610000111111111111111111111111111111111111111111F111111F11111111111111111111111111111100000000000000001F1F1F1F1F1F1F1F1F1F1F1F1F1F1F1FD9
:406140001F1F1F1F1F1F1F1F1F1F1F1F1F1F1F1F000000000000000000000000000000000000000000000000FFFFFFFFFFFFFFFFFFFFFFFF1111111111111111111111116F
:4061800011111111111111111111111111111111111111111111111111111111111111111111111147656E6572617465645F536F757263655C50536F43365C70646C5C64D9
:4061C0007269766572732F7065726970686572616C2F6970632F63795F6970635F6472762E68000047656E6572617465645F536F757263655C50536F43365C70646C5C64B5
:406200007269766572735C7065726970686572616C5C6770696F5C63795F6770696F2E630000000047656E6572617465645F536F757263655C50536F43365C70646C5C64B7
:406240007269766572735C7065726970686572616C5C6770696F5C63795F6770696F2E680000000047656E6572617465645F536F757263655C50536F43365C70646C5C6472
:406280007269766572735C7065726970686572616C5C6970635C63795F6970635F6472762E68000047656E6572617465645F536F757263655C50536F43365C70646C5C646D
:4062C0007269766572735C7065726970686572616C5C6970635C63795F6970635F6472762E63000047656E6572617465645F536F757263655C50536F43365C70646C5C6432
:406300007269766572735C7065726970686572616C5C6970635C63795F6970635F706970652E630047656E6572617465645F536F757263655C50536F43365C70646C5C648F
:406340007269766572735C7065726970686572616C5C70726F745C63795F70726F742E630000000047656E6572617465645F536F757263655C50536F43365C70646C5C644A
:406380007269766572735C7065726970686572616C5C737973636C6B5C63795F737973636C6B2E630000000047656E6572617465645F536F757263655C50536F43365C70F2
:4063C000646C5C647269766572735C7065726970686572616C5C737973636C6B5C63795F737973636C6B2E680000000047656E6572617465645F536F757263655C50536F62
:4064000043365C70646C5C647269766572735C7065726970686572616C5C737973696E745C63795F737973696E742E630000000047656E6572617465645F536F757263652D
:406440005C50536F43365C70646C5C647269766572735C7065726970686572616C5C737973706D5C63795F737973706D2E63000000002040000024400000004000000000B6
:4064800000002340000030400000314000009F40000022400000104002020202020202020210101D800017007500FF030602063604102000000000007FC0000000040000EF
:4064C000000000000019324B647D00804000080B100000000000FF012002001F00800004FF081018001000140018001C4044484C500000000810000008000000040000006A
:40650000041000000012000004210000002100000016000040114002C41300138013A013200000001C0000000000214000002540000001400000344000002440000031408A
:406540000000324000001F410000234000001140010101010101010101101010800019005500F0000501053B04101C01010000000FC000000004000001010101011D3A5780
:40658000789600082000101208000000001F00000010000F002000023F06080E00080009000A000B24282C303400000010000000900000008800000008000000800000000E
:4065C00004F0000000F00000400200002005A000D00100018001A0012000000010000000B13F0010D13F001091430010000000000000000000000000000000000000000088
:40660000000000003942001000000000AD420010E54200101D43001051430010B13D0010ED3D0010793E0010013F00100000000000000000000000005948001079480010B4
:40664000194F0010000000000000000000000000000000000000000000000000234C001000000000154D00108D4D0010014E00108D4E0010B1450010ED45001019470010C5
:40668000A1470010000000000000000000000000B13F0010D13F001091430010E123001039240010792400106925001011260010052800103942001065280010AD42001067
:4066C000E54200101D43001051430010B13D0010ED3D0010793E0010013F00100000000000000000000000005948001079480010194F0010A92B0010D92B0010352C00109D
:40670000112D0010D12D001095310010234C0010DB310010154D00108D4D0010014E00108D4E0010B1450010ED45001019470010A147001000000000000000000000000036
:40674000B13F0010D13F001091430010E123001039240010792400106925001011260010052800103942001065280010AD420010E54200101D43001051430010B13D001055
:40678000ED3D0010793E0010013F001091390010C13C0010F53800105948001079480010194F0010A92B0010D92B0010352C0010112D0010D12D001095310010234C001050
:4067C000DB310010154D00108D4D0010014E00108D4E0010B1450010ED45001019470010A147001091390010C13C0010F53800108C68001079680010666800105368001065
:40680000406800101A6800102D6800100F131313131313141C203040201C3031300D060960864801650304020605000420302D300D06096086480165030402050500041C03
:406840003051300D0609608648016503040203050004403041300D0609608648016503040202050004303031300D060960864801650304020105000420302D300D06096050
:4068800086480165030402040500041C3021300906052B0E03021A05000414000101010101010101FEFEFEFEFEFEFEFE1F1F1F1F0E0E0E0EE0E0E0E0F1F1F1F1011F011F38
:4068C000010E010E1F011F010E010E0101E001E001F101F1E001E001F101F10101FE01FE01FE01FEFE01FE01FE01FE011FE01FE00EF10EF1E01FE01FF10EF10E1FFE1FFEA6
:406900000EFE0EFEFE1FFE1FFE0EFE0EE0FEE0FEF1FEF1FEFEE0FEE0FEF1FEF10123456789ABCDEFFEDCBA9876543210F0E1D2C3D89E05C107D57C3617DD703039590EF766
:40694000310BC0FF11155868A78FF964A44FFABE67E6096A85AE67BB72F36E3C3AF54FA57F520E518C68059BABD9831F19CDE05B5D9DBBCBD89E05C12A299A6207D57C360D
:406980005A01599117DD7030D8EC2F1539590EF767263367310BC0FF874AB48E111558680D2E0CDBA78FF9641D48B547A44FFABE67E6096A08C9BCF385AE67BB3BA7CA84BE
:4069C00072F36E3C2BF894FE3AF54FA5F1361D5F7F520E51D182E6AD8C68059B1F6C3E2BABD9831F6BBD41FB19CDE05B79217E13C8373D8CA24D54196699E173D6D4DC8913
:406A0000AEB7FA1D829CFF3214D59D67CF9F2F58692B6D0FA84DD47B736FE3774289C404A8859D3FC8361D6AADE61211A192D691942131222CF72BFCA35F559FC2644CC826
:406A40006BB8932351B1536F19773896BDEA4059E23E2896E3FF8EA8251E5EBE92398653FC99012BAAB8852CDC2DB70EA22CC5810101010101010101FEFEFEFEFEFEFEFE34
:406A80001F1F1F1F0E0E0E0EE0E0E0E0F1F1F1F1011F011F010E010E1F011F010E010E0101E001E001F101F1E001E001F101F10101FE01FE01FE01FEFE01FE01FE01FE01DE
:406AC0001FE01FE00EF10EF1E01FE01FF10EF10E1FFE1FFE0EFE0EFEFE1FFE1FFE0EFE0EE0FEE0FEF1FEF1FEFEE0FEE0FEF1FEF167452301EFCDAB8998BADCFE10325476CE
:406B0000C3D2E1F06A09E667BB67AE853C6EF372A54FF53A510E527F9B05688C1F83D9AB5BE0CD19C1059ED8367CD5073070DD17F70E5939FFC00B316858151164F98FA734
:406B4000BEFA4FA46A09E667F3BCC908BB67AE8584CAA73B3C6EF372FE94F82BA54FF53A5F1D36F1510E527FADE682D19B05688C2B3E6C1F1F83D9ABFB41BD6B5BE0CD19D2
:406B8000137E2179CBBB9D5DC1059ED8629A292A367CD5079159015A3070DD17152FECD8F70E593967332667FFC00B318EB44A8768581511DB0C2E0D64F98FA747B5481D68
:406BC000BEFA4FA422312194FC2BF72C9F555FA3C84C64C22393B86B6F53B151963877195940EABD96283EE2A88EFFE3BE5E1E25538639922B0199FC2C85B8AA0EB72DDC92
:406C000081C52CA28C3D37C819544DA273E1996689DCD4D61DFAB7AE32FF9C82679DD514582F9FCF0F6D2B697BD44DA877E36F7304C489423F9D85A86A1D36C81112E6ADA6
:406C400091D692A1040000004000000044000000480000008000000000010000100200008802000000040000100400002004000040040000480400008004000084040000B5
:406C800090040000C0070000C4070000C8070000CC0700000040000004100000401000004410000048100000C01400000011000018020000980200000014000010140000EB
:406CC0002014000040140000481400008014000084140000901400000001000004010000080100000C01000000800000000000000000001000000008C0000000106D0010DF
:406D0000C0000008400500003C060008180200000048E80100127A0000093D0000093D0000093D0004000000A00F00000000D007E9000010C10000100000000010B5000436
:406D4000400B27D0144B1A68146AB023D15ACA00531AE3181B68002BF4DA3E220F4B1A600F4A104B1A60104B0621A322D20099500E4A98509B58084B1A68106AB023D15AE2
:406D8000CA00531AC31800225A60084B064AD358002BFADA10BDC04650080008040126401E1F000008012640000026401C05000010B54378FF2B20D100F032FA04000F4B32
:406DC0001A683123D35C042B04D8C421FF310C4800F0F6F9094B1A68116AB023D35A9B00CB18DB685A68116801230B4313601368DB07FCD4200000F023FA10BD5008000882
:406E0000A4610010F0B585B001900291544B1A683123D35C002B04D1C421FF31514800F0CFF94F4B1B681E6AB4229A58971950229B5C002B77D000F0DBF9050003283CD13C
:406E4000474B1A683123D35C062B04D8C421FF31444800F0B5F9424B1968B023CB5A5A00D21853000A6A94466344B4228A58D3181B68002B23DB002000F0CAF93A4B98421C
:406E80001FD03A4B1A6900230021012000F0A8F9002803D0364C17E0013400E00024002000F0B6F9304B984202D0324B9C42F3D9304B9C4207D92E4C06E0002404E02C4C12
:406EC00002E02B4C00E00024002C46D100F0A8F90390294B294AD358002B13DA234A0121300000F0A5F900280ED10298FFF726FF019B002B0AD03B68002BFCDB00F080F9EC
:406F0000040004E01A4C02E0194C00E01C4C032D05D10121002000F05BF90028F9D1039800F08EF919E000F07BF905000F4A0121300000F07DF9002809D1019B002B08D0D0
:406F40003B68002BFCDB00F05BF9040002E0084C00E00B4C280000F073F9200005B0F0BD50080008A461001001018800E807000805005200EF4902001C05000000002640A3
:406F800001005000F0B54F464646C0B4824B1A685468B0235B055B78002B04D0B0235B055B78DBB200E02123212B67D1B023D15ACB005B1A116A8C46634419680029F5DA50
:406FC000DD6802212943D960B023D15ACB005B1A116A8C466344D968C9073ED5D9680904090C8C4684271168D559A84641440968090A0904FF26360431400D00882611689F
:40700000894691598846C14449460968090A0906294365462943D9601168D359C9180A685E4B98461A4090252D012A430A605A4B99461A6813689C4692596244136841465D
:4070400019400B002B4313604B461A681568D15969180B689359EB181B684F4B1A68B021555AEB005B1B156AAC46634400255D60156A515ACA00531AEB185B68484A116981
:4070800004230B431361012801D030BF00E020BF414B1A68B023D15ACB005B1A116A8C46634419680029F3DAB02149054978002904D0B02149054978C9B200E021212129E4
:4070C00032D1D968C90722D510688421525880180468324A1440DB681B0C1B02FF2109020B40234303602C4B19688823C8580B689C46604403681A400D6AB023CC5AE10052
:407100000B1BEB18DB681B0E1B021A430260224B1A68106AB023D15ACA00531AC318DA6802218A43DA6028E086235B00E358002B23D11C4807681C4BA321C9005E581B4AB1
:40714000904615681A4A0260062058503E21424611600631174A9950164B134AD358002BFADA154A86235B00E2500E4B1F60A323DB000D4AD6500D4B1D60074B1A68106AB9
:40718000B023D15ACA00531AC31800225A600CBC90469946F0BDC04650080008FF00FFFF00ED00E00801264000002640040126401E1F00001C050000AAAAAAAA0000000043
:4071C00001B40248844601BC604700BF1118001001B40248844601BC604700BF190F001001B40248844601BC604700BF8911001001B40248844601BC604700BF650400104B
:4072000001B40248844601BC604700BFC10B001001B40248844601BC604700BFA50F001001B40248844601BC604700BF9319001001B40248844601BC604700BF8D0D001098
